:02000002B0004C
:1040000000400B0000B40D00000006000C0005028B
:084010000401A30F00000000F1
:04401800246C0D0007
:1040200009480A49884208B505D0094A824202D0A7
:10403000121A1DF06DF90748074A0021121A1DF0E7
:104040008FF9014808BD00BFF0CB032000B10D007F
:10405000C8CE0320C8CE0320F0E7032070B5074E7A
:10406000074C01F0E7FBA41BA4080025AC4200D1DB
:1040700070BD56F8043B98470135F7E798B00D003E
:10408000D0B00D0000F0B6BA08B500F0B3F9BDE845
:10409000084001F087BB01F08BB801F089B801F04E
:1040A0008FB801F08DB801F08BB800000048704760
:1040B00006960D0008B5034A03490C2000F0BCFF2A
:1040C000FEE700BF894D0B00386C0D000078B0FA98
:1040D00080F04009704701230370704710B5044613
:1040E00042B90268C9B2926890472046BDE81040C4
:1040F00001F0E5BAD2B201F0F8FAF6E738B50446B5
:104100006CB1E068FFF7FAFFA56804F1140001F054
:10411000CFF920462421FFF7C6FF2C46F0E738BD33
:1041200038B5046805467CB16368013B63605BB9E0
:10413000236820469B689847A368013BA3601BB98E
:1041400023682046DB689847284638BDF0B5031D34
:10415000826818464AB117690E68D2E90245B7422B
:104160002ABF10462A462246F4E7834204D0096853
:104170000269914238BF1846F0BD00002DE9F341B5
:104180000A22694600682E4D1EF0C2F901A901906D
:1041900007462846FFF7DAFF05F1040880454CD0B2
:1041A000A86846460446F4B123699F4204D9E368EF
:1041B000344626461C46F6E7A368FAD3E26843B1C4
:1041C0001969D3E902CE8F4296BF1C4673466346F7
:1041D000F5E74AB11169D2E9023E8F4236BF164671
:1041E00072461A46F5E73446EB68A3420CD14645C1
:1041F0000AD1FFF783FF0023C5E90236C5E904634E
:10420000012002B0BDE8F081DFF83880B442F7D079
:10421000204603F052FE41460746204603F0ACFE1E
:104220000446143001F044F920462421FFF73BFFF7
:104230006B69013B6B613C46E8E70020E1E700BFAA
:10424000D8CE0320DCCE032070B5043043684BB1D8
:104250001E690D68D3E90224AE422ABF18462346E0
:104260001346F4E770BD000010B58AB003A90390AF
:104270001F48204CFFF76AFF84422ED003A9201F5D
:10428000FFF7E2FFA04203D00369039A9A4202D2E9
:1042900019480DF011FF416906A801F095F9174B77
:1042A000069A1B7816498DF8003004A83C2301F0CB
:1042B00045FC05A8FFF734FF06A801F0F9F8012135
:1042C000002002F08CF84FF4FA6001F03FFA002170
:1042D000084602F084F80AB010BD0121084602F039
:1042E0007EF84FF4FA6001F031FA00210120F0E786
:1042F000D8CE0320DCCE03204D6C0D00CCCE0320A5
:10430000556C0D007FB5314B314D18689A889B79FB
:1043100002900026ADF80C208DF80E302D488DF857
:1043200007600DF1070302AA314600F087FC2A4C12
:1043300000283AD001F04AFE284901F0CCF901F0FA
:1043400045FE274901F0B4F901F040FE0A229DF82C
:10435000071001F0CAF901F039FE224901F0BBF95A
:1043600001F034FE204901F0A3F99DF8071002A8DE
:1043700000F06EFA9DF80730042B11D1029B2E60DD
:104380001BBA236001F022FE184901F091F901F0F7
:104390001DFE21680A22FFF7A1FE2068FFF764FFD7
:1043A00001F014FE124901F096F901F00FFE2168A8
:1043B0000A22FFF793FE2B6801333C2B2B60C2BF10
:1043C000002323602B6004B070BD00BF7B6D0D0027
:1043D000D4CE0320F0CE0320D0CE0320596C0D00A4
:1043E000716C0D00806C0D00876C0D00956C0D00DC
:1043F00006960D00FFF786BF38B51C460546031D1F
:1044000079B99A420DD010692169884294BF002081
:104410000120214603F055FD6B6901336B61204695
:1044200038BD0120F5E7F8B58B68164604460D1D2A
:10443000012263B11D693268D3E90270954288BFD9
:1044400001221D4696BF00223B460346F1E792B18A
:10445000CA68AA4203D1C4E900352046F8BD2846FF
:1044600003F02DFD336802699A424FF00003F2D346
:10447000C4E90003F1E72846F4E72DE9F0411F46BF
:104480000B1D9A4204460E4615460AD14B69002B75
:1044900032D00B6939681A6991422DD90022226005
:1044A00008E0D7F800801369434515D9CB689342DB
:1044B00002D1036063600CE0104603F000FD036965
:1044C000434519D2C36813B92360606001E02560D9
:1044D00065602046BDE8F08114D20B699342DDD0BF
:1044E000104603F0E8FC0369984505D2EB680BB968
:1044F0002360EDE72060E8E73A4631462046FFF7C3
:1045000092FFE6E722600023D4E700002DE9F341A3
:1045100006460F46FFF798FE331D9842044603D027
:104520003A6803699A421CD22420FFF7B4FD3B6825
:104530001249074600F1140847F8103F0546404667
:1045400001F001F822463B4631466846FFF795FFE9
:10455000DDE9004252B121462B463046FFF74CFFC1
:10456000044604F1140002B0BDE8F081404600F0BA
:104570009FFF24212846FFF796FDF2E706960D00DF
:1045800013B50A22006869461DF0C2FF0128019098
:104590000AD9009C054801A9FFF7B8FF214601F0A0
:1045A00000F8012002B010BD0020FBE7D8CE0320A8
:1045B00038B50D4D044629460C48FFF7C7FD0C4B96
:1045C00098420BD12B68012B0BD929460438FFF7F1
:1045D0009DFF214600F0CBFF012038BD4FF0FF309A
:1045E000FBE70020F9E700BFD0CE0320D8CE0320A0
:1045F000DCCE0320F0B58BB001F0E8FC4FF4E131E4
:1046000001F0D2FC0121084601F0D8FE0121002072
:1046100001F0D4FE524A5349534801F098F9534AE5
:104620005349514801F093F9524A53494E4801F019
:104630008EF901F0CBFC01F0BEFC18B90A2001F0A4
:1046400085F8F6E74D4D4E48069506A9FFF7FCFDA7
:104650004C4B9842044602D00369AB421CD924203B
:10466000FFF719FD0646069B46F8103F00F11407B8
:1046700045490546384600F066FF22464049334624
:1046800004A8FFF7FAFEDDE9044292B321463C4854
:104690002B46FFF7B1FE04463C493D4F3D4D3E4E93
:1046A00004F1140000F07DFF394800F0FDFA3846AF
:1046B00000F078FA044620BB01F088FC294601F09E
:1046C0000AF8294606A800F07FFF3378069A334996
:1046D0008DF8003002A83C2301F030FA03A8FFF760
:1046E0001FFD06A800F0E4FE4FF47A7001F02EF8EA
:1046F000DDE7384600F0DCFE24212846FFF7D3FC36
:10470000CAE701F063FC264900F0D2FF01F05EFC2D
:104710001022210EFFF7E2FC01F058FC214900F0C5
:10472000C7FF01F053FC0A22C4F3074100F0DDFF8C
:1047300001F04CFC2E2100F0BFFF01F047FCC4F358
:1047400007210A22FFF7CAFC114800F059FA01F0CC
:104750003DFC15490BB0BDE8F04000F0BCBF00BF08
:10476000AB6C0D0081450B0023590B00D06C0D0084
:104770007D410B00F16C0D00B1450B001B18A4C16D
:10478000D8CE0320DCCE032006960D00206D0D0050
:10479000F0CE03202C6D0D00CCCE0320356D0D0026
:1047A0003B6D0D004A6D0D00596D0D000B4B13B59F
:1047B00000241C700A4801F0E3FE0A4B0A481C71F1
:1047C0001A1DC3E903229C605C610E2300930B2237
:1047D0000C230D2100F034F802B010BDCCCE032024
:1047E000CDCE0320D8CE0320F0CE032070B50646F0
:1047F0000C4615462AB90368BDE870409B68C9B2EB
:10480000184700290BDA0A2A09D12D2100F054FF9C
:104810006142EAB23046BDE8704000F066BF214612
:10482000F7E710B504463AB903689B6898472046F5
:10483000BDE8104000F043BFD2B200F056FFF6E7EB
:1048400010B503719DF80830C1704271837010BDBE
:104850002DE9F843184FDFF86880DFF868900D46BF
:10486000441E0026AE421FD001F0B0FB394600F0D6
:104870001FFF63780F2B04D801F0A8FB414600F01E
:1048800017FF01F0A3FB14F8011F102200F02DFF09
:10489000012D07D96B1EB34204D001F097FB4946A6
:1048A00000F006FF0136DDE701F090FBBDE8F843BC
:1048B000024900F010BF00BF8F6D0D0006960D007D
:1048C000826D0D0005960D0013B50B4C2178BFF3DA
:1048D0005B8F11F001010BD120460191FFF7F6FB30
:1048E000019928B1054800F017FD2046FFF7F3FBBA
:1048F000024802B010BD00BF08CF03200CCF032038
:1049000007B50190FFF7E0FF019903B05DF804EBF4
:1049100000F0B6BD5520FFF7F3BF38B500210446BF
:10492000807801F05CFD022000F010FF0220FFF70C
:10493000E7FF2046FFF7EEFF01210546A07801F0D2
:104940004EFD284638BD0000F8B5054616460C4613
:1049500001F03CFB1749184F00F0AAFE0021A8788F
:1049600001F03DFD022000F0F1FE0320FFF7C8FF3B
:104970002644B44213D0012000F0E8FE2846FFF799
:10498000C9FF207001F022FB394600F091FE01F0D2
:104990001DFB14F8011B102200F0A7FEE9E7A87820
:1049A000012101F01CFD01F011FBBDE8F84000F011
:1049B00086BE00BF846D0D008E6D0D0007B506220A
:1049C0006946FFF7C1FF0549062268461CF08DFEC7
:1049D000B0FA80F0400903B05DF804FBF0CB03208F
:1049E0002DE9F04707461446551C884601F0EEFABB
:1049F0005449DFF8549100F05BFE0021B87801F0D3
:104A0000EEFC022000F0A2FE0120FFF779FF00205B
:104A1000FFF776FF0020FFF773FFEDB2FF20FFF7EF
:104A20006FFF2846FFF76CFFE043C0B2FFF768FF57
:104A3000D420FFF765FF01F0C9FA434900F038FEC2
:104A400001F0C4FA10220021FFF7D0FE01F0BEFAF7
:104A50003D4900F02DFE01F0B9FA10220021FFF7C8
:104A6000C5FE01F0B3FA384900F022FE01F0AEFABB
:104A70001022FF21FFF7BAFE01F0A8FA324900F038
:104A800017FE01F0A3FA1022294600F02EFE01F0D5
:104A90009DFA2D4900F00CFE01F098FA10226942AF
:104AA000FFF7A4FE01F092FA274900F001FE01F0A1
:104AB0008DFA1022D421FFF799FE0024D326013D60
:104AC00004F1010AE4B2AC4215DA18F80400FFF769
:104AD00017FF18F804301E4401F078FA494600F038
:104AE000E7FD01F073FA18F80410102200F0FDFD44
:104AF000F6B25446E4E7F643F0B2FFF701FF0020B8
:104B0000FFF7FEFEB878012101F069FC01F05EFAC2
:104B10000D4900F0CDFD01F059FA10223146FFF7A2
:104B200065FE01F053FA084900F0C2FD01F04EFAAB
:104B300010220021FFF75AFE01F048FABDE8F047C5
:104B400000F0BDBD926D0D008E6D0D00F8B50746ED
:104B50001C46FFF745FF00253846FFF7DEFE01281B
:104B600008D01CB10A35ADB2AC4217D30A2000F010
:104B7000EDFDF1E73846FFF721FF054670B100264D
:104B80003846FFF7CAFE012809D01CB10A36B6B272
:104B9000B44203D30A2000F0D9FDF1E700252846EE
:104BA000F8BD000070B5124D02232B7001224FF4A6
:104BB0007A7329460646FFF7C9FF30B901F006FAB5
:104BC0000C4900F088FD002070BD0C2229463046BB
:104BD000FFF7BAFE0849062228461CF086FD18B1E8
:104BE00001F0F4F90549ECE7D5F8060000BAEBE767
:104BF00014CF03209D6D0D00F6CB0320BF6D0D007B
:104C000038B50D4C1422012322706370A270E3703A
:104C100004224FF47A7321460546FFF797FF48B107
:104C2000284608222146FFF78FFE6079A0F1150380
:104C30005842584138BD00BF14CF03202DE9F04140
:104C4000174C1F464A23237001236370A170164638
:104C50004FF47A73032221468046FFF777FF05461B
:104C600038B901F0B3F90F4900F035FD2846BDE829
:104C7000F081142221464046FFF766FEE379012BBE
:104C80000BD1237B3B700023227BD9B28A42EDD922
:104C900062180133527B7254F6E70025E6E700BF45
:104CA00014CF0320D76D0D0013B50446FFF70CFE9B
:104CB000182100F0BFFBFFF707FE002100F05EFBAC
:104CC000FFF702FE002100F045FBA1780191FFF7FC
:104CD000FBFD019900F02AFB01F078F9104900F082
:104CE000E7FC01F073F90A22A178FFF79AFDA0789A
:104CF000002101F074FB4FF47A7000F027FD0949A0
:104D000002230B7001224FF47A732046FFF71EFF37
:104D1000A078012102B0BDE8104001F060BB00BFE7
:104D2000E76D0D0014CF032008B5024B1B689B688C
:104D3000019308BD6802030008B5024B1B68DB68DD
:104D4000019308BD6802030008B5024B1B689B680D
:104D5000019308BD2C02030008B5024B1B68DB68F9
:104D6000019308BD2C02030008B5024B1B681B69A8
:104D7000019308BD2C02030008B5024B1B685B6859
:104D8000019308BD1802030008B5024B1B68DB68DD
:104D9000019308BD1802030008B5024B1B685B694C
:104DA000019308BD1802030008B5024B1B685B683D
:104DB000019308BD8402030008B5024B1B689B6881
:104DC000019308BD8402030008B5024B1B68DB6831
:104DD000019308BD8402030008B5024B1B685B69A0
:104DE000019308BD8402030008B5024B1B68DB6910
:104DF000019308BD8402030008B5024B1B681B6ABF
:104E0000019308BD8402030008B5024B1B685B6C6C
:104E1000019308BD4802030008B5024B1B685B699B
:104E2000019308BD6402030008B5024B1B68DB68F0
:104E3000019308BD3C02030008B5024B1B681B69C7
:104E4000019308BD3C02030008B5024B1B685B6977
:104E5000019308BD3C02030008B5024B1B689B6927
:104E6000019308BD3C02030008B5024B1B68DB69D7
:104E7000019308BD3C02030008B5024B1B681B6A86
:104E8000019308BD3C02030008B5024B1B689B6AF6
:104E9000019308BD3C02030008B5024B1B681B6C64
:104EA000019308BD3C02030008B5024B1B681B6A56
:104EB000019308BD2802030008B5024B1B685B6A1A
:104EC000019308BD2802030008B5024B1B689B6ACA
:104ED000019308BD2802030008B5024B1B68DB6A7A
:104EE000019308BD2802030008B5024B1B681B6B29
:104EF000019308BD2802030008B5024B1B685B6BD9
:104F0000019308BD2802030008B5024B1B681B6C07
:104F1000019308BD2802030008B5024B1B681B68FB
:104F2000019308BD3002030008B5024B1B689B6863
:104F3000019308BD3002030008B5024B1B68DB6813
:104F4000019308BD3002030008B5024B1B681B69C2
:104F5000019308BD3002030008B5024B1B685B6972
:104F6000019308BD3002030008B5024B1B68DB69E2
:104F7000019308BD3002030008B5024B1B681B6A91
:104F8000019308BD3002030008B5024B1B685B6A41
:104F9000019308BD3002030008B5024B1B681B6C6F
:104FA000019308BD3002030008B5024B1B685B6C1F
:104FB000019308BD3002030008B5024B1B681B6853
:104FC000019308BD4C02030008B5024B1B685B68E7
:104FD000019308BD4C02030008B5024B1B681B6916
:104FE000019308BD4C02030008B5024B1B685B69C6
:104FF000019308BD4C02030008B5024B1B689B6976
:10500000019308BD4C02030008B5024B1B68DB6925
:10501000019308BD4C02030008B5024B1B681B6AD4
:10502000019308BD4C02030008B5024B1B685B6A84
:10503000019308BD4C02030008B5024B1B685B6B73
:10504000019308BD6002030008B5024B1B685B6852
:10505000019308BD2002030008B5024B1B685B6981
:10506000019308BD2002030008B5024B1B68DB6CEE
:10507000019308BD2002030008B5024B1B685B6D5D
:10508000019308BD2002030008B5034B1B68D3F849
:105090008830019308BD00002002030008B5034BCF
:1050A0001B68D3F89430019308BD00002002030070
:1050B00008B5024B1B685B68019308BD4002030002
:1050C00008B5024B1B689B68019308BD40020300B2
:1050D00008B5024B1B68DB68019308BD4002030062
:1050E00008B5024B1B681B69019308BD4002030011
:1050F00008B5024B1B685B69019308BD40020300C1
:1051000008B5024B1B689B69019308BD4002030070
:1051100008B5024B1B68DB69019308BD4002030020
:1051200008B5024B1B681B6A019308BD40020300CF
:1051300008B5024B1B681B6B019308BD40020300BE
:1051400008B5024B1B685B6B019308BD400203006E
:1051500008B5024B1B681B6C019308BD400203009D
:1051600008B5024B1B685B6C019308BD400203004D
:1051700008B5024B1B685B68019308BD440203003D
:1051800008B5024B1B685B69019308BD440203002C
:1051900008B5024B1B681B6A019308BD440203005B
:1051A00008B5024B1B68DB6B019308BD440203008A
:1051B00008B5024B1B681B68019308BD1C02030065
:1051C00008B5024B1B685B68019308BD1C02030015
:1051D00008B5024B1B689B68019308BD1C020300C5
:1051E00008B5024B1B685B69019308BD1C020300F4
:1051F00008B5024B1B689B69019308BD1C020300A4
:1052000008B5024B1B685B6A019308BD1C020300D2
:1052100008B5024B1B68DB6A019308BD1C02030042
:1052200008B5024B1B681B6B019308BD1C020300F1
:1052300008B5024B1B685B6B019308BD1C020300A1
:1052400008B5024B1B689B6B019308BD1C02030051
:1052500008B5024B1B68DB6B019308BD1C02030001
:1052600008B5024B1B681B6C019308BD1C020300B0
:1052700008B5024B1B685B6C019308BD1C02030060
:1052800008B5024B1B689B6C019308BD1C02030010
:10529000002240681146FFF743BF002240681146D4
:1052A000FFF74EBF40680022FFF742BF4068002270
:1052B00081F00101FFF72CBF002340681A46194610
:1052C000FFF71EBF002340681A461946FFF710BFBC
:1052D000002240681146FFF703BF002240681146D4
:1052E000FFF7EEBE406800220221FFF7F1BE002367
:1052F00040681A46FFF7DCBE024B03225A60024A9E
:105300001A60704754CF0320186E0D000021FFF77C
:105310004BBE0021FFF740BE10B504460846217081
:10532000FFF722FE00236360204610BD13B504463C
:1053300000780191FFF7EDFF019948B920780190BD
:10534000FFF7EAFD019802B0BDE81040FFF7DEBFAD
:1053500002B010BD13B5044600780191FFF7D9FFE4
:10536000019948B920780190FFF7DEFD019802B05D
:10537000BDE81040FFF7CABF02B010BD13B5044628
:1053800000780191FFF7C5FF019948B92078019095
:10539000FFF7D2FD019802B0BDE81040FFF7B6BF9D
:1053A00002B010BD400830B518600024186888426B
:1053B000E5B206D90134082C02D040081860F5E7A0
:1053C0000725024B5B5D137030BD00BF4C6E0D00B6
:1053D0002DE9F04188B000230446007802930E4680
:1053E0001746FFF796FF054600BB94F8008001467C
:1053F000142203A81BF0B4FF0B232A4603A940463E
:10540000ADF80C30FFF7C0FD04988DF8075002ABE3
:105410000DF1070207FB06F1FFF7C4FF20789DF8A6
:105420000710FFF791FD2078FFF770FF029808B092
:10543000BDE8F08138B5044600780D46FFF769FFF6
:105440000346D0B9616899B10C4A12F8010B854244
:1054500002D00133082BF8D10133DBB20122D9404D
:105460002046FFF7B5FF2078BDE83840FFF74EBF74
:1054700020782946FFF768FDF5E738BD4C6E0D0032
:1054800008B50078FFF768FDC0B208BD054B0222E1
:105490001A60054B054A9A600020C3E90000FFF737
:1054A000D3BD00BF68CF03205CCF03200000FFFF07
:1054B00010B504460068FFF783FE204610BD10B506
:1054C0000446006808B1FFF77BFE0023C4E90133FE
:1054D000236010BD38B504460D4600680131FFF762
:1054E00077FE10B1C4E90005012038BD10B503688E
:1054F000044623B143688B4201D3012010BD2046EE
:10550000FFF7E8FF0028F9D0A368002BF5D1226847
:105510001370F2E737B50D46114601920446FFF7C6
:10552000E5FF019A28B92046FFF7C9FF204603B0DE
:1055300030BDA260294620681BF0EAFE2268A368FD
:105540000021D154F2E7002313B5C0E9003304462B
:105550008360037341B1084601911CF0BEF80199C4
:1055600002462046FFF7D6FF204602B010BD884213
:1055700010B5044605D00B682BB18A681946FFF7B1
:10558000C9FF204610BDFFF79AFFFAE710B50023C8
:105590000446C0E9003383600373FFF7E8FF204649
:1055A00010BD13B5044659B1084601911CF095F899
:1055B000019902462046FFF7ADFF204602B010BD1C
:1055C000FFF77DFFF9E700000EB470B587B00BADB3
:1055D000044655F8042B01922B46052104A8039597
:1055E000FFF70EFE0B4906462046FFF7ACFF31469B
:1055F0002046FFF77BFF206830B1019A03952B46C8
:10560000711CFFF7FDFDA060204607B0BDE87040AB
:1056100003B0704706960D0010B58368044613B1B9
:10562000032201469847204610BD13B50B4602469B
:10563000D0E900016C4684E8030093E8030082E8A7
:10564000030094E8030083E8030002B010BD0000EB
:10565000024800230360FFF7D7BB00BF6CCF0320D5
:10566000F8B506460D468F180024BD420CD03368AD
:1056700015F8011B9B6830469847031E01DB1C444C
:10568000F3E7002C08BF1C462046F8BD13B50446BE
:10569000084659B101911CF020F823680199DB6894
:1056A0000246204602B0BDE81040184702B010BDC7
:1056B00008B5FFF7EBFF08BD03689B68184738B5CE
:1056C0000D210546FFF7F8FF0A2104462846FFF79B
:1056D000F3FF204438BD38B50546FFF7D7FF044631
:1056E0002846FFF7ECFF204438BD30B58BB00023CF
:1056F000012A8DF8243098BF0A2209AC0D46B1FB6F
:10570000F2F101FB125303F0FF03092B94BF303376
:105710003733DBB2AA4204F8013DEFD92146FFF747
:10572000B5FF0BB030BD0000014B024A1A60704754
:1057300070CF0320546E0D00024B1A68024B1A60A2
:10574000704700BFFCCB032074CF03200021FFF77C
:1057500083BC0000014B00229A60704778CF032081
:10576000014B1860704700BF88CC032008B50B4B75
:1057700043B100F02BFC03681B699847002801DD4A
:10578000AFF30080064B43B100F05EFE03681B6977
:105790009847002801DDAFF3008008BD000000003D
:1057A0000000000008B5FFF7E1FFFFF7F5FA014B35
:1057B000186008BDD0CF03200548064A064908B541
:1057C000121A1BF0A5FD054B054A1A6008BD00BF63
:1057D00000F4032004F40320FCB00D0000F40320C7
:1057E0001E1C279A07B5002300931A466FF0770115
:1057F000FFF754FC03B05DF804FB000007B54388D5
:105800000A2B08D0502B0BD1094B1B684BB103B0AE
:105810005DF804EB1847FFF7E5FF03B05DF804FB04
:10582000002300931A466FF07701FFF737FCF4E787
:105830008CCF032010B512480021FFF719FD114B42
:105840001A68114B9A42114B0CBF012200221A70A8
:1058500001D0FFF7B1FFFFF78FFA04461BF0DAFD26
:105860000B4B13B12046AFF3008000210848FFF72F
:1058700097FCBDE8104007480021FFF705BC00BFBA
:1058800061570B0000F403201E1C279A88CF0320C9
:1058900000000000FD570B0070470020704710B556
:1058A00010210446FEF7FFFB204610BD08B5FFF7A8
:1058B000F6FF08BD30B500224FF69C74026084806C
:1058C0008D888C800C68858004600A6030BD10B5BE
:1058D00004460068FFF774FC204610BD38B5C46864
:1058E000F4B12378022B03D104F10C00FFF7EFFF92
:1058F000656835B12846FFF78FFE10212846FEF770
:10590000D2FBA56835B12846FFF786FE1021284650
:10591000FEF7C9FB20461421BDE83840FEF7C3BBA3
:1059200038BD10B588B004466846FFF70CFE6946DE
:1059300004A8FFF72BFE04A8A047044604A8FFF71D
:10594000B7FD6846FFF7B4FD204608B010BD1FB58F
:105950000023CDE90201019210241A466946184637
:10596000ADF80230ADF80040FFF702FC04B010BD06
:105970000B6803604B68436013B15A6801325A6088
:10598000704737B5044668460D46FFF7F1FF009BA8
:10599000019A23606260002301A801930093FEF73F
:1059A000BFFB35B1281DFEF7BBFB08212846FEF7DB
:1059B0007AFB204603B030BD826810B50AB90CF0FE
:1059C0009DFBBDE81040C368184708B5006800F1AA
:1059D0001001FFF7F1FF08BD826810B50AB90CF09D
:1059E0008DFBBDE81040C368184708B5006800F19A
:1059F0001001FFF7F1FF08BD38B50023044603602E
:105A000010200D46FEF747FB28B10123C0E9013302
:105A1000024B0360C5602060204638BD7C6E0D00DF
:105A200038B5002383608B6804460D462BB10222F3
:105A30009847EB68E360AB68A360204638BD000080
:105A4000F0B589B004686846FFF734FF4FF00203F1
:105A5000D4E84F2F002A03D1C4E8413F0029F7D1F1
:105A600025D104F10C0569462846FFF723FFBFF353
:105A70005B8F01236370002004F10803BFF35B8F89
:105A800053E8006F43E80002002AF9D1BFF35B8FAF
:105A90006EB1FFF7E9FA78B129463046FFF78CFF7F
:105AA0003046FFF7B9FD10213046FEF7FCFA684694
:105AB000FFF70DFF09B0F0BD314602A8FFF7B0FFB8
:105AC000E068B4F9105008B11BF0EAFD0690102010
:105AD000ADF81C50FEF7DFFA0546E8B100278760F5
:105AE0001820FEF7D8FA044688B10146876002A85C
:105AF000FFF79BFD049BA268A360059B049206A987
:105B0000E268E36004F110000592FFF7D3FE084B52
:105B1000EB60084B2C60AB6006A8FFF7D8FE02A82C
:105B2000FFF77AFD002229460348FFF7A5FAB7E7F9
:105B3000CB590B004D5C0B00BD600B002DE9F04F05
:105B40008BB005469DF850A00F4690469946FFF74A
:105B500017FB07AE834638BB4FF62E73059005A999
:105B60003046ADF81830FFF7A5FE1420FEF793FA83
:105B7000044648B1022303700123C0E901BB43700E
:105B800031460C30FFF796FE2846214640F8044B7C
:105B9000FFF732FF3046FFF79AFE05A8FFF797FEA2
:105BA00028460BB0BDE8F08F0C2300241420CDE96B
:105BB00008440793FEF76FFA014618B1C0E90144A3
:105BC0000470447004A80391FFF716FF1E4B08935E
:105BD0000820FEF760FA044610B103A9FFF7C8FEDB
:105BE00000965FFA8AF34A46414638460994FFF721
:105BF000CFFAB8B9039B5B7803F0FF0293B94FF675
:105C00009C7305A903A80592ADF81830FFF718FF9B
:105C100005A8FFF75CFE05A80999FFF7B2FE06A8E4
:105C2000FEF77EFA03A905A8FFF7A2FE059B069AD8
:105C30002B606A60002306A806930593FEF770FAAE
:105C400004A8FEF76DFAABE7C95C0B00012AF8B5B2
:105C5000054603D10B6803600020F8BD022A10D06E
:105C6000032AF9D10468002CF6D004F11000FFF7E4
:105C70002EFE2046FFF7D0FC18212046FEF713FA2F
:105C8000EAE718200E68FEF706FA044650B13146DE
:105C9000FFF7C6FE3069B6F9147008B11BF000FDBD
:105CA0002061A7822C60D7E738B5002383608B681A
:105CB00004460D462BB102229847EB68E360AB68BF
:105CC000A360204638BD0000F0B589B004460D46FB
:105CD00001A81146FFF755FEA4B124B21DB1284614
:105CE0001BF0DEFC054601A803A90395ADF81040A2
:105CF000FFF7A6FE03A8FFF7EAFD02A8FEF710FAD9
:105D000009B0F0BD019D0123D5E84F2F002A03D132
:105D1000C5E8413F0029F7D1EFD12B73BFF35B8F6B
:105D20006B702B1DBFF35B8F53E8006F43E800429D
:105D3000002AF9D1BFF35B8F002EDED02046FFF79B
:105D400093F9074660B105F10C013046FFF744FEB8
:105D50003046FFF761FC10213046FEF7A4F9CCE78E
:105D6000314603A8FFF7A0FF2B7B8DF81C301020D5
:105D7000FEF791F90546D0B187601420FEF78BF944
:105D8000044678B18760014603A8FFF74EFC059BE7
:105D9000A268A360069B0592E268E3609DF81C3050
:105DA00006922374064BEB60064B2C60AB6003A895
:105DB000FFF732FC002229460348FFF75DF9C7E7E9
:105DC000EB590B00CD5D0B00BD600B00012A70B5D7
:105DD000044603D10B680360002070BD022A0CD07A
:105DE000032AF9D10468002CF6D02046FFF714FCF2
:105DF00014212046FEF757F9EEE714200E68FEF74F
:105E00004AF9054620B13146FFF74EFF337C2B742B
:105E10002560E1E7704710B518210446FEF743F905
:105E2000204610BDF0B5037D062B8DB00E4600F167
:105E300004074FF0000412D000F1080515F8011D09
:105E40000A223046FFF751FCAF42044419D0002C1F
:105E5000F4D02E213046FFF72FFC0444EEE72F2329
:105E60006A4639460A208DF80040FEF7D5FF68469D
:105E70001BF033FC33680246DB68694630469847BE
:105E8000044620460DB0F0BD10B5054B0446112266
:105E900040F8043B00211BF063FA204610BD00BF10
:105EA000986E0D000346074A10B543F8042B01F124
:105EB000100251F8044B43F8044B9142F9D10A788F
:105EC0001A7010BD986E0D0010B59DF8084044EA98
:105ED000032343EA024242EA01610423416003755D
:105EE00010BD000007B5064B0360CB7800938B789C
:105EF0004A780978FFF7E8FF03B05DF804FB00BFBC
:105F0000986E0D00417470477047704708B50021C6
:105F1000007CFFF771F840EAE07008BD08B5012188
:105F2000007CFFF769F840EAE07008BD08B5007C26
:105F3000FFF75AF820EAE07008BD08B5007CFFF7CB
:105F40004BF820EAE07008BD13B50446007C0191CF
:105F5000FFF74AF80028019901DC607C20B1207C21
:105F6000FFF752F820EAE07002B010BD007CFFF7A6
:105F700053B810B514210446FEF795F8204610BD1D
:105F800010B54FF47A73044608460021C4E90113A2
:105F9000044B23600123207463741146FFF70CF84F
:105FA000204610BDAC6E0D00007C0022FFF70CB83F
:105FB000007CFFF739B8FFF7FBBF10B51422044689
:105FC00000211BF0CDF9204610BD000010B50F4C8C
:105FD00088B003A8FFF7F1FF2178BFF35B8F11F0C2
:105FE00001010FD120460191FEF770F8019948B1E7
:105FF00003AA0748FFF7C4FF2046FEF76CF80548E0
:106000001AF020FB024808B010BD00BF90CF03205B
:1060100094CF0320095F0B0070474174704708B5A7
:10602000007CFEF731FF20EAE07008BD08B5007C77
:10603000FEF702FF20EAE07008BD08B5007CFEF71D
:106040000BFF40EAE07008BD08B5007CFEF7FCFEDF
:1060500040EAE07008BD007CFEF706BF37B5457C1E
:1060600004462DB1207C03B0BDE83040FEF7DCBE15
:10607000007C0191FEF708FF00280199F2DC284618
:1060800003B030BD10B514210446FEF70CF82046CD
:1060900010BD000010B54FF47A730446084611464F
:1060A0000022C4E90123044B23600123207463749C
:1060B000FEF7F2FE204610BDDC6E0D0010B58368C1
:1060C00004460BB90CF01AF8C3689847A3681BB1D3
:1060D000032221462046984720461021BDE8104063
:1060E000FDF7E1BF7047F8B5064615460C468F1818
:1060F000BC4206D0336814F8011B9B6830469847B1
:10610000F6E72846F8BD007C0022FEF7CDBE007CF5
:106110000021FEF7D1BE007C0021FEF7D5BE007C39
:106120000021FEF7D9BE007C0021FEF7DDBE10B5D0
:1061300014210446FDF7B7FF204610BD10B54FF4FB
:106140007A73044608460021C4E90113034B236017
:1061500020741146FEF7D8FE204610BD0C6F0D00CE
:10616000002240681146FEF7BBBF0022406811467E
:10617000FEF7D6BF002240681146FEF7E1BF406837
:106180000022FEF7D5BF4068002281F00101FEF732
:10619000BFBF002340681A461946FEF7B1BF00236F
:1061A00040681A461946FEF7A3BF00224068114610
:1061B000FEF786BF406800220221FEF789BF002358
:1061C00040681A46FEF774BF024B04225A60024A26
:1061D0001A607047A8CF0320346F0D000023406879
:1061E0001A46FEF765BF406800220221FEF770BF25
:1061F000002240681146FEF763BF00224068114646
:10620000FEF76EBF002340681A461946FEF770BFBE
:10621000002340681A461946FEF772BF4068002105
:10622000FEF796BF40680021FEF79ABF4068002243
:1062300081F00101FEF76CBF40680022FEF778BFD5
:10624000002240681146FEF77BBF002240681146DD
:10625000FEF766BF2DE9F04395B014460D4607469C
:10626000FFF712FE00211C220DA800911BF078F808
:1062700040230C9320466B460CAA0021FEF75CFDE0
:10628000044600284BD1024601216868FEF728FF2A
:106290000221804622466868FEF722FF009E814662
:1062A0002146002E3BD0002939D17368022B03D040
:1062B0000A2B11D0F669F4E7B8F1000FFAD0716932
:1062C00006A8043107ADFFF70DFE0FCD3C1D0FC42E
:1062D0002B6823704146EDE7B9F1000FEAD07469ED
:1062E000102201A81BF03CF806238DF8143001ADF4
:1062F00004F108031834186859682A4603C20833A1
:10630000A3421546F7D101A906A807ADFFF7CAFDBC
:106310000FCD3C1D0FC42B6823704946CAE7009877
:10632000FEF702FD384615B0BDE8F083024B034A84
:106330001A6000225A607047B0CF0320706F0D00C2
:10634000232813B502D9002002B010BDA0F10B0321
:10635000022B1AD8174C2178BFF35B8F11F0010183
:106360000BD120460191FDF7B1FE019928B11248E9
:10637000FEF7D2FF2046FDF7AEFE0F4B1878FEF772
:10638000FBFD0028DFD10120DEE7012809D800F05D
:1063900097F80021007CFEF7AFFD80F00100C0B24D
:1063A000D2E709380128EED800F04EF8007CFEF75D
:1063B00063FDF2E708CF03200CCF0320232838B574
:1063C00004460D460AD8FF2908D0FFF7B9FF28B1C7
:1063D00029462046BDE83840FEF7B6BC38BD38B582
:1063E00004460D46FEF7B8FCFF2810D0062804D856
:1063F0004D2323FA00F0C30709D42046FFF7A0FF7E
:1064000028B129462046BDE83840FEF7ADBC38BD6E
:106410007047000038B5044614252A4600211AF0BA
:106420009FFF25804025074925812846258200F0C9
:106430006BF804496060284600F066F8E06020468A
:1064400038BD00BFA46F0D0030B50E4D2978BFF3E5
:106450005B8F11F0010487B011D12846FDF736FE9D
:1064600068B101A8FFF7D6FF01AA21460648FFF749
:1064700011FE2846FDF72FFE04481AF0E3F8024803
:1064800007B030BDB8CF0320BCCF032011640B0090
:106490007047000038B5202514230446036085604A
:1064A00005610649284600F02FF804496060284637
:1064B00000F02AF8E060204638BD00BFA46F0D0050
:1064C00030B50E4D2978BFF35B8F11F0010487B012
:1064D00011D12846FDF7FAFD68B101A8FFF7DAFFF0
:1064E00001AA21460648FFF729FE2846FDF7F3FDDD
:1064F00004481AF0A7F8024807B030BDD4CF0320F3
:10650000D8CF032091640B00FDF7C7BD37B5051D3B
:106510000446284601910BF083FE0023C4E91D3395
:10652000C4E92033C4E9223384F87C30054B019957
:10653000236028461433636003B0BDE830400BF09D
:1065400059BE00BF28950D0037B5051D04462846E5
:1065500001910BF065FE0023C4E91F33C4E9213328
:106560006367A4F87830054B0199236028461433FB
:10657000636003B0BDE830400BF008BEF8940D0036
:106580002DE9F04FDFF844922DED028BD9F8004051
:10659000631C08EE100A83B0C9F80030002C40F0EC
:1065A000ED80DFF82CB2794B794F7A4EDFF824A2D8
:1065B00001221A70DBF80030774A9D68BC61C7E998
:1065C0000024C7E90244C7E9044407F11C0000F0B5
:1065D0007DFEDBF80010704A3D624FF0FF384D68D9
:1065E000C7F800A0C7F82480C6E90024C6E9024421
:1065F000C6E90444B46106F11C0000F067FEC6E978
:106600000858DBF80010654D634ACB68C6F800A057
:10661000C5E90024C5E90244C5E90444AC6105F1BB
:106620001C00019300F052FE019BC5F800A0DFF8AA
:10663000A8A1C5E9083839465046FFF785FF584AF2
:1066400010460BF0EDFD564A564942F8081CA2F1DF
:1066500008071431B9603146534E1467C2E91E442D
:10666000C2E92044A2F8744042F8044C10460BF0F2
:106670008DFD29463046FFF767FF29464B48FFF757
:1066800063FF3269DBF80030C7F878A042F40052AB
:10669000474F3261474A9D68C6F874A0C7E9002495
:1066A000C7E90244C7E90444BC6107F11C0000F0DB
:1066B0000DFE414EDBF800103E4ADFF820A1C7F87E
:1066C00000A0C7E9085806F11C004D68B461C6E98E
:1066D0000024C6E90244C6E9044400F0F7FDDBF8F3
:1066E0000010344AD1F80CB0C6F800A0C6E908582A
:1066F000324DC5E90024C5E90244C5E90444AC6152
:1067000005F11C0000F0E2FDC5E908B8DFF8D0B0E3
:10671000DFF8D080C5F800A039465846FFF7F6FEEE
:1067200040460BF07DFD264B88F87840A8F108071D
:10673000C8E91C44C8E91F44C8E9214448F8083C9A
:1067400048F8044C14331F4CBB60314640460BF0F4
:1067500051FD29462046FFF7D9FE1B482946FFF781
:10676000D5FE2369C8F870B043F400532361D9F80B
:106770000030C4F874B00133C9F8003018EE100AC4
:1067800003B0BDEC028BBDE8F08F00BF00CC03204E
:106790000CE10320BCE0032010960D00E4E0032090
:1067A000B4E10320BC8E0D003CE20320C8E20320CC
:1067B00084E1032050960D0034E103205CE10320C6
:1067C000EC8E0D0074E4032004E50320F0DF0320C9
:1067D00088CC03200C8D0D0054E303204C8D0D005C
:1067E00094E50320E8E3032070474268511E012A24
:1067F000416002D103685B6818477047044A0B6820
:106800001268036093421EBF1A6801321A60704713
:10681000F0CF03200160704702490348002218F0BE
:1068200017BB00BFA56F0D00F8CF032010B5034CB8
:1068300023680BB9FFF7F0FF206810BDF8CF0320E5
:1068400000487047A56F0D0038B5436804465BB13A
:106850000025D4E90132AA4206D953F8250008B12F
:10686000FFF7C3FF0135F4E7606808B1FDF719FCD5
:10687000E3685BB10025D4E90223AA4206D953F8A4
:10688000250008B1FFF7B1FF0135F4E7E06808B172
:10689000FDF707FC23691BB9206958B9204638BDAC
:1068A00000252369585908B1FDF7FBFB0435182D65
:1068B000F7D1F1E7FDF7F5FBF0E703685A1E012B6E
:1068C00010B50446026006D1FFF7BEFF2046BDE8C2
:1068D0001040FDF7E4BB10BD054B10B51B68044626
:1068E0000068984201D0FFF7E8FF204610BD00BFC6
:1068F000F0CF03200A4A38B50B680D4611688B4269
:1069000018BF1A68044600681CBF01321A60814231
:1069100001D0FFF7D2FF2B682360204638BD00BFAF
:10692000F0CF0320036823B9034A136801331360CF
:106930000360006801387047F4CF03202DE9F84F59
:10694000044616460846002A00F0AD80FFF7EAFF2D
:10695000A368013B9842054641D900F104086FF055
:106960006043984534BF4FEA88074FF0FF373846F9
:10697000D4F804A0FDF791FB8346A0680023984259
:1069800069D1C0F104022A449200804538BF002238
:1069900000210BEB80001AF0E3FC3846D4F80C9091
:1069A000FDF77BFB0746A068002398425AD1C0F14F
:1069B00004022A449200804538BF0022002107EBE0
:1069C00080001AF0CDFCC4E901B8E760BAF1000F0D
:1069D0004FD1B9F1000F02D04846FDF762FB736852
:1069E000D4F804900133736059F825300BB32F4964
:1069F0000868D0B1FFF796FF85423ED14868D4F8C9
:106A000004A0FFF78FFF5AF8203007466BB14968A2
:106A1000304608F0CFF943680133804643605AF8A6
:106A20002700FFF7E2FE4AF8278059F82500FFF714
:106A3000DCFE49F8256000252E46A368AB4232D91A
:106A4000E36853F8250020B1FFF7CFFEE36843F871
:106A500025600135F1E7626852F823204BF82320C6
:106A600001338CE7E26852F8232047F823200133F2
:106A70009BE75046FDF715FBABE74868FFF752FF71
:106A800085420ED10868D4F804A0FFF74BFF5AF8EE
:106A900020300746002BC8D00968304603F094F830
:106AA000B9E70831A4E7BDE8F88F00BFC46F0D0057
:106AB0002DE9F041214F3B78BFF35B8FDB070646A2
:106AC0000C46154606D43846FDF700FB10B1384693
:106AD000FDF701FB1A490868F0B1FFF723FFA84250
:106AE00048680DD1FFF71EFF0346F16851F82520D5
:106AF000AAB104B3236820465B68BDE8F04118479B
:106B0000FFF710FFA84205D10868FFF70BFF2B46DF
:106B10000546EAE70831DEE74FF0FF33E5E7626854
:106B2000501C6060581C18BF023241F825401CBF41
:106B3000626041F82340BDE8F08100BFECCF032044
:106B4000C46F0D0010B5084C2378BFF35B8FDB07D3
:106B500008D42046FDF7BAFA20B12046BDE810401F
:106B6000FDF7B9BA10BD00BF00D003202DE9F04FEA
:106B700030238360C24B016087B00646C0220021EB
:106B800018461AF0EDFBBF4B7060C022184600217A
:106B90001AF0E6FBBC4CBD4DF06014220021201D14
:106BA0001AF0DEFB34612560FFF74AFEB84C03881B
:106BB0002B80002201231146204604F0FFFC2246D0
:106BC0003046B449B44CDFF8C4A3DFF8C4B3B34DC6
:106BD000DFF8C093DFF8C083FFF7B0FEB04A0121B1
:106BE000104618F0A5F93046AD4AAE49FFF7A6FEAB
:106BF000AD4AAE4B136001270023C2E90233C2E95C
:106C00000533C2E907331374938482F86430576004
:106C10001146A74A67602260A1602046194600F02D
:106C20000FFF22463046A349A34CFFF787FEA34A35
:106C3000A349576011603046A249FFF77FFEA24A80
:106C4000A249576011603046A149FFF777FEA14A7B
:106C500067602260FFF7EAFD2246A0609E499F4CD4
:106C60003046FFF76BFE9E4ACAF8002000239D4A7B
:106C7000676019462260C4F808A01A462046CAE98F
:106C80000233CAE90533CAE90733CAE90933CAE955
:106C90000B33AAF810308AF81230CAF834308AF868
:106CA0004330CAF8047000F06FFB224630468E492C
:106CB0008E4CFFF743FE8E4ACBF8002000238D4A0E
:106CC000676019462260C4F808B01A462046CBE92E
:106CD0000233CBE90533CBE90733CBE90933CBE901
:106CE0000B33ABF810308BF81230CBF834308BF814
:106CF0004330CBF8047000F003FB224630467E4957
:106D00007E4CFFF71BFE7E4A7E495760116030467D
:106D10007D49FFF713FE7D4A7D495760116030467B
:106D20007C49FFF70BFE00237B4A6F60C5E9023305
:106D3000C5E90433C5E90633C5E90833C5E90A33B3
:106D4000C5E90C33C5E90E33C5E91033C5E9123383
:106D5000C5E91433C5E91633C5E91833C5E91A3353
:106D6000C5E91C33C5E91E332A602946C5E920332D
:106D70003A46C5E92233C5E92433C5E92633C5E9D6
:106D80002833C5E92A33C5E92C33C5E92E33C5F8C4
:106D9000C03085F8C43020460BF0D6FE224630467F
:106DA0005E495F4CFFF7CAFD5E4A5F49576011605C
:106DB00030465E49FFF7C2FD5D4A5E49576011608B
:106DC00030465D49FFF7BAFD5C4A3946104605F08A
:106DD000ADF93046594A5A49FFF7B0FD594A39468C
:106DE000104604F0D7FB3046564A5749FFF7A6FD38
:106DF000564A3946104618F0ABF83046534A5449C3
:106E0000FFF79CFD534B544A1A601A465F600023FB
:106E1000C2E90233C2E90533C2E90733137453628E
:106E2000936282F8243111464C4A67602260A16067
:106E30002046194600F06CFE224630464849494C2F
:106E4000FFF77CFD484A4949576011603046484980
:106E5000FFF774FD474A484957601160304647497B
:106E6000FFF76CFD464A67602260FFF7DFFC2246B1
:106E7000A0604449444C3046FFF760FD8EE000BFFF
:106E8000A8DD0320B8DC0320A0DC032090D503207C
:106E90009CD5032068DF032024D0032098D2032050
:106EA00078DD0320B4E0032008D10320CC700D006E
:106EB000247F0D009CDF032090DD032068DE03208B
:106EC000AC8F0D003CE0032078DE0320E88F0D003E
:106ED00038E00320087F0D0090DF0320C8D0032096
:106EE00064700D007C7F0D00ACDF0320D4D0032044
:106EF00054700D00487F0D00A8DF03208CD00320C4
:106F00006CD00320CC7F0D00A4DF03207CD00320B5
:106F1000E47F0D00A0DF032018900D0034E0032073
:106F200030D003203CD00320FC7F0D0098DF0320ED
:106F30004CD0032018910D0030E0032004D0032032
:106F400094DF0320BCD703206CDF032084DD032003
:106F5000B8E0032070D10320DC700D00FC890D0027
:106F6000DCDF03209CDD032070DE0320A4970D00EE
:106F70009CE0032080DE0320E0970D0098E00320D2
:106F8000E0890D00D0DF0320E0D0032028D40320C7
:106F90006CD40320B0D4032020D503208F4AC9F835
:106FA000002000238E4A676019462260C4F80890CA
:106FB0001A462046C9E90233C9E90533C9E907334E
:106FC000C9E90933C9E90B33C9E90D3389F8103030
:106FD000C9F83C3089F86C30C9F8047000F094FAB4
:106FE000224630467F49804CFFF7A8FC7F4AC8F80C
:106FF000002000237E4A676019462260C4F808809A
:107000001A462046C8E90233C8E90533C8E9073300
:10701000C8E90933C8E90B33C8E90D3388F81030E3
:10702000C8F83C3088F86C30C8F8047000F024FAD6
:10703000224630466F49704CFFF780FC6F4A70491A
:107040005760116030466F49FFF778FC6E4A6F4910
:107050005760116030466E49FFF770FC00236D4A9F
:107060006760C4E90233C4E90433C4E90633C4E900
:107070000833C4E90A33C4E90C33C4E90E33C4E964
:107080001033C4E91233C4E91433C4E91633C4E934
:107090001833C4E91A33C4E91C33C4E91E3322602F
:1070A000C4E92033C4E92233C4E92433C4E92633D4
:1070B000C4E92833C4E92A33C4E92C33C4E92E33A4
:1070C000C4F8C03084F8C430534B3A4621461846C1
:1070D00011F03EFF504B51491A463046FFF72EFC47
:1070E0004F4A504B5760136030464F49FFF726FC1C
:1070F0004E4A4F4B1360576030464E49FFF71EFC17
:107100004D4A3946104608F049FF30464A4A4B4935
:10711000FFF714FC4A4A4B4B5760136030464A490C
:10712000FFF70CFC494A4A4B576013603046494907
:10713000FFF704FC484A494B576013603046484902
:10714000FFF7FCFB474A484B5760136030464749FE
:10715000FFF7F4FB4649474BCDF808B0CDE90319DA
:1071600030466946CDE9003ACDF8148001F084FC40
:107170004148F768FFF7D6FB3E4B47F820303F48C1
:10718000F768FFF7CFFB47F820A03D48F768FFF707
:10719000C9FB47F820B03B48F768FFF7C3FB47F847
:1071A00020503948F568FFF7BDFB314945F82010FC
:1071B0000C48F568FFF7B6FB45F820900D48F568D8
:1071C000FFF7B0FB45F820801448F568FFF7AAFBED
:1071D00045F82040304607B0BDE8F08F84700D00C0
:1071E000548A0D00ECDF0320ECD0032074700D00F6
:1071F000208A0D00E8DF032060D3032074D0032031
:10720000A48A0D00E4DF032084D00320BC8A0D0093
:10721000E0DF032010980D00A0D0032094E00320AD
:1072200044D00320D48A0D00D8DF032054D003209B
:1072300010990D0090E0032014D00320D4DF032028
:107240005CD003201C740D0094DE032064D0032066
:10725000C4730D008CDE0320F8D00320F0730D0002
:1072600090DE032000D1032098730D0088DE0320F8
:1072700070D1032008D103209CDF0320ACDF032062
:10728000A8DF032034E00320DCDF032010B5074C27
:1072900002212046FFF76AFC054B06481C60064B9E
:1072A00021461C60BDE81040FFF7B4BAB4D00320FB
:1072B000F0CF03209CDC0320FCCF0320024B1B6893
:1072C0000BB9FFF7E3BF7047F0CF032038B50023B9
:1072D00003600446084DFFF7F1FF084A2B68126867
:1072E0002360934206D0FFF72DFC2B6823601A68B9
:1072F00001321A60204638BDFCCF0320F0CF0320B6
:1073000038B584680546ACB94420FCF7C4FE1A4B76
:107310000482C0E90034C0E90244C0E90544C0E980
:107320000744C0E90944C0E90B448474446380F80D
:107330004340A860AB6811492E225A74AB682C22D6
:107340009A74AA680023C2E90513C2E90713C2E9C7
:10735000091391600A49D36008681063D362AA6870
:107360005063084A1068AA68C15C1A4401330B2BA9
:1073700082F83810F7D138BD54700D0006960D0014
:1073800084A00D000CCC032038B584680546ACB948
:107390004420FCF780FE1A4B0482C0E90034C0E9A7
:1073A0000244C0E90544C0E90744C0E90944C0E912
:1073B0000B448474446380F84340A860AB6811496F
:1073C0002E225A74AB682C229A74AA680023C2E950
:1073D0000513C2E90713C2E9091391600A49D36092
:1073E00008681063D362AA685063084A1068AA68E4
:1073F000C15C1A4401330B2B82F83810F7D138BD29
:1074000064700D0006960D0084A00D000CCC0320C6
:10741000064B10B504460360806810B103685B68D2
:1074200098472046FFF7E0F9204610BD487F0D0041
:1074300010B50446FFF7ECFF2046FCF730FE20466F
:1074400010BD0000064B10B504460360806810B103
:1074500003685B6898472046FFF7C6F9204610BDD1
:107460007C7F0D0010B50446FFF7ECFF2046FCF7CB
:1074700016FE204610BD000038B584680546B4B934
:107480007020FCF708FEC0E90244C0E90544C0E9E9
:107490000744C0E90944C0E90B44C0E90D44154B59
:1074A000446003600474C46380F86C40A860AB68F7
:1074B0002E212C22C3E905120F49104A9A6000229E
:1074C000C3E90712C3E90912C3E90B12DA605A6370
:1074D0000B4A10689863AB68D8630A4BAA681B68AC
:1074E0004032591E0A3311F8010F42F8040B994239
:1074F000F9D138BD74700D0028AF0D0006960D004F
:1075000084A00D000CCC032038B584680546B4B9BE
:107510007020FCF7C0FDC0E90244C0E90544C0E9A1
:107520000744C0E90944C0E90B44C0E90D44154BC8
:10753000446003600474C46380F86C40A860AB6866
:107540002E212C22C3E905120F49104A9A6000220D
:10755000C3E90712C3E90912C3E90B12DA605A63DF
:107560000B4A10689863AB68D8630A4BAA681B681B
:107570004032591E0A3311F8010F42F8040B9942A8
:10758000F9D138BD84700D0028AF0D0006960D00AE
:1075900084A00D000CCC0320064B10B504460360FC
:1075A000806810B103685B6898472046FFF71CF9B4
:1075B000204610BD208A0D0010B50446FFF7ECFFF1
:1075C0002046FCF76CFD204610BD0000064B10B5B0
:1075D00004460360806810B103685B6898472046E2
:1075E000FFF702F9204610BD548A0D0010B504467D
:1075F000FFF7ECFF2046FCF752FD204610BD0000CF
:107600000D4B10B5036090F8433004467BB18068A1
:1076100008B1FCF746FD606908B1FCF742FDE0697E
:1076200008B1FCF73EFD606A08B1FCF73AFD204660
:10763000FFF7DAF8204610BD54700D0010B504466F
:10764000FFF7DEFF2046FCF72AFD204610BD0000B4
:107650000D4B10B5036090F8433004467BB1806851
:1076600008B1FCF71EFD606908B1FCF71AFDE0697E
:1076700008B1FCF716FD606A08B1FCF712FD204660
:10768000FFF7B2F8204610BD64700D0010B5044637
:10769000FFF7DEFF2046FCF702FD204610BD00008C
:1076A0000D4B10B5036090F86C3004467BB18068D8
:1076B00008B1FCF7F6FCE06908B1FCF7F2FC606A7F
:1076C00008B1FCF7EEFCE06A08B1FCF7EAFC2046E2
:1076D000FFF78AF8204610BD74700D0010B50446FF
:1076E000FFF7DEFF2046FCF7DAFC204610BD000065
:1076F0000D4B10B5036090F86C3004467BB1806888
:1077000008B1FCF7CEFCE06908B1FCF7CAFC606A7E
:1077100008B1FCF7C6FCE06A08B1FCF7C2FC2046E1
:10772000FFF762F8204610BD84700D0010B50446C6
:10773000FFF7DEFF2046FCF7B2FC204610BD00003C
:1077400038B584680546ACB94420FCF7A4FC1A4B54
:107750000482C0E90034C0E90244C0E90544C0E93C
:107760000744C0E90944C0E90B448474446380F8C9
:107770004340A860AB6811492E225A74AB682C2292
:107780009A74AA680023C2E90513C2E90713C2E983
:10779000091391600A49D36008681063D362AA682C
:1077A0005063084A1068AA68C15C1A4401330B2B65
:1077B00082F83810F7D138BD54700D0006960D00D0
:1077C00084A00D000CCC032038B584680546ACB904
:1077D0004420FCF760FC1A4B0482C0E90034C0E985
:1077E0000244C0E90544C0E90744C0E90944C0E9CE
:1077F0000B448474446380F84340A860AB6811492B
:107800002E225A74AB682C229A74AA680023C2E90B
:107810000513C2E90713C2E9091391600A49D3604D
:1078200008681063D362AA685063084A1068AA689F
:10783000C15C1A4401330B2B82F83810F7D138BDE4
:1078400064700D0006960D0084A00D000CCC032082
:10785000064B10B504460360806810B103685B688E
:1078600098472046FEF7C0FF204610BD38900D0017
:1078700010B50446FFF7ECFF2046FCF710FC20464D
:1078800010BD0000064B10B504460360806810B1BF
:1078900003685B6898472046FEF7A6FF204610BDA8
:1078A0006C900D0010B50446FFF7ECFF2046FCF786
:1078B000F6FB204610BD000038B584680546B4B913
:1078C0007020FCF7E8FBC0E90244C0E90544C0E9C8
:1078D0000744C0E90944C0E90B44C0E90D44154B15
:1078E000446003600474C46380F86C40A860AB68B3
:1078F0002E212C22C3E905120F49104A9A6000225A
:10790000C3E90712C3E90912C3E90B12DA605A632B
:107910000B4A10689863AB68D8630A4BAA681B6867
:107920004032591E0A3311F8010F42F8040B9942F4
:10793000F9D138BD74700D0028AF0D0006960D000A
:1079400084A00D000CCC032038B584680546B4B97A
:107950007020FCF7A0FBC0E90244C0E90544C0E97F
:107960000744C0E90944C0E90B44C0E90D44154B84
:10797000446003600474C46380F86C40A860AB6822
:107980002E212C22C3E905120F49104A9A600022C9
:10799000C3E90712C3E90912C3E90B12DA605A639B
:1079A0000B4A10689863AB68D8630A4BAA681B68D7
:1079B0004032591E0A3311F8010F42F8040B994264
:1079C000F9D138BD84700D0028AF0D0006960D006A
:1079D00084A00D000CCC0320064B10B504460360B8
:1079E000806810B103685B6898472046FEF7FCFE8C
:1079F000204610BD30980D0010B50446FFF7ECFF8F
:107A00002046FCF74CFB204610BD0000064B10B58D
:107A100004460360806810B103685B68984720469D
:107A2000FEF7E2FE204610BD64980D0010B5044636
:107A3000FFF7ECFF2046FCF732FB204610BD0000AC
:107A400038B58468054684B96820FCF724FBC0E992
:107A50000244C0E90544C0E907441A4B446003608E
:107A60000474848480F86440A860AA68164B93600C
:107A70002E21002382F82410D3601374AA682C21CD
:107A800082F82510114A1068AA68C15C1A440133B3
:107A9000242B82F82610F7D10D4B18680023AA6812
:107AA000C15C1A4401331A2B82F84A10F7D1AB6833
:107AB000084A5A6104229A61074ADA6105221A6269
:107AC00038BD00BFCC700D0006960D0008CC032019
:107AD00004CC03208C700D0091700D00064B10B586
:107AE00004460360806810B103685B6898472046CD
:107AF000FEF77AFE204610BD247F0D0010B5044627
:107B0000FFF7ECFF2046FCF7CAFA204610BD000044
:107B100038B58468054694B94FF49470FCF7BBFA05
:107B2000C0E90244C0E90544C0E90744C0E909448A
:107B3000184B44600360047480F82441A860AB686B
:107B4000154A9A6000222E21DA601A742C22C3E9A9
:107B50000912124A126803F12C00511E233211F847
:107B6000014F40F8044B9142F9D10D4A126803F1DC
:107B7000BC00511E193211F8014F40F8044B9142DC
:107B8000F9D1084A5A6104229A61074ADA6105224A
:107B90001A6238BDDC700D0006960D0008CC03207B
:107BA00004CC032098700D00AC700D00064B10B58E
:107BB00004460360806810B103685B6898472046FC
:107BC000FEF712FE204610BDFC890D0010B50446DC
:107BD000FFF7ECFF2046FCF762FA204610BD0000DC
:107BE0000B4B10B5036090F8643004465BB18068BD
:107BF00008B1FCF756FA606908B1FCF752FAE0697F
:107C000008B1FCF74EFA2046FEF7EEFD204610BD07
:107C1000CC700D0010B50446FFF7E2FF2046FCF7DC
:107C20003EFA204610BD00000B4B10B5036090F8E3
:107C3000243104465BB1806808B1FCF732FA606910
:107C400008B1FCF72EFAE06908B1FCF72AFA2046E1
:107C5000FEF7CAFD204610BDDC700D0010B50446CD
:107C6000FFF7E2FF2046FCF71AFA204610BD00009D
:107C700038B58468054684B96820FCF70CFAC0E979
:107C80000244C0E90544C0E907441A4B446003605C
:107C90000474848480F86440A860AA68164B9360DA
:107CA0002E21002382F82410D3601374AA682C219B
:107CB00082F82510114A1068AA68C15C1A44013381
:107CC000242B82F82610F7D10D4B18680023AA68E0
:107CD000C15C1A4401331A2B82F84A10F7D1AB6801
:107CE000084A5A6104229A61074ADA6105221A6237
:107CF00038BD00BFCC700D0006960D0008CC0320E7
:107D000004CC03208C700D0091700D00064B10B553
:107D100004460360806810B103685B68984720469A
:107D2000FEF762FD204610BD888F0D0010B5044699
:107D3000FFF7ECFF2046FCF7B2F9204610BD00002B
:107D400038B58468054694B94FF49470FCF7A3F9EC
:107D5000C0E90244C0E90544C0E90744C0E9094458
:107D6000184B44600360047480F82441A860AB6839
:107D7000154A9A6000222E21DA601A742C22C3E977
:107D80000912124A126803F12C00511E233211F815
:107D9000014F40F8044B9142F9D10D4A126803F1AA
:107DA000BC00511E193211F8014F40F8044B9142AA
:107DB000F9D1084A5A6104229A61074ADA61052218
:107DC0001A6238BDDC700D0006960D0008CC032049
:107DD00004CC032098700D00AC700D00064B10B55C
:107DE00004460360806810B103685B6898472046CA
:107DF000FEF7FAFC204610BD80970D0010B5044632
:107E0000FFF7ECFF2046FCF74AF9204610BDC36897
:107E10009A68C26010B502B1506042685A600C683E
:107E2000844203D10B609860436010BD9168814229
:107E30000CBF9360D360F6E78368DA68826010B5A0
:107E400002B1506042685A600C68844203D10B60F2
:107E5000D860436010BDD16881420CBFD36093608D
:107E6000F6E7C36823B118469B68002BFBD1704727
:107E70004368DA68824202D118465B68F9E7C26853
:107E8000934218BF18467047037833B943685B685C
:107E9000834202D1DB6818467047826822B11346DC
:107EA000D268002AFBD1F6E743689A688242F2D191
:107EB00018465B68F9E7FFF7D4BFFFF7D2BFFFF7BB
:107EC000E3BF2DE9F8431E4603F104080023C1E98E
:107ED00002330C464A600B7000B39642916018D191
:107EE0007160F46001274FF000097368A3423FD02E
:107EF00060680278002A3BD14568AB68984223D17C
:107F0000EB6883B11A7872B907701F702A702C461B
:107F1000EBE7B3689342E5D1B160E3E7D160F36882
:107F20009342DFD1DDE7C368A34203D14146FFF7A7
:107F30006EFF0446636841461F70284685F800902E
:107F4000FFF77AFF2546E2E713B11A78002ADBD063
:107F50008368A34203D14146FFF76EFF044663687E
:107F600041461F70284685F80090FFF750FFE9E76B
:107F700001221A70BDE8F8832DE9F7430F46D0E9D6
:107F800002610446002E3ED000293DD00A46134629
:107F90009268002AFBD1A342DA684BD09942736001
:107FA0009E6027D05D6802B1556058688260D960D4
:107FB000E1684B607968A1421ED17B6061682078DE
:107FC00059601978187016462170237873B1391DDD
:107FD0004FF000084FF001097B68B3427BD0002EC0
:107FE0003FD03378012B3CD001233370204603B0BF
:107FF000BDE8F0831D46DDE761688868A0420CBFDC
:108000008B60CB60DAE70E46656806B175607B6809
:10801000A34211D17E60BB68A34203D1E36893B948
:108020006368BB60FB68A342CFD1A36893B9636860
:10803000FB60CAE71646E7E763689A68A2420CBF8E
:108040009E60DE60E7E733461A469B68002BFBD153
:10805000BA60E7E733461A46DB68002BFBD1FA60CB
:10806000B3E7A868B04239D1E868037843B980F82B
:10807000009028462B700191FFF7C9FEE86801992E
:10808000D0E9022322B192F800C0BCF1010F0BD15C
:1080900023B193F800C0BCF1010F05D16B6880F8E3
:1080A00000802E461D4697E713B11B78012B08D19F
:1080B00001231370002303700191FFF7BDFEE868F0
:1080C00001992B780370C36801222A7003B11A70DA
:1080D0002846FFF79CFE002E86D187E7037843B938
:1080E00080F8009028462B700191FFF7A5FEA86844
:1080F0000199D0E9023222B192F800C0BCF1010F1F
:1081000006D1002BCAD093F800C0BCF1010FC5D036
:1081100013B11B78012B08D10123137000230370C6
:108120000191FFF774FEA86801992B7803708368AA
:1081300001222A7003B11A702846FFF77DFECAE7B4
:10814000009B03201A607047002070470020704792
:1081500004207047009B03201A607047009B032097
:108160001A607047009B03201A607047F0B50546FF
:10817000D0E90020801A65D092F900401378002CD5
:1081800003DB01322A601846F0BDC12B3BD9DF2B3F
:108190000FD8012856D0507800F0C004802C32D17E
:1081A00000EB8310A0F542508142EDD302322A60E9
:1081B000EAE7EF2B1AD8022844D9547804F0C0001B
:1081C000802820D1E02B01D19F2C1CD9907800F081
:1081D000C006802E17D1A40104EB03330344A3F59A
:1081E000622080388142CFD30332E0E7F42B0AD8F3
:1081F000032827D9547804F0C000802803D1F02B3D
:1082000004D18F2C06D84FF0FF30BDE7F42B01D1FD
:108210008F2CF8D8967806F0C0008028F3D1D0785B
:1082200000F0C007802FEED1240304EB834303EB5F
:1082300086130344A3F17270A0F502508842A3D8BC
:108240000432B4E76FF001009EE7F0B50546D0E9CF
:108250000020801A65D092F900401378002C03DBCF
:1082600001322A601846F0BDC12B3BD9DF2B0FD855
:10827000012856D0507800F0C004802C32D100EB99
:108280008310A0F542508142EDD302322A60EAE722
:10829000EF2B1AD8022844D9547804F0C000802863
:1082A00020D1E02B01D19F2C1CD9907800F0C00682
:1082B000802E17D1A40104EB03330344A3F56220FD
:1082C00080388142CFD30332E0E7F42B0AD8032869
:1082D00027D9547804F0C000802803D1F02B04D1B2
:1082E0008F2C06D84FF0FF30BDE7F42B01D18F2C37
:1082F000F8D8967806F0C0008028F3D1D07800F046
:10830000C007802FEED1240304EB834303EB8613D5
:108310000344A3F17270A0F502508842A3D804323E
:10832000B4E76FF001009EE77F2908D8D0E900325A
:108330009A4242D05A1C0260197001207047B1F570
:10834000006F10D2D0E90032D21A012A35D95A1C56
:1083500002608A09403A1A70036801F03F015A1C12
:1083600002608039E8E7B1F5803F11D2D0E90032F0
:10837000D21A022A21D95A1C02600A0B203A1A701A
:108380000268531C0360C1F38513803B1370E3E75D
:10839000B1F5881F11D2D0E90032D21A032A0CD9C4
:1083A0005A1C02608A0C103A1A700268531C03604F
:1083B000C1F30533803B1370E2E7002070477F294B
:1083C00010B508D8D0E900329A4247D05A1C026052
:1083D0001970012010BDB1F5006F0FD2D0E9003245
:1083E000D21A012A3AD98C091A46403C02F8024BAB
:1083F00001F03F01803902605970EAE7B1F5803F32
:1084000012D2D0E90032D21A022A27D90A0B203A16
:108410001A70C1F38512803A01F03F015A70803919
:10842000DA1C02609970D4E7B1F5881F16D2D0E942
:108430000032D21A032A11D98A0C103A1A70C1F3E9
:108440000532803A5A70C1F38512803A01F03F013B
:108450009A7080391A1D0260D970BAE70020B9E716
:10846000B1F5803F10B5D0E900430BD2A34222D032
:10847000D30789B201D449BA89B2A31C0360218011
:10848000012010BD1B1B022B15D98B0AC1F309015A
:10849000A3F52153A1F5105112F001029BB289B24C
:1084A00001D15BBA9BB223800AB949BA89B2231DB4
:1084B00003606180E4E70020E3E773B51E46079B95
:1084C0000093089B01931446A642254612D02168CA
:1084D000B1F5881F04F104040ED26846FFF76FFF60
:1084E0000028F1D10120069B009A1D60099B1A60AB
:1084F00002B070BD0020F6E70220F4E730B585B089
:10850000CDE90023099B0293144D0A9B0393DDE9F7
:108510000123009CA24215D0039A9A4212D0294608
:108520006846FFF792FE831C014609D0B0F5881F0C
:1085300011D2012202A8FFF793FF0028E7D100948F
:10854000012000E00020089B009A1A600B9B029A11
:108550001A6005B030BD0220F5E700BFFFFF100034
:108560008B070CD5D0E90032D21A022A09D9064A63
:108570001188927819809A70036803330360012090
:1085800070470020704700BFE4700D002DE9F041F6
:108590000E46044619463046069D1746FFF7E0FF93
:1085A00078B3D4E900329A422ED01988A1F5584008
:1085B000B0F5806F1DD2012D28D0D21A022A23D9FE
:1085C0005B88A3F55C42B2F5806F1FD2A3F15773AD
:1085D000A3F5773303EB81214FF002088F4215D3C7
:1085E0003046FFF7A1FE60B1236803EB4803236028
:1085F000D7E7A1F55C43B3F5806F07D34FF00108CF
:10860000ECE70120BDE8F0810020FBE70220F9E75C
:108610007FB5CDE90223099B04930A9B05930023B0
:108620000093074A04A902A8FFF7B0FF089B029A2B
:108630001A600B9B049A1A6007B05DF804FB00BF38
:10864000FFFF100070B50D46044619462846164631
:10865000FFF786FF70B1D4E900329A420CD0196856
:108660008E420BD32846FFF75FFE18B12368043310
:108670002360F0E7012070BD0020FCE70220FAE74C
:108680001FB5CDE90023079B0293089B0393074A7C
:10869000002302A96846FFF7D5FF069B009A1A60DF
:1086A000099B029A1A6005B05DF804FBFFFF1000F9
:1086B00038B54B0704460CD5D0E900535B1B022BA1
:1086C00007D904490322284618F012FE08B90335D9
:1086D000256038BDB4710D0070B50C4619460546CD
:1086E0001646FFF7E5FFD5E900239A4212D0D4E9F8
:1086F00000329A4201D1012070BD31462846FFF771
:1087000035FD831CF7D0864206D323681A1D2260EC
:108710001860E8E70020EFE70220EDE71FB5CDE99C
:108720000023079B0293089B0393074A002302A997
:108730006846FFF7D1FF069B009A1A60099B029AD0
:108740001A6005B05DF804FBFFFF100037B5CDE9F6
:10875000000168469DF8181014461D46FFF7A8FF53
:10876000002044B1A84204F1FF3404D829466846E9
:10877000FFF7FCFCF5E7009803B030BD13B51446D5
:10878000194600230093049A034B2046FFF7DEFFAF
:10879000001B02B010BD00BFFFFF10002DE9F84321
:1087A0000D461946044617461E46FFF781FFD4E9D9
:1087B0000098C1451BD0D5E900329A4217D03946FE
:1087C0002046FFF7D3FC831C014604D108980130F2
:1087D000C0B2BDE8F88387420BD332462846FFF784
:1087E0003FFE0028E3D1C4E900980120F1E7002012
:1087F000EFE70220EDE700007FB5CDE90223099BFA
:1088000004930A9B059300230093074A012304A9BC
:1088100002A8FFF7C3FF089B029A1A600B9B049AF9
:108820001A6007B05DF804FBFFFF1000F7B5CDE953
:1088300000019DF82010684616461C46FFF738FFD9
:1088400000256F1CB7420ED221466846FFF78EFC0A
:10885000A04202D9009803B0F0BDB0F5803F28BF18
:108860003D460135EDE7F5D14FF6FF734FF6FE714A
:108870008C4294BF214619466846FFF777FCE9E72A
:1088800013B51446194600230093049A034B20465F
:10889000FFF7CCFF001B02B010BD00BFFFFF1000B0
:1088A00073B51D46079B0093089B01931446A54290
:1088B00025D02188A1F55843B3F5806F15D22B1B25
:1088C000022B1CD96288A2F55C43B3F5806F1ED2DF
:1088D000A2F15772A2F5773202EB81210226684697
:1088E000FFF76DFD40B901200AE0A1F55C43B3F547
:1088F000806F0CD30126F2E704EB4604D7E7002093
:10890000069B009A1C60099B1A6002B070BD022091
:10891000F6E7000037B5DDE90745CDE900230F494B
:10892000DDE900329A4214D0A54207D10120069B0E
:10893000009A1A60099B1C6003B030BD6846FFF7BF
:1089400084FC831CF2D0B0F5881F04D244F8040BD9
:10895000E6E70020EBE70220E9E700BFFFFF100099
:1089600037B5CDE90023069D08491446002045B1DE
:10897000B0F5881F05F1FF3503D26846FFF765FCA7
:10898000F5E70098001B03B030BD00BFFFFF1000EB
:10899000F7B5CDE90023089E0E4915460024671C53
:1089A000BE420FD96846FFF750FCB0F5881F03D3CD
:1089B0000098401B03B0F0BDB0F5803F28BF3C4697
:1089C0000134ECE7F4D14FF6FF716846FFF73DFC48
:1089D000EEE700BFFFFF100010B5034B0360044635
:1089E000FDF702FF204610BD90710D0010B5044642
:1089F000FFF7F2FF2046FBF752FB204610BD0000B8
:108A000010B5034B03600446FDF7EEFE204610BD93
:108A10000C710D0010B50446FFF7F2FF2046FBF77E
:108A20003EFB204610BD000010B5034B036004461A
:108A3000FDF7DAFE204610BD38710D0010B5044672
:108A4000FFF7F2FF2046FBF72AFB204610BD00008F
:108A500010B5034B03600446FDF7C6FE204610BD6B
:108A600064710D0010B50446FFF7F2FF2046FBF7D6
:108A700016FB204610BD00002DE9F04F89B00B68B1
:108A800001934B68A94F02938B680393A84B3B60FB
:108A90000125019B7D6004460E46BB6000213846DF
:108AA000FFF7E6F87B68D4F80480DFF818B3DFF846
:108AB00018A32B447B609F4B1846FDF733FF48F803
:108AC00020709D4F9D4A7D603A60FDF7AFFE7A6849
:108AD000D4F80480B8602A447A609948FDF722FFF0
:108AE00048F82070974F984A029B3A600022BB607A
:108AF00011467D603846FEF767FE7A68D4F8048038
:108B00002A447A605846FDF70DFF48F820708F4FD1
:108B10008F4A039B3A600022BB6011467D60384655
:108B2000FEF70EFE7A68D4F804802A447A60504634
:108B3000FDF7F8FE48F82070DFF89082854AD4F8F7
:108B40000490C8F800200227C8F804708248FDF796
:108B5000E9FE49F82080DFF87882804AD4F8049052
:108B6000C8F80020C8F804707D48FDF7DBFE49F81E
:108B70002080DFF860827B4AD4F80490C8F8002097
:108B8000C8F804707848FDF7CDFE49F82080DFF87A
:108B90004882294640460AF0F1F8D8F80420D4F873
:108BA000049072482A44C8F80420FDF7BBFE49F837
:108BB0002080F36804933369059373696C4E6D4AA2
:108BC0000693049BB3600021756032603046FFF766
:108BD000B7F87268DFF80492D4F804802A4472600F
:108BE0004846FDF79FFE48F82060634E634A756073
:108BF0003260FDF71BFE7268D4F80480B0602A442E
:108C000072605F48FDF78EFE48F820605D4E5E4A58
:108C1000059B32600022B360756011463046FEF756
:108C200093FE7268DFF8B881616807912A44726028
:108C30004046FDF777FE0799544A41F82060544EAC
:108C4000069B32600022B360756011463046FEF725
:108C500033FE7268616807912A4472604D4A10467B
:108C6000FDF760FE079941F820604B4E4B4931609B
:108C70004B48616877600791FDF754FE079941F80A
:108C80002060484E484931604848616877600791E4
:108C9000FDF748FE079941F82060454E454931608F
:108CA0004548616877600791FDF73CFE079941F8F8
:108CB0002060424E2946304610F064FA71686568BB
:108CC0003F4801317160FDF72DFE1A4B45F82060D9
:108CD0001846E568FDF726FE019B45F8203058460A
:108CE000E568FDF71FFE029B45F820305046E56819
:108CF000FDF718FE039B45F820304846E568FDF770
:108D000011FE049B45F820304046E568FDF70AFE59
:108D1000204A059B45F820301046E468FDF702FE26
:108D2000069B44F8203009B0BDE8F08FB8DE032080
:108D3000888F0D0040E0032030DF03206C8F0D0092
:108D400024E0032000DF03206C900D000CDF0320E3
:108D500038900D00E8900D0048E0032000910D00D0
:108D600044E003202C910D002CE0032028E0032098
:108D7000C4DE032080970D003CDF032024970D0004
:108D800084E0032018DF032064980D0030980D0064
:108D900024DF0320ACE00320E8DE0320E0980D0090
:108DA000A8E00320F8DE0320F8980D00A4E00320DB
:108DB000D8DE032024990D008CE00320A8DE0320D8
:108DC00088E0032050E003204CE00320E0DE032095
:108DD000F0DE0320D0DE032098DE0320A0E0032095
:108DE000B0E0032001F04EBD02F0F8B8F8B50B6812
:108DF00053F80C5C0746681C0E46FBF74EF900233F
:108E0000044601462A46304601F072FC00236355B1
:108E10003C602846F8BDF8B50B6853F80C5C6FF061
:108E200060426B1C9342074634BF98004FF0FF30FE
:108E30000E46FBF732F90023044601462A46304627
:108E400002F010F8002344F825303C602846F8BDB5
:108E500013B5049CCDE9003413460A46C1684FF0AF
:108E6000000005F04AFD02B010BD30B58BB00D46D4
:108E70000AA901E90C0079230693129B0593119B23
:108E80000493109B03930EAA044692E8030001ABDF
:108E900083E80300099B00932046089BAA684FF0D3
:108EA000000105F0D2FE20460BB030BD30B58BB0CE
:108EB0000D460AA901E90C006D230693129B059348
:108EC000119B0493109B03930EAA044692E803009F
:108ED00001AB83E80300099B00932046089BAA6826
:108EE0004FF0000105F0B1FE20460BB030BD30B5AB
:108EF0008BB00D460AA901E90C0077230693129B5B
:108F00000593119B0493109B03930EAA044692E8C9
:108F1000030001AB83E80300099B00932046089BF4
:108F2000AA684FF0000105F090FE20460BB030BD5E
:108F300030B58BB00D460AA901E90C0064230693F5
:108F4000129B0593119B0493109B03930EAA044656
:108F500092E8030001AB83E80300099B00932046DD
:108F6000089BAA684FF0000105F06FFE20460BB089
:108F700030BD30B58BB00D460AA901E90C00742351
:108F80000693129B0593119B0493109B03930EAAC7
:108F9000044692E8030001AB83E80300099B0093B9
:108FA0002046089BAA684FF0000105F04EFE2046BF
:108FB0000BB030BD81684FF0000005F040BEF0B549
:108FC00091B00AAC84E80C00002307930D930EAB1C
:108FD00006930DAB0593199B04939DF860300393A2
:108FE00016AA0F46054692E8030001AB83E803008A
:108FF0000B9B009308AE0A9BBA684FF00001304605
:1090000006F015FA96E803000D9B84E803005BB9AF
:10901000DDE90E011B9BC3E9000194E8030085E82C
:109020000300284611B0F0BD1A9A1360F5E710B599
:1090300088B00DF1200C0CE90C00002304939DF87E
:10904000303003930B9B02939DF828300193079BCC
:10905000009313468A684FF00001044606F0FEF8BC
:10906000204608B010BD0A4601694FF0000005F027
:10907000DEBD07B50968009251F80C3C0A4601694B
:109080004FF0000005F0A7FD03B05DF804FB13B539
:10909000049CCDE9003413460A46C1684FF0000035
:1090A00005F036FC02B010BD30B58BB00D460AA9F4
:1090B00001E90C0079230693129B0593119B0493FD
:1090C000109B03930EAA044692E8030001AB83E8C9
:1090D0000300099B00932046089BAA684FF00001FB
:1090E00005F00DFE20460BB030BD30B58BB00D46FF
:1090F0000AA901E90C006D230693129B0593119BAD
:109100000493109B03930EAA044692E8030001AB5C
:1091100083E80300099B00932046089BAA684FF050
:10912000000105F0ECFD20460BB030BD30B58BB032
:109130000D460AA901E90C0077230693129B0593BB
:10914000119B0493109B03930EAA044692E803001C
:1091500001AB83E80300099B00932046089BAA68A3
:109160004FF0000105F0CBFD20460BB030BD30B50F
:109170008BB00D460AA901E90C0064230693129BEB
:109180000593119B0493109B03930EAA044692E847
:10919000030001AB83E80300099B00932046089B72
:1091A000AA684FF0000105F0AAFD20460BB030BDC3
:1091B00030B58BB00D460AA901E90C007423069363
:1091C000129B0593119B0493109B03930EAA0446D4
:1091D00092E8030001AB83E80300099B009320465B
:1091E000089BAA684FF0000105F089FD20460BB0EE
:1091F00030BD81684FF0000005F024BDF0B591B09E
:109200000AAC84E80C00002307930D930EAB069381
:109210000DAB0593199B04939DF86030039316AA38
:109220000F46054692E8030001AB83E803000B9B61
:10923000009308AE0A9BBA684FF00001304606F072
:1092400092FA96E803000D9B84E803005BB9DDE920
:109250000E011B9BC3E9000194E8030085E80300AD
:10926000284611B0F0BD1A9A1360F5E710B588B022
:109270000DF1200C0CE90C00002304930C9B0393CC
:109280000B9B02939DF828300193079B0093134694
:109290008A684FF00001044606F07CF9204608B0C9
:1092A00010BD0A4601694FF0000005F0C4BC07B5C7
:1092B0000968009251F80C3C0A4601694FF0000021
:1092C00005F09FFC03B05DF804FB10B50446006890
:1092D00043685A1E012B426002D103685B689847BD
:1092E000204610BD10B5074B0360036900220446F9
:1092F000DA600C30FFF7E9FF2046FEF707FD204655
:1093000010BD00BF907A0D0010B50446FFF7EAFFCC
:109310002046FAF7C4FE204610BD000010B5084BE9
:109320000360036900220446DA609A611A629A6255
:109330000C30FFF7CAFF2046FEF78AFA204610BD20
:10934000BC7B0D0010B50446FFF7E8FF2046FAF796
:10935000A6FE204610BD000010B5084B036003694F
:1093600000220446DA609A611A629A620C30FFF7B2
:10937000ACFF2046FEF786FA204610BD887B0D0024
:1093800010B50446FFF7E8FF2046FAF788FE2046AE
:1093900010BD000010B5054B044640F8103BFFF728
:1093A00094FF204609F072F9204610BD587A0D004E
:1093B00010B50446FFF7EEFF2046FAF770FE204690
:1093C00010BD000010B5074B03600369002204467E
:1093D000DA600C30FFF779FF2046FEF7FFFC2046ED
:1093E00010BD00BFB47A0D0010B50446FFF7EAFFC8
:1093F0002046FAF754FE204610BD000010B5084B79
:109400000360036900220446DA601A629A621A63F2
:109410000C30FFF75AFF2046FEF7DEFA204610BD5B
:10942000247C0D0010B50446FFF7E8FF2046FAF74C
:1094300036FE204610BD000010B5084B03600369DE
:1094400000220446DA601A629A621A630C30FFF74F
:109450003CFF2046FEF7DAFA204610BDF07B0D00F7
:1094600010B50446FFF7E8FF2046FAF718FE20463D
:1094700010BD000010B5054B044640F8103BFFF747
:1094800024FF20460FF0DEFA204610BD747A0D004E
:1094900010B50446FFF7EEFF2046FAF700FE20461F
:1094A00010BD000010B5054B044640F80C3BFFF71B
:1094B0000CFF204609F002F9204610BD207A0D006D
:1094C00010B50446FFF7EEFF2046FAF7E8FD204608
:1094D00010BD000010B5054B044640F8083BFFF7EF
:1094E000F4FE204609F04CF8204610BD287B0D0004
:1094F00010B50446FFF7EEFF2046FAF7D0FD2046F0
:1095000010BD000010B5054B044640F8083BFFF7BE
:10951000DCFE204609F03EF8204610BD587B0D00C9
:1095200010B50446FFF7EEFF2046FAF7B8FD2046D7
:1095300010BD000010B5054B044640F80C3BFFF78A
:10954000C4FE20460FF096FA204610BD3C7A0D006E
:1095500010B50446FFF7EEFF2046FAF7A0FD2046BF
:1095600010BD000010B5054B044640F8083BFFF75E
:10957000ACFE20460FF0E0F9204610BD407B0D0008
:1095800010B50446FFF7EEFF2046FAF788FD2046A7
:1095900010BD000010B5054B044640F8083BFFF72E
:1095A00094FE20460FF0D2F9204610BD707B0D00CE
:1095B00010B50446FFF7EEFF2046FAF770FD20468F
:1095C00010BD000010B5054B044640F8083BFFF7FE
:1095D0007CFE204609F010F8204610BDD87A0D0018
:1095E00010B50446FFF7EEFF2046FAF758FD204677
:1095F00010BD000010B5054B044640F8083BFFF7CE
:1096000064FE20460FF0D4F9204610BD007B0D000B
:1096100010B50446FFF7EEFF2046FAF740FD20465E
:1096200010BD836910B5044603B19847204610BDAC
:1096300037B5084614460D4609F06AFA84F8240046
:10964000284609F068FA0023A3606361E3610123FF
:1096500084F8643084F82500294601A809F05EFAF0
:1096600001A904F10800FFF7C1FBE06001A801F0C7
:1096700009F9294601A809F058FA01A904F11400D2
:10968000FFF7B4FBA06101A801F0FCF8294601A88E
:1096900009F052FA01A904F11C00FFF7A7FB2062B0
:1096A00001A801F0EFF803B030BD37B50846144605
:1096B0000D460FF031FC606228460FF030FC0023AD
:1096C000A3606361E361012384F82431A062294629
:1096D00001A80FF027FC01A904F10800FFF786FBA1
:1096E000E06001A801F0CEF8294601A80FF021FCA6
:1096F00001A904F11400FFF78EFBA06101A801F09D
:109700006DFC294601A80FF01BFC01A904F11C0007
:10971000FFF781FB206201A801F060FC03B030BDBF
:1097200010B4084611461A46DDE9013401945DF88B
:10973000044B09F045BB10B4084611461A46DDE952
:10974000013401945DF8044B0FF03EBD37B5084677
:1097500014460D4609F02DF96074284609F02CF9DD
:10976000A074284609F047F90023A3606361E36110
:109770006362012384F84330E062294601A809F0BE
:109780001EF901A904F10800FFF730FBE06001A811
:1097900001F078F8294601A809F018F901A904F1A7
:1097A0001400FFF723FBA06101A801F06BF8294624
:1097B00001A809F012F901A904F11C00FFF716FB3A
:1097C000206201A801F05EF8294601A809F00CF911
:1097D00001A904F12400FFF709FBA06201A801F030
:1097E00051F8284609F00AF92063284609F00BF9D8
:1097F000606303B030BD37B5084614460D4609F026
:10980000A9F86074284609F0A8F8A074284609F061
:10981000C3F80023A3606361E3616362012384F8FA
:109820004330E062294601A809F09AF801A904F141
:109830000800FFF7DBFAE06001A801F023F82946F1
:1098400001A809F094F801A904F11400FFF7CEFA79
:10985000A06101A801F016F8294601A809F08EF8C8
:1098600001A904F11C00FFF7C1FA206201A801F070
:1098700009F8294601A809F088F801A904F1240093
:10988000FFF7B4FAA06201A800F0FCFF284609F037
:1098900086F82063284609F087F8606303B030BD7E
:1098A00037B5084614460D460FF087FA6061284622
:1098B0000FF086FAA06128460FF0A1FA0023A360FA
:1098C000E3616362E362012384F86C3060632946DC
:1098D00001A80FF078FA01A904F10800FFF786FA51
:1098E000E06001A800F0CEFF294601A80FF072FA4F
:1098F00001A904F11C00FFF78EFA206201A801F013
:109900006DFB294601A80FF06CFA01A904F12400AF
:10991000FFF781FAA06201A801F060FB294601A8C7
:109920000FF066FA01A904F12C00FFF774FA206326
:1099300001A801F053FB28460FF064FAA063284603
:109940000FF065FAE06303B030BD37B50846144642
:109950000D460FF003FA606128460FF002FAA0618D
:1099600028460FF01DFA0023A360E3616362E362FF
:10997000012384F86C306063294601A80FF0F4F9E4
:1099800001A904F10800FFF731FAE06001A800F036
:1099900079FF294601A80FF0EEF901A904F11C0096
:1099A000FFF739FA206201A801F018FB294601A847
:1099B0000FF0E8F901A904F12400FFF72CFAA062E6
:1099C00001A801F00BFB294601A80FF0E2F901A95B
:1099D00004F12C00FFF71FFA206301A801F0FEFA42
:1099E00028460FF0E0F9A06328460FF0E1F9E063A4
:1099F00003B030BD13B50C4601A811461A466B469C
:109A000001F09CF9049A01A9204609F0C7F904461F
:109A100001A800F037FF204602B010BD13B50C4678
:109A200001A811461A466B4601F088F9049A01A96B
:109A300020460FF0B7FB044601A800F023FF2046A4
:109A400002B010BD0846114609F0B7B908461146E4
:109A50000FF0B7BB084609F002B908460FF003BB88
:109A600082B0F0B587B005469DF850700D93742F05
:109A700016461398DDE911210FAC0DAB1ED00ED8A0
:109A8000642F2DD0CDE90310029294E803008DE8F5
:109A9000030031460CCB284609F038F91AE0772F3D
:109AA0002BD0CDE90310029294E803008DE8030067
:109AB00031460CCB284609F045F90BE0CDE90310FF
:109AC000029294E803008DE8030031460CCB28464F
:109AD00009F0C8F8284607B0BDE8F04002B070476A
