:02000002B0004C
:1040000000400B0070B00D00000006000C0005021F
:084010000401A30F00000000F1
:04401800E4680D004B
:1040200009480A49884208B505D0094A824202D0A7
:10403000121A1CF08DFF0748074A0021121A1CF0C3
:10404000AFFF014808BD00BFF8CB032070AD0D00E5
:10405000D0CE0320D0CE0320F0E7032070B5074E6A
:10406000074C01F011FBA41BA4080025AC4200D1B1
:1040700070BD56F8043B98470135F7E700AD0D00D9
:1040800038AD0D0000F036BA08B500F007F9BDE80C
:10409000084001F0B1BA00F0CFBF00F0CDBF00F092
:1040A000D3BF00F0D1BF00F0CFBF00000048704781
:1040B0006A920D0008B5034A03490C2000F008FF7E
:1040C000FEE700BF114C0B00F8680D000078B0FA55
:1040D00080F04009704701230370704713B5054B0A
:1040E0001B788DF800303C23044601F02BFC204661
:1040F00002B010BDD4CE032010B5114886B040F2F6
:1041000002211EF05DF8431C044613D00D4A02A89C
:10411000D11E009013F07CFE03230193009B00222C
:10412000DA7000994FF47A7220461EF067F86846FC
:1041300013F0F8FD204606B0BDE810401EF038B878
:104140000D690D001A690D0038B5046805467CB18B
:104150006368013B63605BB9236820469B689847AE
:10416000A368013BA3601BB923682046DB6898471E
:10417000284638BD30B51A4887B040F202211EF0FB
:104180001FF8431C044624D000254FF47A722946B8
:104190001EF02AF8014602A801F040F9029A1149DE
:1041A0006846FFF79BFF01A8FFF7CEFF02A801F0CA
:1041B000C3F801F00FFE294601F0B7F901F00AFE3D
:1041C0000A2205464FF47A7101F0B9F9284601F048
:1041D000A0F9204607B0BDE830401DF0E9BF00BFA0
:1041E0000D690D001B690D00F0B5284B9C68043368
:1041F00087B02246194642B11769D2E90256874272
:104200002ABF134632462A46F5E78B4233D01B6954
:10421000834230D81E4B44B12669D4E90225864238
:104220002ABF23462C461446F5E78B4202D01A6972
:10423000824202D917480DF05BFD596902A801F0CE
:10424000EDF8029A14496846FFF748FF01A8FFF706
:104250007BFF02A801F070F80121204601F0C3FFA6
:104260004FF4FA6001F09CF92146204607B0BDE802
:10427000F04001F0B8BF0121084601F0B4FF4FF44F
:10428000FA6001F08DF900210120EFE7D8CE03207C
:10429000DCCE032021690D0029690D0030B52A4BC1
:1042A00085B018689A889B790290ADF80C208DF83B
:1042B0000E30002125488DF807100DF1070302AAE2
:1042C00000F000FC00283CD001F084FD204901F002
:1042D0002CF901F07FFD1F4901F014F901F07AFD7E
:1042E0000A229DF8071001F02AF901F073FD1A491E
:1042F00001F01BF901F06EFD184901F003F99DF87A
:10430000071002A800F0E8F99DF80730042B13D13C
:10431000029C01F05FFD124901F0F4F801F05AFD32
:1043200024BA05460A22214601F009F9284601F07F
:10433000F0F82046FFF758FF01F04CFD094901F065
:10434000F4F805B030BD00BFE0690D00F0CE0320E9
:104350002D690D0045690D0054690D005B690D0064
:1043600069690D006A920D00F8B58B68164604461F
:104370000D1D012263B11D693268D3E902709542B7
:1043800088BF01221D4696BF00223B460346F1E747
:1043900092B1CA68AA4203D1C4E900352046F8BDEB
:1043A000284603F08EFC336802699A424FF00003FE
:1043B000F2D3C4E90003F1E72846F4E72DE9FF470B
:1043C00000F10408856806468946444655B12969C6
:1043D000D9F80020D5E9023091422ABF2C46054683
:1043E0001D46F3E7A04504D0D9F8002023699A427E
:1043F00034D22420FFF74FFED9F80030036100F1DA
:10440000140900F110023A4901920746484600F0AB
:10441000DEFFA045019A26D1736923B131693B695A
:104420000869984209D3314602A8FFF79DFFDDE9EC
:104430000241002953D0002C4FD188454DD0386916
:104440000B6998422CBF0020012043460A4639469A
:1044500003F039FC7369013373613C4604F11400C5
:1044600004B0BDE8F087D7F810A0236901929A45FF
:1044700018D2F3689C4209D0204603F022FC03695D
:10448000019A9A4505D9C36853B9044621461C468A
:10449000CFE7314602A8FFF767FFDDE90234F5E711
:1044A0002346F3E71BD931698C420BD0204603F039
:1044B00006FC0369019A9A45054605D2E36853B99B
:1044C00021461D462C46B4E7314602A8FFF74CFFB3
:1044D000DDE90251F6E70146F4E70120B5E7484679
:1044E00000F02AFF38462421FFF7DDFD2746B4E718
:1044F0006A920D00F0B587B001F06CFC4FF4E13129
:1045000001F056FC0121084601F05CFE012100206B
:1045100001F058FE01F05EFC01F051FC18B90A20D0
:1045200001F03EF8F6E7FFF7E7FDFFF723FE364B15
:104530003648029302A9FFF741FF3549354F364D02
:10454000364E00F058FF364B3048029302A9FFF771
:1045500035FF344900F04FFF2E4800F0E9FA3846A5
:1045600000F064FA0446C0B901F034FC294600F0BA
:10457000DCFF294602A800F051FF029A3146684646
:10458000FFF7ACFD01A8FFF7DFFD02A800F0D4FEA5
:104590004FF47A7001F004F8E1E701F01BFC2249C6
:1045A00000F0B0FF01F016FC1022210E054600F0CD
:1045B000C6FF284600F0ADFF01F00CFC1B4900F0DF
:1045C000A1FF01F007FC0A22C4F3074100F0B7FF86
:1045D00001F000FC2E2100F099FF01F0FBFBC4F379
:1045E00007210A22054600F0AAFF284600F091FFA5
:1045F000084800F049FA01F0EDFB0D4907B0BDE8AD
:10460000F04000F092BF00BF0C04B8C3D8CE032026
:104610007F690D00F0CE032097690D001B690D0026
:104620001B18A4C18B690D00A0690D00AF690D00B6
:10463000BE690D000B4B13B500241C700A4801F035
:10464000A3FE0A4B0A481C711A1DC3E903229C6091
:104650005C610E2300930B220C230D2100F034F833
:1046600002B010BDD4CE0320D5CE0320D8CE032077
:10467000F0CE032070B506460C4615462AB90368ED
:10468000BDE870409B68C9B2184700290BDA0A2AB6
:1046900009D12D2100F03AFF6142EAB23046BDE86F
:1046A000704000F04CBF2146F7E710B504463AB918
:1046B00003689B6898472046BDE8104000F029BF7A
:1046C000D2B200F03CFFF6E710B503719DF8083058
:1046D000C1704271837010BD2DE9F843184FDFF8A7
:1046E0006880DFF868900D46441E0026AE421FD059
:1046F00001F070FB394600F005FF63780F2B04D8FA
:1047000001F068FB414600F0FDFE01F063FB14F888
:10471000011F102200F013FF012D07D96B1EB342B9
:1047200004D001F057FB494600F0ECFE0136DDE70E
:1047300001F050FBBDE8F843024900F0F6BE00BFAF
:10474000F4690D006A920D00E7690D0069920D0091
:1047500013B50B4C2178BFF35B8F11F001010BD126
:1047600020460191FFF7B2FC019928B1054800F0FD
:1047700017FD2046FFF7AFFC024802B010BD00BF96
:1047800008CF03200CCF032007B50190FFF7E0FF0F
:10479000019903B05DF804EB00F0B6BD5520FFF7BA
:1047A000F3BF38B500210446807801F01CFD0220DB
:1047B00000F0F6FE0220FFF7E7FF2046FFF7EEFFCE
:1047C00001210546A07801F00EFD284638BD000005
:1047D000F8B5054616460C4601F0FCFA1749184F85
:1047E00000F090FE0021A87801F0FDFC022000F00E
:1047F000D7FE0320FFF7C8FF2644B44213D00120A0
:1048000000F0CEFE2846FFF7C9FF207001F0E2FA63
:10481000394600F077FE01F0DDFA14F8011B102292
:1048200000F08DFEE9E7A878012101F0DCFC01F041
:10483000D1FABDE8F84000F06CBE00BFE9690D0098
:10484000F3690D0007B506226946FFF7C1FF054968
:10485000062268461CF07BFDB0FA80F0400903B0E8
:104860005DF804FBF8CB03202DE9F047074614461A
:10487000551C884601F0AEFA5449DFF8549100F017
:1048800041FE0021B87801F0AEFC022000F088FE65
:104890000120FFF779FF0020FFF776FF0020FFF7E8
:1048A00073FFEDB2FF20FFF76FFF2846FFF76CFFA5
:1048B000E043C0B2FFF768FFD420FFF765FF01F0C7
:1048C00089FA434900F01EFE01F084FA102200210B
:1048D000FFF7D0FE01F07EFA3D4900F013FE01F033
:1048E00079FA10220021FFF7C5FE01F073FA38496A
:1048F00000F008FE01F06EFA1022FF21FFF7BAFE69
:1049000001F068FA324900F0FDFD01F063FA10226F
:10491000294600F014FE01F05DFA2D4900F0F2FD89
:1049200001F058FA10226942FFF7A4FE01F052FA92
:10493000274900F0E7FD01F04DFA1022D421FFF7DE
:1049400099FE0024D326013D04F1010AE4B2AC42F1
:1049500015DA18F80400FFF717FF18F804301E44A2
:1049600001F038FA494600F0CDFD01F033FA18F8AD
:104970000410102200F0E3FDF6B25446E4E7F643DB
:10498000F0B2FFF701FF0020FFF7FEFEB87801212B
:1049900001F029FC01F01EFA0D4900F0B3FD01F011
:1049A00019FA10223146FFF765FE01F013FA0849A3
:1049B00000F0A8FD01F00EFA10220021FFF75AFEC8
:1049C00001F008FABDE8F04700F0A3BDF7690D005B
:1049D000F3690D00F8B507461C46FFF745FF0025B3
:1049E0003846FFF7DEFE012808D01CB10A35ADB20B
:1049F000AC4217D30A2000F0D3FDF1E73846FFF7A9
:104A000021FF054670B100263846FFF7CAFE01288F
:104A100009D01CB10A36B6B2B44203D30A2000F062
:104A2000BFFDF1E700252846F8BD000070B5124D26
:104A300002232B7001224FF47A7329460646FFF7B2
:104A4000C9FF30B901F0C6F90C4900F06EFD002035
:104A500070BD0C2229463046FFF7BAFE08490622EF
:104A600028461CF074FC18B101F0B4F90549ECE7D4
:104A7000D5F8060000BAEBE714CF0320026A0D0058
:104A8000FECB0320246A0D0038B50D4C14220123FF
:104A900022706370A270E37004224FF47A7321468F
:104AA0000546FFF797FF48B1284608222146FFF741
:104AB0008FFE6079A0F115035842584138BD00BF00
:104AC00014CF03202DE9F041174C1F464A232370D1
:104AD00001236370A17016464FF47A7303222146B6
:104AE0008046FFF777FF054638B901F073F90F49A3
:104AF00000F01BFD2846BDE8F08114222146404607
:104B0000FFF766FEE379012B0BD1237B3B7000237B
:104B1000227BD9B28A42EDD962180133527B72549A
:104B2000F6E70025E6E700BF14CF03203C6A0D003E
:104B300013B50446FFF70CFE182100F0BFFBFFF78A
:104B400007FE002100F05EFBFFF702FE002100F0EF
:104B500045FBA1780191FFF7FBFD019900F02AFBCD
:104B600001F038F9104900F0CDFC01F033F90A22C8
:104B7000A178FFF79AFDA078002101F034FB4FF4F3
:104B80007A7000F00DFD094902230B7001224FF4E9
:104B90007A732046FFF71EFFA078012102B0BDE81E
:104BA000104001F020BB00BF4C6A0D0014CF032061
:104BB00008B5024B1B689B68019308BD680203009F
:104BC00008B5024B1B68DB68019308BD680203004F
:104BD00008B5024B1B689B68019308BD2C020300BB
:104BE00008B5024B1B68DB68019308BD2C0203006B
:104BF00008B5024B1B681B69019308BD2C0203001A
:104C000008B5024B1B685B68019308BD18020300DE
:104C100008B5024B1B68DB68019308BD180203004E
:104C200008B5024B1B685B69019308BD18020300BD
:104C300008B5024B1B681B68019308BD8402030082
:104C400008B5024B1B685B68019308BD8402030032
:104C500008B5024B1B689B68019308BD84020300E2
:104C600008B5024B1B68DB68019308BD8402030092
:104C700008B5024B1B685B69019308BD8402030001
:104C800008B5024B1B68DB69019308BD8402030071
:104C900008B5024B1B681B6A019308BD8402030020
:104CA00008B5024B1B685B6C019308BD480203000A
:104CB00008B5024B1B685B69019308BD64020300E1
:104CC00008B5024B1B68DB68019308BD3C0203007A
:104CD00008B5024B1B681B69019308BD3C02030029
:104CE00008B5024B1B685B69019308BD3C020300D9
:104CF00008B5024B1B689B69019308BD3C02030089
:104D000008B5024B1B68DB69019308BD3C02030038
:104D100008B5024B1B681B6A019308BD3C020300E7
:104D200008B5024B1B689B6A019308BD3C02030057
:104D300008B5024B1B681B6C019308BD3C020300C5
:104D400008B5024B1B681B6A019308BD28020300CB
:104D500008B5024B1B685B6A019308BD280203007B
:104D600008B5024B1B689B6A019308BD280203002B
:104D700008B5024B1B68DB6A019308BD28020300DB
:104D800008B5024B1B681B6B019308BD280203008A
:104D900008B5024B1B685B6B019308BD280203003A
:104DA00008B5024B1B681B6C019308BD2802030069
:104DB00008B5024B1B681B68019308BD3002030055
:104DC00008B5024B1B689B68019308BD30020300C5
:104DD00008B5024B1B68DB68019308BD3002030075
:104DE00008B5024B1B681B69019308BD3002030024
:104DF00008B5024B1B685B69019308BD30020300D4
:104E000008B5024B1B68DB69019308BD3002030043
:104E100008B5024B1B681B6A019308BD30020300F2
:104E200008B5024B1B685B6A019308BD30020300A2
:104E300008B5024B1B681B6C019308BD30020300D0
:104E400008B5024B1B685B6C019308BD3002030080
:104E500008B5024B1B681B68019308BD4C02030098
:104E600008B5024B1B685B68019308BD4C02030048
:104E700008B5024B1B681B69019308BD4C02030077
:104E800008B5024B1B685B69019308BD4C02030027
:104E900008B5024B1B689B69019308BD4C020300D7
:104EA00008B5024B1B68DB69019308BD4C02030087
:104EB00008B5024B1B681B6A019308BD4C02030036
:104EC00008B5024B1B685B6A019308BD4C020300E6
:104ED00008B5024B1B685B6B019308BD60020300C1
:104EE00008B5024B1B685B68019308BD20020300F4
:104EF00008B5024B1B685B69019308BD20020300E3
:104F000008B5024B1B68DB6C019308BD200203004F
:104F100008B5024B1B685B6D019308BD20020300BE
:104F200008B5034B1B68D3F88830019308BD000017
:104F30002002030008B5034B1B68D3F8943001939B
:104F400008BD00002002030008B5024B1B685B6827
:104F5000019308BD4002030008B5024B1B689B6823
:104F6000019308BD4002030008B5024B1B68DB68D3
:104F7000019308BD4002030008B5024B1B681B6982
:104F8000019308BD4002030008B5024B1B685B6932
:104F9000019308BD4002030008B5024B1B689B69E2
:104FA000019308BD4002030008B5024B1B68DB6992
:104FB000019308BD4002030008B5024B1B681B6A41
:104FC000019308BD4002030008B5024B1B681B6B30
:104FD000019308BD4002030008B5024B1B685B6BE0
:104FE000019308BD4002030008B5024B1B681B6C0F
:104FF000019308BD4002030008B5024B1B685B6CBF
:10500000019308BD4002030008B5024B1B685B69B1
:10501000019308BD4402030008B5024B1B681B6ADC
:10502000019308BD4402030008B5024B1B68DB6B0B
:10503000019308BD4402030008B5024B1B681B68BE
:10504000019308BD1C02030008B5024B1B685B6896
:10505000019308BD1C02030008B5024B1B689B6846
:10506000019308BD1C02030008B5024B1B685B6975
:10507000019308BD1C02030008B5024B1B689B6925
:10508000019308BD1C02030008B5024B1B685B6A54
:10509000019308BD1C02030008B5024B1B68DB6AC4
:1050A000019308BD1C02030008B5024B1B681B6B73
:1050B000019308BD1C02030008B5024B1B685B6B23
:1050C000019308BD1C02030008B5024B1B689B6BD3
:1050D000019308BD1C02030008B5024B1B68DB6B83
:1050E000019308BD1C02030008B5024B1B681B6C32
:1050F000019308BD1C02030008B5024B1B685B6CE2
:10510000019308BD1C02030008B5024B1B689B6C91
:10511000019308BD1C020300002240681146FFF7FE
:105120004BBF002240681146FFF756BF406800227F
:10513000FFF74ABF4068002281F00101FFF734BF4A
:10514000002340681A461946FFF726BF002340682F
:105150001A461946FFF718BF002240681146FFF7AC
:105160000BBF002240681146FFF7F6BE40680022E0
:105170000221FFF7F9BE002340681A46FFF7E4BE9C
:10518000024B03225A60024A1A60704754CF032030
:105190007C6A0D000021FFF753BE0021FFF748BED7
:1051A00010B5044608462170FFF72AFE002363600D
:1051B000204610BD13B5044600780191FFF7EDFFBE
:1051C000019948B920780190FFF7F2FD019802B0EB
:1051D000BDE81040FFF7DEBF02B010BD13B50446B6
:1051E00000780191FFF7D9FF019948B92078019023
:1051F000FFF7E6FD019802B0BDE81040FFF7CABF17
:1052000002B010BD13B5044600780191FFF7C5FF49
:10521000019948B920780190FFF7DAFD019802B0B2
:10522000BDE81040FFF7B6BF02B010BD400830B572
:105230001860002418688842E5B206D90134082CA9
:1052400002D040081860F5E70725024B5B5D13703C
:1052500030BD00BFB06A0D002DE9F04188B00023D9
:105260000446007802930E461746FFF796FF054660
:1052700000BB94F800800146142203A81BF090FEA6
:105280000B232A4603A94046ADF80C30FFF7C8FDB2
:1052900004988DF8075002AB0DF1070207FB06F1E9
:1052A000FFF7C4FF20789DF80710FFF799FD2078DD
:1052B000FFF770FF029808B0BDE8F08138B50446EA
:1052C00000780D46FFF769FF0346D0B9616899B1D0
:1052D0000C4A12F8010B854202D00133082BF8D199
:1052E0000133DBB20122D9402046FFF7B5FF207819
:1052F000BDE83840FFF74EBF20782946FFF770FD24
:10530000F5E738BDB06A0D0008B50078FFF770FD0D
:10531000C0B208BD054B02221A60054B054A9A60CF
:105320000020C3E90000FFF7DBBD00BF68CF03200A
:105330005CCF03200000FFFF10B504460068FFF7B4
:1053400083FE204610BD10B50446006808B1FFF783
:105350007BFE0023C4E90133236010BD38B5044649
:105360000D4600680131FFF777FE10B1C4E9000572
:10537000012038BD10B50368044623B143688B4251
:1053800001D3012010BD2046FFF7E8FF0028F9D027
:10539000A368002BF5D122681370F2E737B50D46EC
:1053A000114601920446FFF7E5FF019A28B920460D
:1053B000FFF7C9FF204603B030BDA2602946206830
:1053C0001BF0C6FD2268A3680021D154F2E7002338
:1053D00013B5C0E9003304468360037341B1084646
:1053E00001911BF0ACFF019902462046FFF7D6FF62
:1053F000204602B010BD13B5044659B108460191CC
:105400001BF09DFF019902462046FFF7C7FF20468B
:1054100002B010BDFFF797FFF9E700000EB470B5BA
:1054200087B00BAD044655F8042B01922B4605219D
:1054300004A80395FFF728FE0B4906462046FFF710
:10544000C6FF31462046FFF795FF206830B1019A2C
:1054500003952B46711CFFF717FEA060204607B08E
:10546000BDE8704003B070476A920D0010B58368C4
:10547000044613B1032201469847204610BD13B5D8
:105480000B460246D0E900016C4684E8030093E82D
:10549000030082E8030094E8030083E8030002B0FD
:1054A00010BD0000024800230360FFF7F9BB00BFF6
:1054B0006CCF0320F8B506460D468F180024BD4278
:1054C0000CD0336815F8011B9B6830469847031EC3
:1054D00001DB1C44F3E7002C08BF1C462046F8BD46
:1054E00013B50446084659B101911BF028FF236803
:1054F0000199DB680246204602B0BDE8104018471B
:1055000002B010BD08B5FFF7EBFF08BD03689B684C
:10551000184738B50D210546FFF7F8FF0A21044664
:105520002846FFF7F3FF204438BD38B50546FFF79E
:10553000D7FF04462846FFF7ECFF204438BD30B5BE
:105540008BB00023012A8DF8243098BF0A2209ACC1
:105550000D46B1FBF2F101FB125303F0FF03092BDF
:1055600094BF30333733DBB2AA4204F8013DEFD9A0
:105570002146FFF7B5FF0BB030BD0000014B024ADA
:105580001A60704770CF0320B86A0D00024B1A688A
:10559000024B1A60704700BF04CC032074CF032075
:1055A0000021FFF7A5BC0000014B00229A60704764
:1055B00078CF0320014B1860704700BF90CC0320C8
:1055C00008B50B4B43B100F005FC03681B69984715
:1055D000002801DDAFF30080064B43B100F038FE38
:1055E00003681B699847002801DDAFF3008008BD00
:1055F000000000000000000008B5FFF7E1FFFFF722
:105600000FFB014B186008BDD0CF03200548064AA8
:10561000064908B5121A1BF09BFC054B054A1A6097
:1056200008BD00BF00F4032004F403206CAD0D009E
:1056300000F403201E1C279A07B5002300931A4686
:105640006FF07701FFF776FC03B05DF804FB000014
:1056500007B543880A2B08D0502B0BD1094B1B6888
:105660004BB103B05DF804EB1847FFF7E5FF03B05B
:105670005DF804FB002300931A466FF07701FFF7F3
:1056800059FCF4E78CCF032010B512480021FFF736
:1056900033FD114B1A68114B9A42114B0CBF01227A
:1056A00000221A7001D0FFF7B1FFFFF7A9FA0446F4
:1056B0001BF0E2FC0B4B13B12046AFF3008000213E
:1056C0000848FFF7B1FCBDE8104007480021FFF78C
:1056D00027BC00BFB5550B0000F403201E1C279A01
:1056E00088CF03200000000051560B0070470020B7
:1056F000704710B510210446FEF7D5FC204610BDBA
:1057000008B5FFF7F6FF08BD30B500224FF69C74D0
:10571000026084808D888C800C68858004600A60BB
:1057200030BD10B504460068FFF78EFC204610BD62
:1057300038B5C468F4B12378022B03D104F10C000E
:10574000FFF7EFFF656835B12846FFF78FFE1021A0
:105750002846FEF7A8FCA56835B12846FFF786FE67
:1057600010212846FEF79FFC20461421BDE8384052
:10577000FEF799BC38BD0B6803604B68436013B1FA
:105780005A6801325A60704737B5044668460D467C
:10579000FFF7F1FF009B019A23606260002301A8DC
:1057A00001930093FEF7D0FC35B1281DFEF7CCFC29
:1057B00008212846FEF777FC204603B030BD8268FA
:1057C00010B50AB90CF0B6FABDE81040C368184726
:1057D00008B5006800F11001FFF7F1FF08BD82680D
:1057E00010B50AB90CF0A6FABDE81040C368184716
:1057F00008B5006800F11001FFF7F1FF08BD0000D7
:1058000038B500230446036010200D46FEF743FC24
:1058100028B10123C0E90133024B0360C560206059
:10582000204638BDE06A0D0038B5002383608B68E0
:1058300004460D462BB102229847EB68E360AB6843
:10584000A360204638BD0000F0B589B00468684602
:10585000FFF75AFF4FF00203D4E84F2F002A03D17D
:10586000C4E8413F0029F7D125D104F10C05694670
:105870002846FFF749FFBFF35B8F012363700020C9
:1058800004F10803BFF35B8F53E8006F43E80002A5
:10589000002AF9D1BFF35B8F6EB1FFF731FB78B10E
:1058A00029463046FFF78BFF3046FFF7DFFD10211A
:1058B0003046FEF7F8FB6846FFF733FF09B0F0BD4E
:1058C000314602A8FFF7B0FFE068B4F9105008B104
:1058D0001BF018FD06901020ADF81C50FEF7DBFB06
:1058E0000546E8B1002787601820FEF7D4FB044680
:1058F00088B10146876002A8FFF7C1FD049BA2683A
:10590000A360059B049206A9E268E36004F110001D
:105910000592FFF7F9FE084BEB60084B2C60AB607B
:1059200006A8FFF7FEFE02A8FFF7A0FD0022294609
:105930000348FFF7EDFAB7E7D1570B00555A0B00B4
:10594000C55E0B002DE9F04F8BB005469DF850A0C9
:105950000F4690469946FFF757FB07AE834638BB84
:105960004FF62E73059005A93046ADF81830FFF7B5
:10597000CBFE1420FEF78FFB044648B102230370D0
:105980000123C0E901BB437031460C30FFF7BCFE78
:105990002846214640F8044BFFF732FF3046FFF718
:1059A000C0FE05A8FFF7BDFE28460BB0BDE8F08F8E
:1059B0000C2300241420CDE908440793FEF76BFB69
:1059C000014618B1C0E901440470447004A8039171
:1059D000FFF716FF1E4B08930820FEF75CFB0446FA
:1059E00010B103A9FFF7C7FE00965FFA8AF34A4693
:1059F000414638460994FFF70FFBB8B9039B5B7823
:105A000003F0FF0293B94FF69C7305A903A8059212
:105A1000ADF81830FFF718FF05A8FFF782FE05A8BC
:105A20000999FFF7B1FE06A8FEF78EFB03A905A8AA
:105A3000FFF7A1FE059B069A2B606A60002306A86B
:105A400006930593FEF780FB04A8FEF77DFBABE70A
:105A5000D15A0B00012AF8B5054603D10B68036043
:105A60000020F8BD022A10D0032AF9D10468002CC6
:105A7000F6D004F11000FFF754FE2046FFF7F6FCC5
:105A800018212046FEF70FFBEAE718200E68FEF704
:105A900002FB044650B13146FFF7C6FE3069B6F945
:105AA000147008B11BF02EFC2061A7822C60D7E790
:105AB00038B5002383608B6804460D462BB1022263
:105AC0009847EB68E360AB68A360204638BD0000F0
:105AD000F0B589B004460D4601A81146FFF754FE03
:105AE000A4B124B21DB128461BF00CFC054601A848
:105AF00003A90395ADF81040FFF7A6FE03A8FFF732
:105B000010FE02A8FEF720FB09B0F0BD019D0123A5
:105B1000D5E84F2F002A03D1C5E8413F0029F7D12E
:105B2000EFD12B73BFF35B8F6B702B1DBFF35B8FBC
:105B300053E8006F43E80042002AF9D1BFF35B8FBE
:105B4000002EDED02046FFF7DBF9074660B105F1F5
:105B50000C013046FFF743FE3046FFF787FC10216B
:105B60003046FEF7A0FACCE7314603A8FFF7A0FFC6
:105B70002B7B8DF81C301020FEF78DFA0546D0B136
:105B800087601420FEF787FA044678B187600146E3
:105B900003A8FFF774FC059BA268A360069B05920F
:105BA000E268E3609DF81C3006922374064BEB60BC
:105BB000064B2C60AB6003A8FFF758FC0022294677
:105BC0000348FFF7A5F9C7E7F1570B00D55B0B00BA
:105BD000C55E0B00012A70B5044603D10B68036053
:105BE000002070BD022A0CD0032AF9D10468002CD1
:105BF000F6D02046FFF73AFC14212046FEF753FA70
:105C0000EEE714200E68FEF746FA054620B131464D
:105C1000FFF74EFF337C2B742560E1E7704710B52A
:105C200018210446FEF73FFA204610BDF0B5037D6B
:105C3000062B8DB00E4600F104074FF0000412D081
:105C400000F1080515F8011D0A223046FFF777FC20
:105C5000AF42044419D0002CF4D02E213046FFF777
:105C600055FC0444EEE72F236A4639460A208DF896
:105C70000040FFF71DF868461BF061FB33680246E1
:105C8000DB68694630469847044620460DB0F0BDB3
:105C900010B5054B0446112240F8043B00211BF0CF
:105CA0007FF9204610BD00BFFC6A0D000346074A7D
:105CB00010B543F8042B01F1100251F8044B43F8DE
:105CC000044B9142F9D10A781A7010BDFC6A0D009C
:105CD00010B59DF8084044EA032343EA024242EA31
:105CE000016104234160037510BD000007B5064B38
:105CF0000360CB7800938B784A780978FFF7E8FF48
:105D000003B05DF804FB00BFFC6A0D0041747047EE
:105D10007047704708B50021007CFFF7B9F840EAEA
:105D2000E07008BD08B50121007CFFF7B1F840EA3A
:105D3000E07008BD08B5007CFFF7A2F820EAE0702B
:105D400008BD08B5007CFFF793F820EAE07008BDB5
:105D500013B50446007C0191FFF792F800280199E1
:105D600001DC607C20B1207CFFF79AF820EAE0702B
:105D700002B010BD007CFFF79BB810B5142104469B
:105D8000FEF791F9204610BD10B54FF47A73044622
:105D900008460021C4E90113044B23600123207449
:105DA00063741146FFF754F8204610BD106B0D00C8
:105DB000007C0022FFF754B8007CFFF781B8FFF7A2
:105DC000FBBF10B51422044600211BF0E9F8204661
:105DD00010BD000010B50F4C88B003A8FFF7F1FF0D
:105DE0002178BFF35B8F11F001010FD120460191A3
:105DF000FEF76CF9019948B103AA0748FFF7C4FF01
:105E00002046FEF768F905481AF038FA024808B04B
:105E100010BD00BF90CF032094CF0320115D0B0075
:105E200070474174704708B5007CFEF779FF20EA9F
:105E3000E07008BD08B5007CFEF74AFF20EAE0707C
:105E400008BD08B5007CFEF753FF40EAE07008BDCE
:105E500008B5007CFEF744FF40EAE07008BD007C16
:105E6000FEF74EBF37B5457C04462DB1207C03B00C
:105E7000BDE83040FEF724BF007C0191FEF750FFE3
:105E800000280199F2DC284603B030BD10B514217A
:105E90000446FEF708F9204610BD000010B54FF487
:105EA0007A730446084611460022C4E90123044BD4
:105EB0002360012320746374FEF73AFF204610BD6F
:105EC000406B0D0010B5836804460BB90BF032FF30
:105ED000C3689847A3681BB1032221462046984710
:105EE00020461021BDE81040FEF7DDB87047F8B538
:105EF000064615460C468F18BC4206D0336814F887
:105F0000011B9B6830469847F6E72846F8BD007CA1
:105F10000022FEF715BF007C0021FEF719BF007CB0
:105F20000021FEF71DBF007C0021FEF721BF007C91
:105F30000021FEF725BF10B514210446FEF7B3F883
:105F4000204610BD10B54FF47A7304460846002170
:105F5000C4E90113034B236020741146FEF720FFB0
:105F6000204610BD706B0D00002240681146FFF7FF
:105F700003B8002240681146FFF71EB800224068AF
:105F80001146FFF729B840680022FFF71DB84068A6
:105F9000002281F00101FFF707B8002340681A468C
:105FA0001946FEF7F9BF002340681A461946FEF766
:105FB000EBBF002240681146FEF7CEBF40680022CA
:105FC0000221FEF7D1BF002340681A46FEF7BCBF8E
:105FD000024B04225A60024A1A607047A8CF03207D
:105FE000986B0D00002340681A46FEF7ADBF40686D
:105FF00000220221FEF7B8BF002240681146FEF7DA
:10600000ABBF002240681146FEF7B6BF00234068D0
:106010001A461946FEF7B8BF002340681A461946CB
:10602000FEF7BABF40680021FEF7DEBF40680021DE
:10603000FEF7E2BF4068002281F00101FEF7B4BF25
:1060400040680022FEF7C0BF002240681146FEF7FC
:10605000C3BF002240681146FEF7AEBF2DE9F043F2
:1060600095B014460D460746FFF712FE00211C228C
:106070000DA800911AF094FF40230C9320466B4624
:106080000CAA0021FEF79CFD044600284BD10246D5
:1060900001216868FEF770FF022180462246686889
:1060A000FEF76AFF009E81462146002E3BD0002964
:1060B00039D17368022B03D00A2B11D0F669F4E7AB
:1060C000B8F1000FFAD0716906A8043107ADFFF7E7
:1060D0000DFE0FCD3C1D0FC42B6823704146EDE72C
:1060E000B9F1000FEAD07469102201A81AF058FF24
:1060F00006238DF8143001AD04F108031834186834
:1061000059682A4603C20833A3421546F7D101A9AC
:1061100006A807ADFFF7CAFD0FCD3C1D0FC42B68C5
:1061200023704946CAE70098FEF742FD384615B08D
:10613000BDE8F083024B034A1A6000225A607047A0
:10614000B0CF0320D46B0D00232813B502D9002053
:1061500002B010BDA0F10B03022B1AD8174C217806
:10616000BFF35B8F11F001010BD120460191FDF7C8
:10617000ADFF019928B11248FFF712F82046FDF74C
:10618000AAFF0F4B1878FEF743FE0028DFD101204D
:10619000DEE7012809D800F097F80021007CFEF71F
:1061A000F7FD80F00100C0B2D2E709380128EED82F
:1061B00000F04EF8007CFEF7ABFDF2E708CF0320BD
:1061C0000CCF0320232838B504460D460AD8FF29F2
:1061D00008D0FFF7B9FF28B129462046BDE838406E
:1061E000FEF7F6BC38BD38B504460D46FEF7F8FCA0
:1061F000FF2810D0062804D84D2323FA00F0C30747
:1062000009D42046FFF7A0FF28B129462046BDE863
:106210003840FEF7EDBC38BD7047000038B5044685
:1062200014252A4600211AF0BBFE25804025074987
:1062300025812846258200F06BF8044960602846D5
:1062400000F066F8E060204638BD00BF086C0D0025
:1062500030B50E4D2978BFF35B8F11F0010487B084
:1062600011D12846FDF732FF68B101A8FFF7D6FF2C
:1062700001AA21460648FFF711FE2846FDF72BFF2D
:10628000044819F0FBFF024807B030BDB8CF032027
:10629000BCCF032019620B007047000038B52025E1
:1062A000142304460360856005610649284600F012
:1062B0002FF804496060284600F02AF8E060204684
:1062C00038BD00BF086C0D0030B50E4D2978BFF306
:1062D0005B8F11F0010487B011D12846FDF7F6FE5F
:1062E00068B101A8FFF7DAFF01AA21460648FFF7C7
:1062F00029FE2846FDF7EFFE044819F0BFFF0248CB
:1063000007B030BDD4CF0320D8CF032099620B0053
:10631000FDF7C3BE37B5051D0446284601910BF0B5
:106320009BFD0023C4E91D33C4E92033C4E92233B3
:1063300084F87C30054B0199236028461433636050
:1063400003B0BDE830400BF071BD00BF8C910D0073
:1063500037B5051D0446284601910BF07DFD00234D
:10636000C4E91F33C4E921336367A4F87830054BCF
:106370000199236028461433636003B0BDE83040C0
:106380000BF020BD5C910D002DE9F04FDFF8449239
:106390002DED028BD9F80040631C08EE100A83B083
:1063A000C9F80030002C40F0ED80DFF82CB2794BBA
:1063B000794F7A4EDFF824A201221A70DBF8003000
:1063C000774A9D68BC61C7E90024C7E90244C7E970
:1063D000044407F11C0000F07DFEDBF80010704A59
:1063E0003D624FF0FF384D68C7F800A0C7F8248021
:1063F000C6E90024C6E90244C6E90444B46106F1D2
:106400001C0000F067FEC6E90858DBF80010654D77
:10641000634ACB68C6F800A0C5E90024C5E9024478
:10642000C5E90444AC6105F11C00019300F052FE83
:10643000019BC5F800A0DFF8A8A1C5E908383946D6
:106440005046FFF785FF584A10460BF005FD564AA7
:10645000564942F8081CA2F108071431B9603146C8
:10646000534E1467C2E91E44C2E92044A2F87440A6
:1064700042F8044C10460BF0A5FC29463046FFF7C5
:1064800067FF29464B48FFF763FF3269DBF80030AE
:10649000C7F878A042F40052474F3261474A9D68DE
:1064A000C6F874A0C7E90024C7E90244C7E9044458
:1064B000BC6107F11C0000F00DFE414EDBF800103E
:1064C0003E4ADFF820A1C7F800A0C7E9085806F146
:1064D0001C004D68B461C6E90024C6E90244C6E95F
:1064E000044400F0F7FDDBF80010344AD1F80CB09A
:1064F000C6F800A0C6E90858324DC5E90024C5E930
:106500000244C5E90444AC6105F11C0000F0E2FD61
:10651000C5E908B8DFF8D0B0DFF8D080C5F800A032
:1065200039465846FFF7F6FE40460BF095FC264BE1
:1065300088F87840A8F10807C8E91C44C8E91F4456
:10654000C8E9214448F8083C48F8044C14331F4C6F
:10655000BB60314640460BF069FC29462046FFF7F8
:10656000D9FE1B482946FFF7D5FE2369C8F870B04D
:1065700043F400532361D9F80030C4F874B00133F8
:10658000C9F8003018EE100A03B0BDEC028BBDE86C
:10659000F08F00BF08CC03200CE10320BCE00320F7
:1065A00074920D00E4E00320B4E10320208B0D0081
:1065B0003CE20320C8E2032084E10320B4920D00F2
:1065C00034E103205CE10320508B0D0074E40320D0
:1065D00004E50320F0DF032090CC032070890D0038
:1065E00054E30320B0890D0094E50320E8E3032081
:1065F00070474268511E012A416002D103685B68FE
:1066000018477047044A0B681268036093421EBF24
:106610001A6801321A607047F0CF0320016070479A
:1066200002490348002218F02FBA00BF096C0D0080
:10663000F8CF032010B5034C23680BB9FFF7F0FF28
:10664000206810BDF8CF032000487047096C0D008A
:1066500038B5436804465BB10025D4E90132AA424B
:1066600006D953F8250008B1FFF7C3FF0135F4E759
:10667000606808B1FDF715FDE3685BB10025D4E95A
:106680000223AA4206D953F8250008B1FFF7B1FF4B
:106690000135F4E7E06808B1FDF703FD23691BB994
:1066A000206958B9204638BD00252369585908B1DA
:1066B000FDF7F7FC0435182DF7D1F1E7FDF7F1FCF4
:1066C000F0E703685A1E012B10B50446026006D19C
:1066D000FFF7BEFF2046BDE81040FDF7E0BC10BD4F
:1066E000054B10B51B6804460068984201D0FFF7BF
:1066F000E8FF204610BD00BFF0CF03200A4A38B59E
:106700000B680D4611688B4218BF1A680446006872
:106710001CBF01321A60814201D0FFF7D2FF2B6803
:106720002360204638BD00BFF0CF0320036823B9A3
:10673000034A13680133136003600068013870472F
:10674000F4CF03202DE9F84F044616460846002AE8
:1067500000F0AD80FFF7EAFFA368013B98420546D1
:1067600041D900F104086FF06043984534BF4FEA07
:1067700088074FF0FF373846D4F804A0FDF78DFCAA
:106780008346A0680023984269D1C0F104022A44DC
:106790009200804538BF002200210BEB80001AF0E8
:1067A000FFFB3846D4F80C90FDF777FC0746A0684D
:1067B000002398425AD1C0F104022A449200804535
:1067C00038BF0022002107EB80001AF0E9FBC4E982
:1067D00001B8E760BAF1000F4FD1B9F1000F02D054
:1067E0004846FDF75EFC7368D4F80490013373608B
:1067F00059F825300BB32F490868D0B1FFF796FF41
:1068000085423ED14868D4F804A0FFF78FFF5AF8BC
:10681000203007466BB14968304608F0E7F8436816
:106820000133804643605AF82700FFF7E2FE4AF83A
:10683000278059F82500FFF7DCFE49F82560002580
:106840002E46A368AB4232D9E36853F8250020B145
:10685000FFF7CFFEE36843F825600135F1E7626892
:1068600052F823204BF8232001338CE7E26852F8DA
:10687000232047F8232001339BE75046FDF711FC06
:10688000ABE74868FFF752FF85420ED10868D4F89D
:1068900004A0FFF74BFF5AF820300746002BC8D062
:1068A0000968304602F0AEFFB9E70831A4E7BDE859
:1068B000F88F00BF286C0D002DE9F041214F3B7887
:1068C000BFF35B8FDB0706460C46154606D43846F9
:1068D000FDF7FCFB10B13846FDF7FDFB1A490868CF
:1068E000F0B1FFF723FFA84248680DD1FFF71EFF64
:1068F0000346F16851F82520AAB104B32368204665
:106900005B68BDE8F0411847FFF710FFA84205D1CA
:106910000868FFF70BFF2B460546EAE70831DEE77C
:106920004FF0FF33E5E76268501C6060581C18BFE9
:10693000023241F825401CBF626041F82340BDE8A7
:10694000F08100BFECCF0320286C0D0010B5084C7F
:106950002378BFF35B8FDB0708D42046FDF7B6FB37
:1069600020B12046BDE81040FDF7B5BB10BD00BF0B
:1069700000D003202DE9F04F30238360C24B01602B
:1069800087B00646C022002118461AF009FBBF4B0B
:106990007060C022184600211AF002FBBC4CBD4DAD
:1069A000F06014220021201D1AF0FAFA34612560EB
:1069B000FFF74AFEB84C03882B80002201231146C2
:1069C000204604F017FC22463046B449B44CDFF8A8
:1069D000C4A3DFF8C4B3B34DDFF8C093DFF8C083BE
:1069E000FFF7B0FEB04A0121104618F0BDF830465E
:1069F000AD4AAE49FFF7A6FEAD4AAE4B1360012784
:106A00000023C2E90233C2E90533C2E90733137434
:106A1000938482F8643057601146A74A6760226009
:106A2000A1602046194600F00FFF22463046A349D8
:106A3000A34CFFF787FEA34AA34957601160304675
:106A4000A249FFF77FFEA24AA24957601160304673
:106A5000A149FFF777FEA14A67602260FFF7EAFDD0
:106A60002246A0609E499F4C3046FFF76BFE9E4A2F
:106A7000CAF8002000239D4A676019462260C4F8C6
:106A800008A01A462046CAE90233CAE90533CAE912
:106A90000733CAE90933CAE90B33AAF810308AF878
:106AA0001230CAF834308AF84330CAF8047000F063
:106AB0006FFB224630468E498E4CFFF743FE8E4ACE
:106AC000CBF8002000238D4A676019462260C4F885
:106AD00008B01A462046CBE90233CBE90533CBE9AF
:106AE0000733CBE90933CBE90B33ABF810308BF824
:106AF0001230CBF834308BF84330CBF8047000F010
:106B000003FB224630467E497E4CFFF71BFE7E4A41
:106B10007E495760116030467D49FFF713FE7D4A7C
:106B20007D495760116030467C49FFF70BFE00231A
:106B30007B4A6F60C5E90233C5E90433C5E9063312
:106B4000C5E90833C5E90A33C5E90C33C5E90E3395
:106B5000C5E91033C5E91233C5E91433C5E9163365
:106B6000C5E91833C5E91A33C5E91C33C5E91E3335
:106B70002A602946C5E920333A46C5E92233C5E9EA
:106B80002433C5E92633C5E92833C5E92A33C5E9E5
:106B90002C33C5E92E33C5F8C03085F8C430204603
:106BA0000BF0EEFD224630465E495F4CFFF7CAFD12
:106BB0005E4A5F495760116030465E49FFF7C2FD8B
:106BC0005D4A5E495760116030465D49FFF7BAFD86
:106BD0005C4A3946104605F0C5F83046594A5A49CC
:106BE000FFF7B0FD594A3946104604F0EFFA304637
:106BF000564A5749FFF7A6FD564A3946104617F040
:106C0000C3FF3046534A5449FFF79CFD534B544A47
:106C10001A601A465F600023C2E90233C2E90533F5
:106C2000C2E9073313745362936282F82431114628
:106C30004C4A67602260A1602046194600F06CFE55
:106C4000224630464849494CFFF77CFD484A4949AD
:106C50005760116030464849FFF774FD474A48497C
:106C60005760116030464749FFF76CFD464A676040
:106C70002260FFF7DFFC2246A0604449444C3046C6
:106C8000FFF760FD8EE000BFA8DD0320B8DC032025
:106C9000A0DC032090D503209CD5032068DF0320CF
:106CA00024D0032098D2032078DD0320B4E0032011
:106CB00008D10320306D0D00887B0D009CDF032080
:106CC00090DD032068DE0320108C0D003CE00320E3
:106CD00078DE03204C8C0D0038E003206C7B0D0027
:106CE00090DF0320C8D00320C86C0D00E07B0D00AE
:106CF000ACDF0320D4D00320B86C0D00AC7B0D00BA
:106D0000A8DF03208CD003206CD00320307C0D0042
:106D1000A4DF03207CD00320487C0D00A0DF0320EB
:106D20007C8C0D0034E0032030D003203CD00320C5
:106D3000607C0D0098DF03204CD003207C8D0D007B
:106D400030E0032004D0032094DF0320BCD70320CD
:106D50006CDF032084DD0320B8E0032070D1032022
:106D6000406D0D0060860D00DCDF03209CDD0320FC
:106D700070DE032008940D009CE0032080DE0320D9
:106D800044940D0098E0032044860D00D0DF0320DA
:106D9000E0D0032028D403206CD40320B0D40320F7
:106DA00020D503208F4AC9F8002000238E4A67604F
:106DB00019462260C4F808901A462046C9E90233F1
:106DC000C9E90533C9E90733C9E90933C9E90B330F
:106DD000C9E90D3389F81030C9F83C3089F86C30B6
:106DE000C9F8047000F094FA224630467F49804C7E
:106DF000FFF7A8FC7F4AC8F8002000237E4A67609E
:106E000019462260C4F808801A462046C8E90233B1
:106E1000C8E90533C8E90733C8E90933C8E90B33C2
:106E2000C8E90D3388F81030C8F83C3088F86C3069
:106E3000C8F8047000F024FA224630466F49704CBE
:106E4000FFF780FC6F4A70495760116030466F4908
:106E5000FFF778FC6E4A6F495760116030466E4903
:106E6000FFF770FC00236D4A6760C4E90233C4E990
:106E70000433C4E90633C4E90833C4E90A33C4E976
:106E80000C33C4E90E33C4E91033C4E91233C4E946
:106E90001433C4E91633C4E91833C4E91A33C4E916
:106EA0001C33C4E91E332260C4E92033C4E9223311
:106EB000C4E92433C4E92633C4E92833C4E92A33B6
:106EC000C4E92C33C4E92E33C4F8C03084F8C4308C
:106ED000534B3A462146184611F056FE504B514945
:106EE0001A463046FFF72EFC4F4A504B576013604E
:106EF00030464F49FFF726FC4E4A4F4B1360576010
:106F000030464E49FFF71EFC4D4A3946104608F000
:106F100061FE30464A4A4B49FFF714FC4A4A4B4B44
:106F20005760136030464A49FFF70CFC494A4A4B08
:106F30005760136030464949FFF704FC484A494B03
:106F40005760136030464849FFF7FCFB474A484BFF
:106F50005760136030464749FFF7F4FB4649474BFB
:106F6000CDF808B0CDE9031930466946CDE9003ABD
:106F7000CDF8148001F09EFB4148F768FFF7D6FB7F
:106F80003E4B47F820303F48F768FFF7CFFB47F804
:106F900020A03D48F768FFF7C9FB47F820B03B4801
:106FA000F768FFF7C3FB47F820503948F568FFF74B
:106FB000BDFB314945F820100C48F568FFF7B6FBDA
:106FC00045F820900D48F568FFF7B0FB45F82080A4
:106FD0001448F568FFF7AAFB45F82040304607B093
:106FE000BDE8F08FE86C0D00B8860D00ECDF0320E3
:106FF000ECD00320D86C0D0084860D00E8DF032060
:1070000060D3032074D0032008870D00E4DF032041
:1070100084D0032020870D00E0DF032074940D004E
:10702000A0D0032094E0032044D0032038870D0033
:10703000D8DF032054D0032074950D0090E0032086
:1070400014D00320D4DF03205CD0032080700D0017
:1070500094DE032064D0032028700D008CDE032012
:10706000F8D0032054700D0090DE032000D10320DF
:10707000FC6F0D0088DE032070D1032008D10320AF
:107080009CDF0320ACDF0320A8DF032034E00320D3
:10709000DCDF032010B5074C02212046FFF76AFC15
:1070A000054B06481C60064B21461C60BDE810409D
:1070B000FFF7B4BAB4D00320F0CF03209CDC032048
:1070C000FCCF0320024B1B680BB9FFF7E3BF7047EF
:1070D000F0CF032038B5002303600446084DFFF7C6
:1070E000F1FF084A2B6812682360934206D0FFF72D
:1070F0002DFC2B6823601A6801321A60204638BDC7
:10710000FCCF0320F0CF032038B584680546ACB926
:107110004420FCF7C0FF1A4B0482C0E90034C0E9E8
:107120000244C0E90544C0E90744C0E90944C0E994
:107130000B448474446380F84340A860AB681149F1
:107140002E225A74AB682C229A74AA680023C2E9D2
:107150000513C2E90713C2E9091391600A49D36014
:1071600008681063D362AA685063084A1068AA6866
:10717000C15C1A4401330B2B82F83810F7D138BDAB
:10718000B86C0D006A920D00E89C0D0014CC032031
:1071900038B584680546ACB94420FCF77CFF1A4B2F
:1071A0000482C0E90034C0E90244C0E90544C0E9F2
:1071B0000744C0E90944C0E90B448474446380F87F
:1071C0004340A860AB6811492E225A74AB682C2248
:1071D0009A74AA680023C2E90513C2E90713C2E939
:1071E000091391600A49D36008681063D362AA68E2
:1071F0005063084A1068AA68C15C1A4401330B2B1B
:1072000082F83810F7D138BDC86C0D006A920D00B5
:10721000E89C0D0014CC0320064B10B50446036017
:10722000806810B103685B6898472046FFF7E0F973
:10723000204610BDAC7B0D0010B50446FFF7ECFFF7
:107240002046FCF72CFF204610BD0000064B10B571
:1072500004460360806810B103685B689847204665
:10726000FFF7C6F9204610BDE07B0D0010B50446BF
:10727000FFF7ECFF2046FCF712FF204610BD000090
:1072800038B584680546B4B97020FCF704FFC0E93E
:107290000244C0E90544C0E90744C0E90944C0E923
:1072A0000B44C0E90D44154B446003600474C4638F
:1072B00080F86C40A860AB682E212C22C3E905122F
:1072C0000F49104A9A600022C3E90712C3E9091264
:1072D000C3E90B12DA605A630B4A10689863AB6813
:1072E000D8630A4BAA681B684032591E0A3311F84A
:1072F000010F42F8040B9942F9D138BDD86C0D004A
:1073000090AB0D006A920D00E89C0D0014CC032098
:1073100038B584680546B4B97020FCF7BCFEC0E9F6
:107320000244C0E90544C0E90744C0E90944C0E992
:107330000B44C0E90D44154B446003600474C463FE
:1073400080F86C40A860AB682E212C22C3E905129E
:107350000F49104A9A600022C3E90712C3E90912D3
:10736000C3E90B12DA605A630B4A10689863AB6882
:10737000D8630A4BAA681B684032591E0A3311F8B9
:10738000010F42F8040B9942F9D138BDE86C0D00A9
:1073900090AB0D006A920D00E89C0D0014CC032008
:1073A000064B10B504460360806810B103685B6843
:1073B00098472046FFF71CF9204610BD84860D0033
:1073C00010B50446FFF7ECFF2046FCF768FE2046A8
:1073D00010BD0000064B10B504460360806810B174
:1073E00003685B6898472046FFF702F9204610BD06
:1073F000B8860D0010B50446FFF7ECFF2046FCF7F9
:107400004EFE204610BD00000D4B10B5036090F8F5
:10741000433004467BB1806808B1FCF742FE6069E6
:1074200008B1FCF73EFEE06908B1FCF73AFE606A7D
:1074300008B1FCF736FE2046FFF7DAF8204610BD0B
:10744000B86C0D0010B50446FFF7DEFF2046FCF7D0
:1074500026FE204610BD00000D4B10B5036090F8CD
:10746000433004467BB1806808B1FCF71AFE6069BE
:1074700008B1FCF716FEE06908B1FCF712FE606A7D
:1074800008B1FCF70EFE2046FFF7B2F8204610BD0B
:10749000C86C0D0010B50446FFF7DEFF2046FCF770
:1074A000FEFD204610BD00000D4B10B5036090F8A6
:1074B0006C3004467BB1806808B1FCF7F2FDE069EE
:1074C00008B1FCF7EEFD606A08B1FCF7EAFDE06A7E
:1074D00008B1FCF7E6FD2046FFF78AF8204610BD0C
:1074E000D86C0D0010B50446FFF7DEFF2046FCF710
:1074F000D6FD204610BD00000D4B10B5036090F87E
:107500006C3004467BB1806808B1FCF7CAFDE069C5
:1075100008B1FCF7C6FD606A08B1FCF7C2FDE06A7D
:1075200008B1FCF7BEFD2046FFF762F8204610BD0B
:10753000E86C0D0010B50446FFF7DEFF2046FCF7AF
:10754000AEFD204610BD000038B584680546ACB9D4
:107550004420FCF7A0FD1A4B0482C0E90034C0E9C6
:107560000244C0E90544C0E90744C0E90944C0E950
:107570000B448474446380F84340A860AB681149AD
:107580002E225A74AB682C229A74AA680023C2E98E
:107590000513C2E90713C2E9091391600A49D360D0
:1075A00008681063D362AA685063084A1068AA6822
:1075B000C15C1A4401330B2B82F83810F7D138BD67
:1075C000B86C0D006A920D00E89C0D0014CC0320ED
:1075D00038B584680546ACB94420FCF75CFD1A4B0D
:1075E0000482C0E90034C0E90244C0E90544C0E9AE
:1075F0000744C0E90944C0E90B448474446380F83B
:107600004340A860AB6811492E225A74AB682C2203
:107610009A74AA680023C2E90513C2E90713C2E9F4
:10762000091391600A49D36008681063D362AA689D
:107630005063084A1068AA68C15C1A4401330B2BD6
:1076400082F83810F7D138BDC86C0D006A920D0071
:10765000E89C0D0014CC0320064B10B504460360D3
:10766000806810B103685B6898472046FEF7C0FF4A
:10767000204610BD9C8C0D0010B50446FFF7ECFFB2
:107680002046FCF70CFD204610BD0000064B10B54F
:1076900004460360806810B103685B689847204621
:1076A000FEF7A6FF204610BDD08C0D0010B5044695
:1076B000FFF7ECFF2046FCF7F2FC204610BD00006F
:1076C00038B584680546B4B97020FCF7E4FCC0E91D
:1076D0000244C0E90544C0E90744C0E90944C0E9DF
:1076E0000B44C0E90D44154B446003600474C4634B
:1076F00080F86C40A860AB682E212C22C3E90512EB
:107700000F49104A9A600022C3E90712C3E909121F
:10771000C3E90B12DA605A630B4A10689863AB68CE
:10772000D8630A4BAA681B684032591E0A3311F805
:10773000010F42F8040B9942F9D138BDD86C0D0005
:1077400090AB0D006A920D00E89C0D0014CC032054
:1077500038B584680546B4B97020FCF79CFCC0E9D4
:107760000244C0E90544C0E90744C0E90944C0E94E
:107770000B44C0E90D44154B446003600474C463BA
:1077800080F86C40A860AB682E212C22C3E905125A
:107790000F49104A9A600022C3E90712C3E909128F
:1077A000C3E90B12DA605A630B4A10689863AB683E
:1077B000D8630A4BAA681B684032591E0A3311F875
:1077C000010F42F8040B9942F9D138BDE86C0D0065
:1077D00090AB0D006A920D00E89C0D0014CC0320C4
:1077E000064B10B504460360806810B103685B68FF
:1077F00098472046FEF7FCFE204610BD94940D00ED
:1078000010B50446FFF7ECFF2046FCF748FC204685
:1078100010BD0000064B10B504460360806810B12F
:1078200003685B6898472046FEF7E2FE204610BDDD
:10783000C8940D0010B50446FFF7ECFF2046FCF796
:107840002EFC204610BD000038B58468054684B97A
:107850006820FCF720FCC0E90244C0E90544C0E907
:1078600007441A4B446003600474848480F86440C5
:10787000A860AA68164B93602E21002382F824107A
:10788000D3601374AA682C2182F82510114A10685D
:10789000AA68C15C1A440133242B82F82610F7D160
:1078A0000D4B18680023AA68C15C1A4401331A2BD7
:1078B00082F84A10F7D1AB68084A5A6104229A61EB
:1078C000074ADA6105221A6238BD00BF306D0D002B
:1078D0006A920D0010CC03200CCC0320F06C0D003C
:1078E000F56C0D00064B10B504460360806810B1BE
:1078F00003685B6898472046FEF77AFE204610BD75
:10790000887B0D0010B50446FFF7ECFF2046FCF71E
:10791000C6FB204610BD000038B58468054694B902
:107920004FF49470FCF7B7FBC0E90244C0E905448A
:10793000C0E90744C0E90944184B4460036004747B
:1079400080F82441A860AB68154A9A6000222E2175
:10795000DA601A742C22C3E90912124A126803F180
:107960002C00511E233211F8014F40F8044B914274
:10797000F9D10D4A126803F1BC00511E193211F8F9
:10798000014F40F8044B9142F9D1084A5A61042250
:107990009A61074ADA6105221A6238BD406D0D000E
:1079A0006A920D0010CC03200CCC0320FC6C0D005F
:1079B000106D0D00064B10B504460360806810B1D1
:1079C00003685B6898472046FEF712FE204610BD0C
:1079D00060860D0010B50446FFF7ECFF2046FCF76B
:1079E0005EFB204610BD00000B4B10B5036090F805
:1079F000643004465BB1806808B1FCF752FB6069F3
:107A000008B1FCF74EFBE06908B1FCF74AFB2046E1
:107A1000FEF7EEFD204610BD306D0D0010B504469A
:107A2000FFF7E2FF2046FCF73AFB204610BD0000BE
:107A30000B4B10B5036090F8243104465BB18068AD
:107A400008B1FCF72EFB606908B1FCF72AFBE0697E
:107A500008B1FCF726FB2046FEF7CAFD204610BD04
:107A6000406D0D0010B50446FFF7E2FF2046FCF71D
:107A700016FB204610BD000038B58468054684B961
:107A80006820FCF708FBC0E90244C0E90544C0E9EE
:107A900007441A4B446003600474848480F8644093
:107AA000A860AA68164B93602E21002382F8241048
:107AB000D3601374AA682C2182F82510114A10682B
:107AC000AA68C15C1A440133242B82F82610F7D12E
:107AD0000D4B18680023AA68C15C1A4401331A2BA5
:107AE00082F84A10F7D1AB68084A5A6104229A61B9
:107AF000074ADA6105221A6238BD00BF306D0D00F9
:107B00006A920D0010CC03200CCC0320F06C0D0009
:107B1000F56C0D00064B10B504460360806810B18B
:107B200003685B6898472046FEF762FD204610BD5B
:107B3000EC8B0D0010B50446FFF7ECFF2046FCF778
:107B4000AEFA204610BD000038B58468054694B9E9
:107B50004FF49470FCF79FFAC0E90244C0E9054471
:107B6000C0E90744C0E90944184B44600360047449
:107B700080F82441A860AB68154A9A6000222E2143
:107B8000DA601A742C22C3E90912124A126803F14E
:107B90002C00511E233211F8014F40F8044B914242
:107BA000F9D10D4A126803F1BC00511E193211F8C7
:107BB000014F40F8044B9142F9D1084A5A6104221E
:107BC0009A61074ADA6105221A6238BD406D0D00DC
:107BD0006A920D0010CC03200CCC0320FC6C0D002D
:107BE000106D0D00064B10B504460360806810B19F
:107BF00003685B6898472046FEF7FAFC204610BDF4
:107C0000E4930D0010B50446FFF7ECFF2046FCF7A7
:107C100046FA204610BDC3689A68C26010B502B12A
:107C2000506042685A600C68844203D10B609860CF
:107C3000436010BD916881420CBF9360D360F6E74A
:107C40008368DA68826010B502B1506042685A6099
:107C50000C68844203D10B60D860436010BDD168CA
:107C600081420CBFD3609360F6E7C36823B1184626
:107C70009B68002BFBD170474368DA68824202D1CF
:107C800018465B68F9E7C268934218BF1846704708
:107C9000037833B943685B68834202D1DB681846D6
:107CA0007047826822B11346D268002AFBD1F6E7FA
:107CB00043689A688242F2D118465B68F9E7FFF799
:107CC000D4BFFFF7E5BF2DE9F8431E4603F10408D2
:107CD0000023C1E902330C464A600B7000B39642A0
:107CE000916018D17160F46001274FF0000973684A
:107CF000A3423FD060680278002A3BD14568AB6858
:107D0000984223D1EB6883B11A7872B907701F705B
:107D10002A702C46EBE7B3689342E5D1B160E3E704
:107D2000D160F3689342DFD1DDE7C368A34203D19A
:107D30004146FFF770FF0446636841461F702846BE
:107D400085F80090FFF77CFF2546E2E713B11A782B
:107D5000002ADBD08368A34203D14146FFF770FFBE
:107D60000446636841461F70284685F80090FFF777
:107D700052FFE9E701221A70BDE8F883009B032057
:107D80001A60704700207047002070470420704739
:107D9000009B03201A607047009B03201A60704705
:107DA000009B03201A607047F0B50546D0E900201B
:107DB000801A65D092F900401378002C03DB013261
:107DC0002A601846F0BDC12B3BD9DF2B0FD8012804
:107DD00056D0507800F0C004802C32D100EB8310D4
:107DE000A0F542508142EDD302322A60EAE7EF2B40
:107DF0001AD8022844D9547804F0C000802820D131
:107E0000E02B01D19F2C1CD9907800F0C006802E69
:107E100017D1A40104EB03330344A3F56220803897
:107E20008142CFD30332E0E7F42B0AD8032827D9C5
:107E3000547804F0C000802803D1F02B04D18F2C9B
:107E400006D84FF0FF30BDE7F42B01D18F2CF8D8C6
:107E5000967806F0C0008028F3D1D07800F0C007F3
:107E6000802FEED1240304EB834303EB86130344FA
:107E7000A3F17270A0F502508842A3D80432B4E78F
:107E80006FF001009EE7F0B50546D0E90020801AAA
:107E900065D092F900401378002C03DB01322A6090
:107EA0001846F0BDC12B3BD9DF2B0FD8012856D087
:107EB000507800F0C004802C32D100EB8310A0F584
:107EC00042508142EDD302322A60EAE7EF2B1AD802
:107ED000022844D9547804F0C000802820D1E02B37
:107EE00001D19F2C1CD9907800F0C006802E17D1AC
:107EF000A40104EB03330344A3F5622080388142DC
:107F0000CFD30332E0E7F42B0AD8032827D95478DB
:107F100004F0C000802803D1F02B04D18F2C06D8A8
:107F20004FF0FF30BDE7F42B01D18F2CF8D89678B5
:107F300006F0C0008028F3D1D07800F0C007802F71
:107F4000EED1240304EB834303EB86130344A3F134
:107F50007270A0F502508842A3D80432B4E76FF0E3
:107F600001009EE77F2908D8D0E900329A4242D02A
:107F70005A1C0260197001207047B1F5006F10D2D1
:107F8000D0E90032D21A012A35D95A1C02608A0976
:107F9000403A1A70036801F03F015A1C02608039B0
:107FA000E8E7B1F5803F11D2D0E90032D21A022AB7
:107FB00021D95A1C02600A0B203A1A700268531C1D
:107FC0000360C1F38513803B1370E3E7B1F5881FAD
:107FD00011D2D0E90032D21A032A0CD95A1C0260FD
:107FE0008A0C103A1A700268531C0360C1F30533FF
:107FF000803B1370E2E7002070477F2910B508D856
:10800000D0E900329A4247D05A1C02601970012010
:1080100010BDB1F5006F0FD2D0E90032D21A012A9B
:108020003AD98C091A46403C02F8024B01F03F0154
:10803000803902605970EAE7B1F5803F12D2D0E989
:108040000032D21A022A27D90A0B203A1A70C1F339
:108050008512803A01F03F015A708039DA1C0260C3
:108060009970D4E7B1F5881F16D2D0E90032D21A40
:10807000032A11D98A0C103A1A70C1F30532803ADA
:108080005A70C1F38512803A01F03F019A7080392D
:108090001A1D0260D970BAE70020B9E7B1F5803F38
:1080A00010B5D0E900430BD2A34222D0D30789B246
:1080B00001D449BA89B2A31C03602180012010BDFC
:1080C0001B1B022B15D98B0AC1F30901A3F5215300
:1080D000A1F5105112F001029BB289B201D15BBA35
:1080E0009BB223800AB949BA89B2231D036061801B
:1080F000E4E70020E3E773B51E46079B0093089B67
:1081000001931446A642254612D02168B1F5881F76
:1081100004F104040ED26846FFF76FFF0028F1D186
:108120000120069B009A1D60099B1A6002B070BD79
:108130000020F6E70220F4E730B585B0CDE9002352
:10814000099B0293144D0A9B0393DDE90123009CD4
:10815000A24215D0039A9A4212D029466846FFF7E8
:1081600092FE831C014609D0B0F5881F11D201226E
:1081700002A8FFF793FF0028E7D10094012000E058
:108180000020089B009A1A600B9B029A1A6005B0A7
:1081900030BD0220F5E700BFFFFF10008B070CD5B4
:1081A000D0E90032D21A022A09D9064A11889278F7
:1081B00019809A7003680333036001207047002020
:1081C000704700BF486D0D002DE9F0410E46044692
:1081D00019463046069D1746FFF7E0FF78B3D4E90D
:1081E00000329A422ED01988A1F55840B0F5806F20
:1081F0001DD2012D28D0D21A022A23D95B88A3F5DB
:108200005C42B2F5806F1FD2A3F15773A3F57733A9
:1082100003EB81214FF002088F4215D33046FFF760
:10822000A1FE60B1236803EB48032360D7E7A1F503
:108230005C43B3F5806F07D34FF00108ECE70120F2
:10824000BDE8F0810020FBE70220F9E77FB5CDE92A
:108250000223099B04930A9B059300230093074A7A
:1082600004A902A8FFF7B0FF089B029A1A600B9BB3
:10827000049A1A6007B05DF804FB00BFFFFF10000E
:1082800070B50D460446194628461646FFF786FF88
:1082900070B1D4E900329A420CD019688E420BD3E7
:1082A0002846FFF75FFE18B1236804332360F0E728
:1082B000012070BD0020FCE70220FAE71FB5CDE9E0
:1082C0000023079B0293089B0393074A002302A9FC
:1082D0006846FFF7D5FF069B009A1A60099B029A31
:1082E0001A6005B05DF804FBFFFF100038B54B07BE
:1082F00004460CD5D0E900535B1B022B07D9044977
:108300000322284618F014FE08B90335256038BD4D
:10831000186E0D0070B50C46194605461646FFF757
:10832000E5FFD5E900239A4212D0D4E900329A42FF
:1083300001D1012070BD31462846FFF735FD831C71
:10834000F7D0864206D323681A1D22601860E8E73A
:108350000020EFE70220EDE71FB5CDE90023079BE2
:108360000293089B0393074A002302A96846FFF77C
:10837000D1FF069B009A1A60099B029A1A6005B009
:108380005DF804FBFFFF100037B5CDE9000168463A
:108390009DF8181014461D46FFF7A8FF002044B1B1
:1083A000A84204F1FF3404D829466846FFF7FCFCD4
:1083B000F5E7009803B030BD13B514461946002305
:1083C0000093049A034B2046FFF7DEFF001B02B028
:1083D00010BD00BFFFFF10002DE9F8430D46194600
:1083E000044617461E46FFF781FFD4E90098C145B1
:1083F0001BD0D5E900329A4217D039462046FFF704
:10840000D3FC831C014604D108980130C0B2BDE8FA
:10841000F88387420BD332462846FFF73FFE0028F9
:10842000E3D1C4E900980120F1E70020EFE7022042
:10843000EDE700007FB5CDE90223099B04930A9B79
:10844000059300230093074A012304A902A8FFF71C
:10845000C3FF089B029A1A600B9B049A1A6007B02C
:108460005DF804FBFFFF1000F7B5CDE900019DF8B2
:108470002010684616461C46FFF738FF00256F1C83
:10848000B7420ED221466846FFF78EFCA04202D9C1
:10849000009803B0F0BDB0F5803F28BF3D460135E0
:1084A000EDE7F5D14FF6FF734FF6FE718C4294BFA6
:1084B000214619466846FFF777FCE9E713B51446ED
:1084C000194600230093049A034B2046FFF7CCFF84
:1084D000001B02B010BD00BFFFFF100073B51D46AA
:1084E000079B0093089B01931446A54225D0218841
:1084F000A1F55843B3F5806F15D22B1B022B1CD965
:108500006288A2F55C43B3F5806F1ED2A2F1577268
:10851000A2F5773202EB812102266846FFF76DFD56
:1085200040B901200AE0A1F55C43B3F5806F0CD39C
:108530000126F2E704EB4604D7E70020069B009AE9
:108540001C60099B1A6002B070BD0220F6E70000B3
:1085500037B5DDE90745CDE900230F49DDE90032F4
:108560009A4214D0A54207D10120069B009A1A60B6
:10857000099B1C6003B030BD6846FFF784FC831C78
:10858000F2D0B0F5881F04D244F8040BE6E70020CF
:10859000EBE70220E9E700BFFFFF100037B5CDE9A8
:1085A0000023069D08491446002045B1B0F5881FF8
:1085B00005F1FF3503D26846FFF765FCF5E7009843
:1085C000001B03B030BD00BFFFFF1000F7B5CDE9C1
:1085D0000023089E0E4915460024671CBE420FD991
:1085E0006846FFF750FCB0F5881F03D30098401B86
:1085F00003B0F0BDB0F5803F28BF3C460134ECE746
:10860000F4D14FF6FF716846FFF73DFCEEE700BF7F
:10861000FFFF100010B5034B03600446FDF7E8FFB1
:10862000204610BDF46D0D0010B50446FFF7F2FFB3
:108630002046FBF734FD204610BD000010B5034B6B
:1086400003600446FDF7D4FF204610BD706D0D0099
:1086500010B50446FFF7F2FF2046FBF720FD204649
:1086600010BD000010B5034B03600446FDF7C0FFCA
:10867000204610BD9C6D0D0010B50446FFF7F2FFBB
:108680002046FBF70CFD204610BD000010B5034B43
:1086900003600446FDF7ACFF204610BDC86D0D0019
:1086A00010B50446FFF7F2FF2046FBF7F8FC204622
:1086B00010BD00002DE9F04F89B00B6801934B68A5
:1086C000A94F02938B680393A84B3B600125019B44
:1086D0007D6004460E46BB6000213846FFF7CCF9AA
:1086E0007B68D4F80480DFF818B3DFF818A32B44B4
:1086F0007B609F4B1846FEF719F848F820709D4F95
:108700009D4A7D603A60FDF795FF7A68D4F8048051
:10871000B8602A447A609948FEF708F848F8207053
:10872000974F984A029B3A600022BB6011467D60D9
:108730003846FEF74DFF7A68D4F804802A447A6000
:108740005846FDF7F3FF48F820708F4F8F4A039B80
:108750003A600022BB6011467D603846FEF7F4FEA9
:108760007A68D4F804802A447A605046FDF7DEFF28
:1087700048F82070DFF89082854AD4F80490C8F851
:1087800000200227C8F804708248FDF7CFFF49F89F
:108790002080DFF87882804AD4F80490C8F800205E
:1087A000C8F804707D48FDF7C1FF49F82080DFF864
:1087B00060827B4AD4F80490C8F80020C8F804709E
:1087C0007848FDF7B3FF49F82080DFF84882294652
:1087D00040460AF0EFF8D8F80420D4F80490724824
:1087E0002A44C8F80420FDF7A1FF49F82080F36867
:1087F00004933369059373696C4E6D4A0693049B29
:10880000B3600021756032603046FFF79DF97268F1
:10881000DFF80492D4F804802A4472604846FDF7D9
:1088200085FF48F82060634E634A75603260FDF74B
:1088300001FF7268D4F80480B0602A4472605F4817
:10884000FDF774FF48F820605D4E5E4A059B32607C
:108850000022B360756011463046FEF779FF7268FA
:10886000DFF8B881616807912A4472604046FDF7DD
:108870005DFF0799544A41F82060544E069B3260D0
:108880000022B360756011463046FEF719FF72682A
:10889000616807912A4472604D4A1046FDF746FF11
:1088A000079941F820604B4E4B4931604B48616855
:1088B00077600791FDF73AFF079941F82060484E2D
:1088C000484931604848616877600791FDF72EFF9D
:1088D000079941F82060454E454931604548616837
:1088E00077600791FDF722FF079941F82060424E1B
:1088F0002946304610F062FA716865683F480131D8
:108900007160FDF713FF1A4B45F820601846E568C3
:10891000FDF70CFF019B45F820305846E568FDF750
:1089200005FF029B45F820305046E568FDF7FEFE46
:10893000039B45F820304846E568FDF7F7FE049BA9
:1089400045F820304046E568FDF7F0FE204A059BDB
:1089500045F820301046E468FDF7E8FE069B44F831
:10896000203009B0BDE8F08FB8DE0320EC8B0D009D
:1089700040E0032030DF0320D08B0D0024E00320F3
:1089800000DF0320D08C0D000CDF03209C8C0D0039
:108990004C8D0D0048E00320648D0D0044E0032061
:1089A000908D0D002CE0032028E00320C4DE03207E
:1089B000E4930D003CDF032088930D0084E0032046
:1089C00018DF0320C8940D0094940D0024DF0320C9
:1089D000ACE00320E8DE032044950D00A8E003206E
:1089E000F8DE03205C950D00A4E00320D8DE032010
:1089F00088950D008CE00320A8DE032088E003208A
:108A000050E003204CE00320E0DE0320F0DE0320F2
:108A1000D0DE032098DE0320A0E00320B0E0032096
:108A200001F04CBD02F0F6B8F8B50B6853F80C5CD9
:108A30000746681C0E46FBF730FB00230446014640
:108A40002A46304601F070FC002363553C602846FE
:108A5000F8BDF8B50B6853F80C5C6FF060426B1C06
:108A60009342074634BF98004FF0FF300E46FBF7A5
:108A700014FB0023044601462A46304602F00EF855
:108A8000002344F825303C602846F8BD13B5049C0B
:108A9000CDE9003413460A46C1684FF0000005F0E6
:108AA00048FD02B010BD30B58BB00D460AA901E9F2
:108AB0000C0079230693129B0593119B0493109B42
:108AC00003930EAA044692E8030001AB83E8030077
:108AD000099B00932046089BAA684FF0000105F00F
:108AE000D0FE20460BB030BD30B58BB00D460AA984
:108AF00001E90C006D230693129B0593119B0493CF
:108B0000109B03930EAA044692E8030001AB83E88E
:108B10000300099B00932046089BAA684FF00001C0
:108B200005F0AFFE20460BB030BD30B58BB00D4622
:108B30000AA901E90C0077230693129B0593119B68
:108B40000493109B03930EAA044692E8030001AB22
:108B500083E80300099B00932046089BAA684FF016
:108B6000000105F08EFE20460BB030BD30B58BB055
:108B70000D460AA901E90C0064230693129B059394
:108B8000119B0493109B03930EAA044692E80300E2
:108B900001AB83E80300099B00932046089BAA6869
:108BA0004FF0000105F06DFE20460BB030BD30B532
:108BB0008BB00D460AA901E90C0074230693129BA1
:108BC0000593119B0493109B03930EAA044692E80D
:108BD000030001AB83E80300099B00932046089B38
:108BE000AA684FF0000105F04CFE20460BB030BDE6
:108BF00081684FF0000005F03EBEF0B591B00AACC0
:108C000084E80C00002307930D930EAB06930DAB85
:108C10000593199B04939DF86030039316AA0F46A1
:108C2000054692E8030001AB83E803000B9B009329
:108C300008AE0A9BBA684FF00001304606F013FAFE
:108C400096E803000D9B84E803005BB9DDE90E01A3
:108C50001B9BC3E9000194E8030085E80300284654
:108C600011B0F0BD1A9A1360F5E710B588B00DF198
:108C7000200C0CE90C00002304939DF83030039382
:108C80000B9B02939DF828300193079B009313469A
:108C90008A684FF00001044606F0FCF8204608B050
:108CA00010BD0A4601694FF0000005F0DCBD07B5B4
:108CB0000968009251F80C3C0A4601694FF0000027
:108CC00005F0A5FD03B05DF804FB13B5049CCDE9E8
:108CD000003413460A46C1684FF0000005F034FC2A
:108CE00002B010BD30B58BB00D460AA901E90C00E9
:108CF00079230693129B0593119B0493109B039376
:108D00000EAA044692E8030001AB83E80300099B26
:108D100000932046089BAA684FF0000105F00BFE67
:108D200020460BB030BD30B58BB00D460AA901E925
:108D30000C006D230693129B0593119B0493109BCB
:108D400003930EAA044692E8030001AB83E80300F4
:108D5000099B00932046089BAA684FF0000105F08C
:108D6000EAFD20460BB030BD30B58BB00D460AA9E8
:108D700001E90C0077230693129B0593119B049342
:108D8000109B03930EAA044692E8030001AB83E80C
:108D90000300099B00932046089BAA684FF000013E
:108DA00005F0C9FD20460BB030BD30B58BB00D4687
:108DB0000AA901E90C0064230693129B0593119BF9
:108DC0000493109B03930EAA044692E8030001ABA0
:108DD00083E80300099B00932046089BAA684FF094
:108DE000000105F0A8FD20460BB030BD30B58BB0BA
:108DF0000D460AA901E90C0074230693129B059302
:108E0000119B0493109B03930EAA044692E803005F
:108E100001AB83E80300099B00932046089BAA68E6
:108E20004FF0000105F087FD20460BB030BD816892
:108E30004FF0000005F022BDF0B591B00AAC84E817
:108E40000C00002307930D930EAB06930DAB059317
:108E5000199B04939DF86030039316AA0F460546AC
:108E600092E8030001AB83E803000B9B009308AE7C
:108E70000A9BBA684FF00001304606F090FA96E877
:108E800003000D9B84E803005BB9DDE90E011B9B29
:108E9000C3E9000194E8030085E80300284611B007
:108EA000F0BD1A9A1360F5E710B588B00DF1200CEB
:108EB0000CE90C00002304930C9B03930B9B02937F
:108EC0009DF828300193079B009313468A684FF062
:108ED0000001044606F07AF9204608B010BD0A46A3
:108EE00001694FF0000005F0C2BC07B509680092A7
:108EF00051F80C3C0A4601694FF0000005F09DFC5A
:108F000003B05DF804FB10B50446006843685A1EC0
:108F1000012B426002D103685B689847204610BD70
:108F200010B5074B0360036900220446DA600C3079
:108F3000FFF7E9FF2046FEF7EDFD204610BD00BF1C
:108F4000F4760D0010B50446FFF7EAFF2046FBF764
:108F5000A6F8204610BD000010B5084B0360036959
:108F600000220446DA609A611A629A620C30FFF7B6
:108F7000CAFF2046FEF770FB204610BD20780D008A
:108F800010B50446FFF7E8FF2046FBF788F82046B7
:108F900010BD000010B5084B0360036900220446B1
:108FA000DA609A611A629A620C30FFF7ACFF2046D1
:108FB000FEF76CFB204610BDEC770D0010B50446A3
:108FC000FFF7E8FF2046FBF76AF8204610BD0000D7
:108FD00010B5054B044640F8103BFFF794FF2046C0
:108FE00009F070F9204610BDBC760D0010B504469E
:108FF000FFF7EEFF2046FBF752F8204610BD0000B9
:1090000010B5074B0360036900220446DA600C3098
:10901000FFF779FF2046FEF7E5FD204610BD00BFB3
:1090200018770D0010B50446FFF7EAFF2046FBF75E
:1090300036F8204610BD000010B5084B03600369E8
:1090400000220446DA601A629A621A630C30FFF753
:109050005AFF2046FEF7C4FB204610BD88780D005D
:1090600010B50446FFF7E8FF2046FBF718F8204646
:1090700010BD000010B5084B0360036900220446D0
:10908000DA601A629A621A630C30FFF73CFF2046DE
:10909000FEF7C0FB204610BD54780D0010B5044605
:1090A000FFF7E8FF2046FAF7FAFF204610BD000060
:1090B00010B5054B044640F8103BFFF724FF20464F
:1090C0000FF0DCFA204610BDD8760D0010B504462E
:1090D000FFF7EEFF2046FAF7E2FF204610BD000042
:1090E00010B5054B044640F80C3BFFF70CFF20463B
:1090F00009F000F9204610BD84760D0010B5044635
:10910000FFF7EEFF2046FAF7CAFF204610BD000029
:1091100010B5054B044640F8083BFFF7F4FE204627
:1091200009F04AF8204610BD8C770D0010B50446B2
:10913000FFF7EEFF2046FAF7B2FF204610BD000011
:1091400010B5054B044640F8083BFFF7DCFE20460F
:1091500009F03CF8204610BDBC770D0010B5044660
:10916000FFF7EEFF2046FAF79AFF204610BD0000F9
:1091700010B5054B044640F80C3BFFF7C4FE2046F3
:109180000FF094FA204610BDA0760D0010B50446ED
:10919000FFF7EEFF2046FAF782FF204610BD0000E1
:1091A00010B5054B044640F8083BFFF7ACFE2046DF
:1091B0000FF0DEF9204610BDA4770D0010B504466F
:1091C000FFF7EEFF2046FAF76AFF204610BD0000C9
:1091D00010B5054B044640F8083BFFF794FE2046C7
:1091E0000FF0D0F9204610BDD4770D0010B504461D
:1091F000FFF7EEFF2046FAF752FF204610BD0000B1
:1092000010B5054B044640F8083BFFF77CFE2046AE
:1092100009F00EF8204610BD3C770D0010B504464D
:10922000FFF7EEFF2046FAF73AFF204610BD000098
:1092300010B5054B044640F8083BFFF764FE204696
:109240000FF0D2F9204610BD64770D0010B504462A
:10925000FFF7EEFF2046FAF722FF204610BD836994
:1092600010B5044603B19847204610BD37B50846EF
:1092700014460D4609F068FA84F82400284609F0DF
:1092800066FA0023A3606361E361012384F864301C
:1092900084F82500294601A809F05CFA01A904F127
:1092A0000800FFF7C1FBE06001A801F007F92946BB
:1092B00001A809F056FA01A904F11400FFF7B4FB64
:1092C000A06101A801F0FAF8294601A809F050FAB6
:1092D00001A904F11C00FFF7A7FB206201A801F01F
:1092E000EDF803B030BD37B5084614460D460FF013
:1092F0002FFC606228460FF02EFC0023A360636100
:10930000E361012384F82431A062294601A80FF00B
:1093100025FC01A904F10800FFF786FBE06001A825
:1093200001F0CCF8294601A80FF01FFC01A904F1B7
:109330001400FFF78EFBA06101A801F06BFC294629
:1093400001A80FF019FC01A904F11C00FFF781FB33
:10935000206201A801F05EFC03B030BD10B40846E5
:1093600011461A46DDE9013401945DF8044B09F019
:1093700043BB10B4084611461A46DDE90134019496
:109380005DF8044B0FF03CBD37B5084614460D465A
:1093900009F02BF96074284609F02AF9A0742846D0
:1093A00009F045F90023A3606361E361636201236F
:1093B00084F84330E062294601A809F01CF901A9AC
:1093C00004F10800FFF730FBE06001A801F076F837
:1093D000294601A809F016F901A904F11400FFF7C4
:1093E00023FBA06101A801F069F8294601A809F052
:1093F00010F901A904F11C00FFF716FB206201A877
:1094000001F05CF8294601A809F00AF901A904F164
:109410002400FFF709FBA06201A801F04FF82846DD
:1094200009F008F92063284609F009F9606303B0E0
:1094300030BD37B5084614460D4609F0A7F86074EC
:10944000284609F0A6F8A074284609F0C1F80023C0
:10945000A3606361E3616362012384F84330E062E7
:10946000294601A809F098F801A904F10800FFF7BE
:10947000DBFAE06001A801F021F8294601A809F013
:1094800092F801A904F11400FFF7CEFAA06101A837
:1094900001F014F8294601A809F08CF801A904F19B
:1094A0001C00FFF7C1FA206201A801F007F8294665
:1094B00001A809F086F801A904F12400FFF7B4FA25
:1094C000A06201A800F0FAFF284609F084F82063A2
:1094D000284609F085F8606303B030BD37B508460B
:1094E00014460D460FF085FA606128460FF084FAA5
:1094F000A06128460FF09FFA0023A360E361636236
:10950000E362012384F86C306063294601A80FF000
:1095100076FA01A904F10800FFF786FAE06001A8D5
:1095200000F0CCFF294601A80FF070FA01A904F160
:109530001C00FFF78EFA206201A801F06BFB2946A0
:1095400001A80FF06AFA01A904F12400FFF781FADB
:10955000A06201A801F05EFB294601A80FF064FAA1
:1095600001A904F12C00FFF774FA206301A801F0AF
:1095700051FB28460FF062FAA06328460FF063FA09
:10958000E06303B030BD37B5084614460D460FF012
:1095900001FA606128460FF000FAA06128460FF03A
:1095A0001BFA0023A360E3616362E362012384F892
:1095B0006C306063294601A80FF0F2F901A904F1AB
:1095C0000800FFF731FAE06001A800F077FF2946B4
:1095D00001A80FF0ECF901A904F11C00FFF739FA1A
:1095E000206201A801F016FB294601A80FF0E6F958
:1095F00001A904F12400FFF72CFAA06201A801F0F0
:1096000009FB294601A80FF0E0F901A904F12C009B
:10961000FFF71FFA206301A801F0FCFA28460FF0BB
:10962000DEF9A06328460FF0DFF9E06303B030BD38
:1096300013B50C4601A811461A466B4601F09AF97B
:10964000049A01A9204609F0C5F9044601A800F0D2
:1096500035FF204602B010BD13B50C4601A81146D7
:109660001A466B4601F086F9049A01A920460FF0CC
:10967000B5FB044601A800F021FF204602B010BD52
:109680000846114609F0B5B9084611460FF0B5BBBA
:10969000084609F000B908460FF001BB82B0F0B5EA
:1096A00087B005469DF850700D93742F1646139899
:1096B000DDE911210FAC0DAB1ED00ED8642F2DD0DB
:1096C000CDE90310029294E803008DE803003146CF
:1096D0000CCB284609F036F91AE0772F2BD0CDE9CC
:1096E0000310029294E803008DE8030031460CCB8E
:1096F000284609F043F90BE0CDE90310029294E803
:1097000003008DE8030031460CCB284609F0C6F86B
:10971000284607B0BDE8F04002B07047CDE903101D
:10972000029294E803008DE8030031460CCB2846F2
:1097300009F0D0F8ECE7CDE90310029294E80300B9
:109740008DE8030031460CCB284609F0DFF8DFE74F
:1097500082B0F0B587B005469DF850700D93742F18
:1097600016461398DDE911210FAC0DAB1ED00ED8B3
:10977000642F2DD0CDE90310029294E803008DE808
:10978000030031460CCB28460FF0E0FA1AE0772FA1
:109790002BD0CDE90310029294E803008DE803007A
:1097A00031460CCB28460FF0EDFA0BE0CDE9031063
:1097B000029294E803008DE8030031460CCB284662
:1097C0000FF070FA284607B0BDE8F04002B07047CD
:1097D000CDE90310029294E803008DE803003146BE
:1097E0000CCB28460FF07AFAECE7CDE90310029291
:1097F00094E803008DE8030031460CCB28460FF0B7
:1098000089FADFE7F8B5AF4A0C466FF00103AE49BD
:10981000054614F013FD064610B104682046F8BD55
:10982000AA4B9C4229D16820FAF735FCA84B466028
:109830000746C0E90266C0E90566C0E9076603603D
:109840000674868480F864601420FAF724FCA14B27
:1098500046600360876031460446FEF70DF96B6889
:10986000E56001336B609C4B236027613A462946D3
:109870004FF0000004F0E3FDD0E7984B9C4210D17C
:109880001020FAF708FC964B036046600446FCF78C
:10989000D1FE6B68C4E9020501336B60914B236014
:1098A000BCE7914B9C420AD10C20FAF7F4FB6B68A1
:1098B00001336B60C0E901658C4B0446EFE78C4BCC
:1098C0009C420AD10C20FAF7E6FB6B6801336B600F
:1098D000C0E90165874B0446E1E7874B9C420AD10A
:1098E0000C20FAF7D8FB6B6801336B60C0E90165A7
:1098F000824B0446D3E7824B9C422FD14420FAF797
:10990000CAFB804B06820746C0E90036C0E9026602
:10991000C0E90566C0E90766C0E90966C0E90B66EB
:109920008674466380F843601420FAF7B4FB764BE4
:10993000466003608760324631460446FDF704FE08
:109940006B68E56001336B60704B236027613A46BA
:1099500029464FF0000004F002FE5FE76C4B9C428A
:109960002FD14420FAF797FB6A4B06820746C0E9DD
:109970000036C0E90266C0E90566C0E90766C0E9CD
:109980000966C0E90B668674466380F8436014205C
:10999000FAF781FB604B46600360876032463146D0
:1099A0000446FDF715FE6B68E56001336B605B4BA9
:1099B000236027613A4629464FF0000004F025FE57
:1099C0002CE7574B9C420CD11420FAF764FB31462C
:1099D000044608F0EFFF6B68256101336B60514B63
:1099E0005DE7514B9C422CD14FF49470FAF753FB36
:1099F00000274E4B47600646C0E90277C0E905776D
:109A0000C0E90777C0E909770360077480F824711B
:109A10001420FAF740FB464B4760036086603946E6
:109A20000446FEF791F86B68E56001336B60414BCB
:109A300023602661324629464FF0000004F03DFDC8
:109A4000ECE63D4B9C4210D11020FAF724FB00239A
:109A500043603A4B03600446FCF7ECFD6B6801334E
:109A60006B60C4E90205364B19E7364B9C420BD1BB
:109A70000C20FAF710FB0023C0E901356B680133B5
:109A80006B600446304B0AE7304B9C420BD10C20F4
:109A9000FAF701FB0023C0E901356B6801336B6005
:109AA00004462B4BFBE62B4B9C4257D10C20FAF77C
:109AB000F2FA0023C0E901356B6801336B6004469C
:109AC000254BECE608710D000C6C0D0040E0032006
:109AD000306D0D00EC8B0D00F4760D0024E00320BA
