:02000002B0004C
:1040000000400B0088640B00000006000C00050255
:084010000401A30F00000000F1
:0440180020600B0019
:10401C0009480A49884208B505D0094A824202D0AB
:10402C00121A01F012FF0748074A0021121A01F078
:10403C001AFF014808BD00BFE8E50320E8630B0048
:10404C0060E6032060E60320EDE7032070B5074E21
:10405C00074C01F0BDF8A41BA4080025AC4200D10C
:10406C0070BD56F8043B98470135F7E794630B0095
:10407C00B8630B0000F016B808B500F09FF8BDE867
:10408C00084001F05DB800F0A1BD00F09FBD00F04C
:10409C00A5BD0078B0FA80F0400970470123037089
:1040AC0070470000F0B589B001F038FC4FF4E131F5
:1040BC0001F022FC01F032FC01F025FC18B90A20B9
:1040CC0001F012F8F6E73648354E364D364F00F013
:1040DC0049FB304600F0C4FA044658BB01F01EFC04
:1040EC00294600F0C6FF294604A800F01FFF3B78C4
:1040FC008DF80030049A2D493C2302A801F0C6F932
:10410C00039C7CB16368013B63605BB92368204608
:10411C009B689847A368013BA3601BB923682046A2
:10412C00DB68984704A800F0A1FE4FF47A7000F009
:10413C00DBFFCEE701F0F2FB1D4900F087FF01F039
:10414C00EDFB1022210E054600F09DFF284600F0E5
:10415C0084FF01F0E3FB174900F078FF01F0DEFB70
:10416C000A22C4F3074100F08EFF01F0D7FB2E2189
:10417C0000F070FF01F0D2FBC4F307210A220546C0
:10418C0000F081FF284600F068FF054800F096FA21
:10419C0001F0C4FB084909B0BDE8F04000F069BF6C
:1041AC0061E6032034600B0060E603203D600B00E9
:1041BC0043600B0052600B0061600B0030B5284B64
:1041CC0085B018689A889B790290ADF80C208DF810
:1041DC000E30002123488DF807100DF1070302AAB9
:1041EC0000F08AFA002839D001F098FB1E4900F043
:1041FC0040FF01F093FB1D4900F028FF01F08EFBFE
:10420C000A229DF8071000F03EFF01F087FB1849C9
:10421C0000F02FFF01F082FB164900F017FF9DF80C
:10422C00071002A800F072F89DF80730042B10D18B
:10423C0002990DBA01F072FB0F4900F007FF01F073
:10424C006DFB0A220446294600F01DFF204600F0B3
:10425C0004FF01F063FB094900F00BFF05B030BD12
:10426C00D5600B0061E6032083600B009B600B00A4
:10427C00AA600B00B1600B00BF600B0060600B000C
:10428C0007B5074B074800221A700E2300930B2228
:10429C000C230D2100F032F803B05DF804FB00BFD5
:1042AC0060E6032061E6032070B506460C46154611
:1042BC002AB90368BDE870409B68C9B21847002949
:1042CC000BDA0A2A09D12D2100F0C4FE6142EAB2B0
:1042DC003046BDE8704000F0D6BE2146F7E710B579
:1042EC0004463AB903689B6898472046BDE81040DD
:1042FC0000F0B3BED2B200F0C6FEF6E710B5037103
:10430C009DF80830C1704271837010BD2DE9F843DF
:10431C00184FDFF86880DFF868900D46441E0026C1
:10432C00AE421FD001F0FAFA394600F08FFE6378E6
:10433C000F2B04D801F0F2FA414600F087FE01F091
:10434C00EDFA14F8011F102200F09DFE012D07D983
:10435C006B1EB34204D001F0E1FA494600F076FE40
:10436C000136DDE701F0DAFABDE8F843024900F066
:10437C0080BE00BFE9600B0060600B00DC600B00CE
:10438C005F600B0013B50B4C2178BFF35B8F11F002
:10439C0001010BD120460191FFF77BFE019928B159
:1043AC00054800F097FC2046FFF778FE024802B063
:1043BC0010BD00BF78E603207CE6032007B5019012
:1043CC00FFF7E0FF019903B05DF804EB00F036BD98
:1043DC005520FFF7F3BF38B500210446807801F073
:1043EC0095FC022000F080FE0220FFF7E7FF20463C
:1043FC00FFF7EEFF01210546A07801F087FC284667
:10440C0038BD0000F8B5054616460C4601F086FA94
:10441C001749184F00F01AFE0021A87801F076FC1D
:10442C00022000F061FE0320FFF7C8FF2644B442CF
:10443C0013D0012000F058FE2846FFF7C9FF20706A
:10444C0001F06CFA394600F001FE01F067FA14F83D
:10445C00011B102200F017FEE9E7A878012101F0FA
:10446C0055FC01F05BFABDE8F84000F0F6BD00BF6A
:10447C00DE600B00E8600B0007B506226946FFF70B
:10448C00C1FF05490622684601F049FDB0FA80F0EB
:10449C00400903B05DF804FBE8E503202DE9F04783
:1044AC0007461446551C884601F038FA5449DFF883
:1044BC00549100F0CBFD0021B87801F027FC0220CC
:1044CC0000F012FE0120FFF779FF0020FFF776FFC6
:1044DC000020FFF773FFEDB2FF20FFF76FFF2846B8
:1044EC00FFF76CFFE043C0B2FFF768FFD420FFF783
:1044FC0065FF01F013FA434900F0A8FD01F00EFA34
:10450C0010220021FFF7D0FE01F008FA3D4900F01F
:10451C009DFD01F003FA10220021FFF7C5FE01F00A
:10452C00FDF9384900F092FD01F0F8F91022FF2155
:10453C00FFF7BAFE01F0F2F9324900F087FD01F005
:10454C00EDF91022294600F09EFD01F0E7F92D4906
:10455C0000F07CFD01F0E2F910226942FFF7A4FEA5
:10456C0001F0DCF9274900F071FD01F0D7F91022B8
:10457C00D421FFF799FE0024D326013D04F1010A52
:10458C00E4B2AC4215DA18F80400FFF717FF18F87C
:10459C0004301E4401F0C2F9494600F057FD01F009
:1045AC00BDF918F80410102200F06DFDF6B2544657
:1045BC00E4E7F643F0B2FFF701FF0020FFF7FEFE41
:1045CC00B878012101F0A2FB01F0A8F90D4900F027
:1045DC003DFD01F0A3F910223146FFF765FE01F015
:1045EC009DF9084900F032FD01F098F910220021E4
:1045FC00FFF75AFE01F092F9BDE8F04700F02DBD2F
:10460C00EC600B00E8600B00F8B507461C46FFF7A2
:10461C0045FF00253846FFF7DEFE012808D01CB107
:10462C000A35ADB2AC4217D30A2000F05DFDF1E7BC
:10463C003846FFF721FF054670B100263846FFF7D4
:10464C00CAFE012809D01CB10A36B6B2B44203D353
:10465C000A2000F049FDF1E700252846F8BD0000CE
:10466C0070B5124D02232B7001224FF47A73294638
:10467C000646FFF7C9FF30B901F050F90C4900F0BC
:10468C00F8FC002070BD0C2229463046FFF7BAFE1C
:10469C0008490622284601F042FC18B101F03EF907
:1046AC000549ECE7D5F8060000BAEBE784E60320F1
:1046BC00F7600B00EEE5032019610B0038B50D4CCB
:1046CC001422012322706370A270E37004224FF451
:1046DC007A7321460546FFF797FF48B12846082212
:1046EC002146FFF78FFE6079A0F11503584258411F
:1046FC0038BD00BF84E603202DE9F041174C1F465E
:10470C004A23237001236370A17016464FF47A7309
:10471C00032221468046FFF777FF054638B901F0A2
:10472C00FDF80F4900F0A5FC2846BDE8F0811422E5
:10473C0021464046FFF766FEE379012B0BD1237B24
:10474C003B700023227BD9B28A42EDD96218013327
:10475C00527B7254F6E70025E6E700BF84E603209F
:10476C0031610B0013B50446FFF70CFE182100F065
:10477C003FFBFFF707FE002100F0DEFAFFF702FE19
:10478C00002100F0C5FAA1780191FFF7FBFD01991A
:10479C0000F0AAFA01F0C2F8104900F057FC01F041
:1047AC00BDF80A22A178FFF79AFDA078002101F04C
:1047BC00ADFA4FF47A7000F097FC094902230B70A4
:1047CC0001224FF47A732046FFF71EFFA0780121D7
:1047DC0002B0BDE8104001F099BA00BF41610B0076
:1047EC0084E6032008B5024B1B689B68019308BD47
:1047FC006802030008B5024B1B68DB68019308BD17
:10480C006802030008B5024B1B68DB68019308BD06
:10481C002C02030008B5024B1B681B69019308BDF1
:10482C002C02030008B5024B1B685B68019308BDA2
:10483C001802030008B5024B1B685B69019308BDA5
:10484C001802030008B5024B1B685B6C019308BD92
:10485C004802030008B5024B1B685B69019308BD55
:10486C006402030008B5024B1B68DB68019308BDAA
:10487C003C02030008B5024B1B681B69019308BD81
:10488C003C02030008B5024B1B685B69019308BD31
:10489C003C02030008B5024B1B689B69019308BDE1
:1048AC003C02030008B5024B1B68DB69019308BD91
:1048BC003C02030008B5024B1B681B6A019308BD40
:1048CC003C02030008B5024B1B689B6A019308BDB0
:1048DC003C02030008B5024B1B681B6C019308BD1E
:1048EC003C02030008B5024B1B681B6A019308BD10
:1048FC002802030008B5024B1B685B6A019308BDD4
:10490C002802030008B5024B1B689B6A019308BD83
:10491C002802030008B5024B1B68DB6A019308BD33
:10492C002802030008B5024B1B681B6B019308BDE2
:10493C002802030008B5024B1B685B6B019308BD92
:10494C002802030008B5024B1B681B6C019308BDC1
:10495C002802030008B5024B1B681B68019308BDB5
:10496C003002030008B5024B1B689B68019308BD1D
:10497C003002030008B5024B1B68DB68019308BDCD
:10498C003002030008B5024B1B681B69019308BD7C
:10499C003002030008B5024B1B685B69019308BD2C
:1049AC003002030008B5024B1B68DB69019308BD9C
:1049BC003002030008B5024B1B681B6A019308BD4B
:1049CC003002030008B5024B1B685B6A019308BDFB
:1049DC003002030008B5024B1B681B6C019308BD29
:1049EC003002030008B5024B1B685B6C019308BDD9
:1049FC003002030008B5024B1B681B68019308BD0D
:104A0C004C02030008B5024B1B685B68019308BDA0
:104A1C004C02030008B5024B1B681B69019308BDCF
:104A2C004C02030008B5024B1B685B69019308BD7F
:104A3C004C02030008B5024B1B689B69019308BD2F
:104A4C004C02030008B5024B1B68DB69019308BDDF
:104A5C004C02030008B5024B1B681B6A019308BD8E
:104A6C004C02030008B5024B1B685B6A019308BD3E
:104A7C004C02030008B5024B1B685B68019308BD30
:104A8C002002030008B5024B1B685B69019308BD4B
:104A9C002002030008B5024B1B68DB6C019308BDB8
:104AAC002002030008B5024B1B685B6D019308BD27
:104ABC002002030008B5034B1B68D3F88830019320
:104ACC0008BD00002002030008B5034B1B68D3F897
:104ADC009430019308BD00002002030008B5024B7E
:104AEC001B685B68019308BD4002030008B5024BCC
:104AFC001B689B68019308BD4002030008B5024B7C
:104B0C001B68DB68019308BD4002030008B5024B2B
:104B1C001B681B69019308BD4002030008B5024BDA
:104B2C001B685B69019308BD4002030008B5024B8A
:104B3C001B689B69019308BD4002030008B5024B3A
:104B4C001B68DB69019308BD4002030008B5024BEA
:104B5C001B681B6A019308BD4002030008B5024B99
:104B6C001B681B6B019308BD4002030008B5024B88
:104B7C001B685B6B019308BD4002030008B5024B38
:104B8C001B681B6C019308BD4002030008B5024B67
:104B9C001B685B6C019308BD4002030008B5024B17
:104BAC001B685B69019308BD4402030008B5024B06
:104BBC001B681B6A019308BD4402030008B5024B35
:104BCC001B68DB6B019308BD4402030008B5024B64
:104BDC001B681B68019308BD1C02030008B5024B3F
:104BEC001B685B68019308BD1C02030008B5024BEF
:104BFC001B689B68019308BD1C02030008B5024B9F
:104C0C001B685B6A019308BD1C02030008B5024BCC
:104C1C001B68DB6A019308BD1C02030008B5024B3C
:104C2C001B681B6B019308BD1C02030008B5024BEB
:104C3C001B681B6C019308BD1C02030008B5024BDA
:104C4C001B685B6C019308BD1C02030000224068CA
:104C5C001146FFF77BBF002240681146FFF786BF65
:104C6C0040680022FFF77ABF4068002281F0010102
:104C7C00FFF764BF002340681A461946FFF756BF7A
:104C8C00002340681A461946FFF748BF00224068C7
:104C9C001146FFF73BBF002240681146FFF726BFC5
:104CAC00406800220221FFF729BF002340681A4602
:104CBC00FFF714BF024B03225A60024A1A60704776
:104CCC00C4E6032070610B000021FFF78BBE0021AE
:104CDC00FFF780BE10B5044608462170FFF762FE50
:104CEC0000236360204610BD13B504460078019183
:104CFC00FFF7EDFF019948B920780190FFF72AFEE4
:104D0C00019802B0BDE81040FFF7DEBF02B010BD45
:104D1C0013B5044600780191FFF7D9FF019948B902
:104D2C0020780190FFF71EFE019802B0BDE81040FC
:104D3C00FFF7CABF02B010BD13B50446007801914D
:104D4C00FFF7C5FF019948B920780190FFF712FED3
:104D5C00019802B0BDE81040FFF7B6BF02B010BD1D
:104D6C00400830B51860002418688842E5B206D9AE
:104D7C000134082C02D040081860F5E70725024BD7
:104D8C005B5D137030BD00BFA4610B002DE9F041D9
:104D9C0088B000230446007802930E461746FFF7AE
:104DAC0096FF054600BB94F800800146142203A828
:104DBC0001F059F80B232A4603A94046ADF80C30F4
:104DCC00FFF700FE04988DF8075002AB0DF10702B7
:104DDC0007FB06F1FFF7C4FF20789DF80710FFF7DB
:104DEC00D1FD2078FFF770FF029808B0BDE8F08184
:104DFC0038B5044600780D46FFF769FF0346D0B975
:104E0C00616899B10C4A12F8010B854202D001334A
:104E1C00082BF8D10133DBB20122D9402046FFF731
:104E2C00B5FF2078BDE83840FFF74EBF2078294603
:104E3C00FFF7A8FDF5E738BDA4610B0008B50078B5
:104E4C00FFF7A8FDC0B208BD054B02221A60054B46
:104E5C00054A9A600020C3E90000FFF70BBE00BFB3
:104E6C00D8E60320CCE603200000FFFF10B5044673
:104E7C000068FFF7B3FE204610BD10B5044600686D
:104E8C0008B1FFF7ABFE0023C4E90133236010BD6A
:104E9C0038B504460D4600680131FFF7A7FE10B186
:104EAC00C4E90005012038BD10B50368044623B1E0
:104EBC0043688B4201D3012010BD2046FFF7E8FF69
:104ECC000028F9D0A368002BF5D122681370F2E703
:104EDC0037B50D46114601920446FFF7E5FF019ADE
:104EEC0028B92046FFF7C9FF204603B030BDA260A9
:104EFC002946206800F0A9FF2268A3680021D1543C
:104F0C00F2E7002313B5C0E9003304468360037352
:104F1C0041B10846019100F0FAFF01990246204682
:104F2C00FFF7D6FF204602B010BD00000EB470B5DE
:104F3C0087B00BAD044655F8042B01922B46052186
:104F4C0004A80395FFF75AFE0B4906462046FFF7C7
:104F5C00D8FF31462046FFF7A7FF206830B1019AF1
:104F6C0003952B46711CFFF749FEA060204607B045
:104F7C00BDE8704003B0704760600B0010B58368EB
:104F8C00044613B1032201469847204610BD10B5C4
:104F9C004368013B0446436063B903689B689847C8
:104FAC00A368013BA3602BB923682046DB68BDE8EE
:104FBC001040184710BD10B50446006808B1FFF743
:104FCC00E6FF204610BD13B50B460246D0E90001A2
:104FDC006C4684E8030093E8030082E8030094E83D
:104FEC00030083E8030002B010BD00000248002358
:104FFC000360FFF727BC00BFDCE60320F8B50646CC
:10500C000D468F180024BD420CD0336815F8011BD7
:10501C009B6830469847031E01DB1C44F3E7002CC9
:10502C0008BF1C462046F8BD13B50446084659B1C6
:10503C00019100F06CFF23680199DB680246204661
:10504C0002B0BDE81040184702B010BD08B5FFF71C
:10505C00EBFF08BD03689B68184738B50D21054662
:10506C00FFF7F8FF0A2104462846FFF7F3FF204418
:10507C0038BD38B50546FFF7D7FF04462846FFF77D
:10508C00ECFF204438BD30B58BB00023012A8DF8DD
:10509C00243098BF0A2209AC0D46B1FBF2F101FB9A
:1050AC00125303F0FF03092B94BF30333733DBB2B9
:1050BC00AA4204F8013DEFD92146FFF7B5FF0BB02A
:1050CC0030BD0000014B024A1A607047E0E6032035
:1050DC00AC610B00024B1A68024B1A60704700BFA0
:1050EC00F4E50320E4E603200021FFF7CBBC00002D
:1050FC00014B00229A607047E8E60320014B1860D0
:10510C00704700BFF8E5032008B50B4B43B100F026
:10511C0005FC03681B699847002801DDAFF300808C
:10512C00064B43B100F026FE03681B699847002824
:10513C0001DDAFF3008008BD00000000000000009E
:10514C0008B5FFF7E1FFFFF775FB014B186008BDD1
:10515C0040E703200548064A064908B5121A00F034
:10516C0074FE054B054A1A6008BD00BF00F403200D
:10517C0004F40320E4630B0000F403201E1C279AA4
:10518C0007B5002300931A466FF07701FFF79CFCDC
:10519C0003B05DF804FB000007B543880A2B08D068
:1051AC00502B0BD1094B1B684BB103B05DF804EBD2
:1051BC001847FFF7E5FF03B05DF804FB00230093ED
:1051CC001A466FF07701FFF77FFCF4E7FCE603204B
:1051DC0010B512480021FFF731FD114B1A68114B25
:1051EC009A42114B0CBF012200221A7001D0FFF71A
:1051FC00B1FFFFF717FB044600F03EFE0B4B13B15B
:10520C002046AFF3008000210848FFF7D7FCBDE82B
:10521C00104007480021FFF74DBC00BF09510B009F
:10522C0000F403201E1C279AF8E60320000000005F
:10523C00A5510B0070470020704710B51021044693
:10524C00FEF725FF204610BD08B5FFF7F6FF08BD99
:10525C0030B500224FF69C74026084808D888C805F
:10526C000C68858004600A6030BD10B50446006887
:10527C00FFF7B4FC204610BD38B5C468F4B12378F0
:10528C00022B03D104F10C00FFF7EFFF656835B179
:10529C002846FFF773FE10212846FEF7F8FEA56896
:1052AC0035B12846FFF76AFE10212846FEF7EFFEBF
:1052BC0020461421BDE83840FEF7E9BE38BD0B6826
:1052CC0003604B68436013B15A6801325A607047EF
:1052DC0037B5044668460D46FFF7F1FF009B019A6F
:1052EC0023606260002301A801930093FFF763FE23
:1052FC0035B1281DFFF75FFE08212846FEF7C7FED3
:10530C00204603B030BD826810B50AB900F094FD98
:10531C00BDE81040C368184708B5006800F11001DB
:10532C00FFF7F1FF08BD826810B50AB900F084FDE3
:10533C00BDE81040C368184708B5006800F11001BB
:10534C00FFF7F1FF08BD000038B5002304460360E9
:10535C0010200D46FEF797FE28B10123C0E901335A
:10536C00024B0360C5602060204638BDD4610B0041
:10537C0038B5002383608B6804460D462BB102229E
:10538C009847EB68E360AB68A360204638BD00002B
:10539C00F0B589B004686846FFF75AFF4FF0020376
:1053AC00D4E84F2F002A03D1C4E8413F0029F7D19C
:1053BC0025D104F10C0569462846FFF749FFBFF3D8
:1053CC005B8F01236370002004F10803BFF35B8F34
:1053DC0053E8006F43E80002002AF9D1BFF35B8F5A
:1053EC006EB1FFF757FB78B129463046FFF78BFFBC
:1053FC003046FFF7C3FD10213046FEF748FE6846E5
:10540C00FFF733FF09B0F0BD314602A8FFF7B0FF3C
:10541C00E068B4F9105008B100F05CFD0690102063
:10542C00ADF81C50FEF72FFE0546E8B1002787604B
:10543C001820FEF728FE044688B10146876002A8B2
:10544C00FFF7C1FD049BA268A360059B049206A90B
:10545C00E268E36004F110000592FFF7F9FE084BD7
:10546C00EB60084B2C60AB6006A8FFF7FEFE02A8B1
:10547C00FFF784FD002229460348FFF713FBB7E72B
:10548C0025530B00A9550B00195A0B002DE9F04FB1
:10549C008BB005469DF850A00F4690469946FFF7F5
:1054AC007DFB07AE834638BB4FF62E73059005A9DE
:1054BC003046ADF81830FFF7CBFE1420FEF7E3FDB5
:1054CC00044648B1022303700123C0E901BB4370B9
:1054DC0031460C30FFF7BCFE2846214640F8044B01
:1054EC00FFF732FF3046FFF7C0FE05A8FFF7BDFE01
:1054FC0028460BB0BDE8F08F0C2300241420CDE916
:10550C0008440793FEF7BFFD014618B1C0E90144FA
:10551C000470447004A80391FFF716FF1E4B089308
:10552C000820FEF7B0FD044610B103A9FFF7C7FE33
:10553C0000965FFA8AF34A46414638460994FFF7CB
:10554C0035FBB8B9039B5B7803F0FF0293B94FF6B8
:10555C009C7305A903A80592ADF81830FFF718FF46
:10556C0005A8FFF782FE05A80999FFF7B1FE06A86A
:10557C00FFF721FD03A905A8FFF7A1FE059B069ADD
:10558C002B606A60002306A806930593FFF713FDB2
:10559C0004A8FFF710FDABE725560B00012AF8B560
:1055AC00054603D10B6803600020F8BD022A10D019
:1055BC00032AF9D10468002CF6D004F11000FFF78F
:1055CC0054FE2046FFF7DAFC18212046FEF75FFD5B
:1055DC00EAE718200E68FEF756FD044650B1314636
:1055EC00FFF7C6FE3069B6F9147008B100F072FC12
:1055FC002061A7822C60D7E738B5002383608B68C5
:10560C0004460D462BB102229847EB68E360AB6869
:10561C00A360204638BD0000F0B589B004460D46A5
:10562C0001A81146FFF754FEA4B124B21DB12846BF
:10563C0000F050FC054601A803A90395ADF81040F5
:10564C00FFF7A6FE03A8FFF710FE02A8FFF7B3FCB6
:10565C0009B0F0BD019D0123D5E84F2F002A03D1DD
:10566C00C5E8413F0029F7D1EFD12B73BFF35B8F16
:10567C006B702B1DBFF35B8F53E8006F43E8004248
:10568C00002AF9D1BFF35B8F002EDED02046FFF746
:10569C0001FA074660B105F10C013046FFF743FEF5
:1056AC003046FFF76BFC10213046FEF7F0FCCCE7E0
:1056BC00314603A8FFF7A0FF2B7B8DF81C30102080
:1056CC00FEF7E1FC0546D0B187601420FEF7DBFC49
:1056DC00044678B18760014603A8FFF774FC059B6C
:1056EC00A268A360069B0592E268E3609DF81C30FB
:1056FC0006922374064BEB60064B2C60AB6003A840
:10570C00FFF73CFC002229460348FFF7CBF9C7E71B
:10571C0045530B0029570B00195A0B00012A70B581
:10572C00044603D10B680360002070BD022A0CD024
:10573C00032AF9D10468002CF6D02046FFF71EFC92
:10574C0014212046FEF7A3FCEEE714200E68FEF7AA
:10575C009AFC054620B13146FFF74EFF337C2B7483
:10576C002560E1E7704710B518210446FEF78FFC61
:10577C00204610BDF0B5037D062B8DB00E4600F112
:10578C0004074FF0000412D000F1080515F8011DB4
:10579C000A223046FFF777FCAF42044419D0002CA4
:1057AC00F4D02E213046FFF755FC0444EEE72F23AE
:1057BC006A4639460A208DF80040FFF74BF86846D8
:1057CC0000F0A5FB33680246DB6869463046984713
:1057DC00044620460DB0F0BD10B5054B0446112211
:1057EC0040F8043B002100F03EFB204610BD00BFFA
:1057FC00F0610B000346074A10B543F8042B01F186
:10580C00100251F8044B43F8044B9142F9D10A7839
:10581C001A7010BDF0610B0010B59DF8084044EAF9
:10582C00032343EA024242EA016104234160037507
:10583C0010BD000007B5064B0360CB7800938B7846
:10584C004A780978FFF7E8FF03B05DF804FB00BF66
:10585C00F0610B00417470477047704708B5002128
:10586C00007CFFF7E7F840EAE07008BD08B50121BD
:10587C00007CFFF7DFF840EAE07008BD08B5007C5B
:10588C00FFF7D0F820EAE07008BD08B5007CFFF700
:10589C00C1F820EAE07008BD13B50446007C019104
:1058AC00FFF7C0F80028019901DC607C20B1207C56
:1058BC00FFF7C8F820EAE07002B010BD007CFFF7DB
:1058CC00C9B810B514210446FEF7E1FB204610BD03
:1058DC0010B54FF47A73044608460021C4E901134D
:1058EC00044B23600123207463741146FFF782F884
:1058FC00204610BD04620B00007C0022FFF782B82A
:10590C00007CFFF7AFB8FFF7FBBF10B514220446BD
:10591C00002100F0A8FA204610BD000010B50F4C75
:10592C0088B003A8FFF7F1FF2178BFF35B8F11F06C
:10593C0001010FD120460191FEF7ABFB019948B153
:10594C0003AA0748FFF7C4FF2046FEF7A7FB05484C
:10595C0000F075FA024808B010BD00BF00E7032044
:10596C0004E7032065580B0070474174704708B575
:10597C00007CFEF7A7FF20EAE07008BD08B5007CAC
:10598C00FEF778FF20EAE07008BD08B5007CFEF752
:10599C0081FF40EAE07008BD08B5007CFEF772FF9D
:1059AC0040EAE07008BD007CFEF77CBF37B5457C53
:1059BC0004462DB1207C03B0BDE83040FEF752BF49
:1059CC00007C0191FEF77EFF00280199F2DC28464D
:1059DC0003B030BD10B514210446FEF758FB204629
:1059EC0010BD000010B54FF47A73044608461146FA
:1059FC000022C4E90123044B236001232074637447
:105A0C00FEF768FF204610BD34620B0010B58368AA
:105A1C0004460BB900F010FAC3689847A3681BB191
:105A2C00032221462046984720461021BDE810400D
:105A3C00FEF72DBB7047F8B5064615460C468F1879
:105A4C00BC4206D0336814F8011B9B68304698475B
:105A5C00F6E72846F8BD007C0022FEF743BF007C29
:105A6C000021FEF747BF007C0021FEF74BBF007CF6
:105A7C000021FEF74FBF007C0021FEF753BF10B58D
:105A8C0014210446FEF703FB204610BD10B54FF45D
:105A9C007A73044608460021C4E90113034B2360C2
:105AAC0020741146FEF74EFF204610BD64620B00B9
:105ABC00002240681146FFF729B8002240681146C1
:105ACC00FFF744B8002240681146FFF74FB8406812
:105ADC000022FFF743B84068002281F00101FFF774
:105AEC002DB8002340681A461946FFF71FB800234B
:105AFC0040681A461946FFF711B800224068114653
:105B0C00FEF7F4BF406800220221FEF7F7BF002326
:105B1C0040681A46FEF7E2BF024B04225A60024A62
:105B2C001A60704718E703208C620B000023406852
:105B3C001A46FEF7D3BF406800220221FEF7DEBFF3
:105B4C00002240681146FEF7D1BF00224068114682
:105B5C00FEF7DCBF002340681A461946FEF7DEBF8D
:105B6C00002340681A461946FEF7E0BF4068002142
:105B7C00FFF704B840680021FFF708B8406800221E
:105B8C0081F00101FEF7DABF40680022FEF7E6BFA4
:105B9C00002240681146FEF7E9BF0022406811461A
:105BAC00FEF7D4BF2DE9F04395B014460D460746D9
:105BBC00FFF712FE00211C220DA8009100F053F9F2
:105BCC0040230C9320466B460CAA0021FEF712FED4
:105BDC00044600284BD1024601216868FEF796FF67
:105BEC000221804622466868FEF790FF009E81469F
:105BFC002146002E3BD0002939D17368022B03D0EB
:105C0C000A2B11D0F669F4E7B8F1000FFAD07169DC
:105C1C0006A8043107ADFFF70DFE0FCD3C1D0FC4D8
:105C2C002B6823704146EDE7B9F1000FEAD0746997
:105C3C00102201A800F017F906238DF8143001ADDD
:105C4C0004F108031834186859682A4603C208334B
:105C5C00A3421546F7D101A906A807ADFFF7CAFD67
:105C6C000FCD3C1D0FC42B6823704946CAE7009822
:105C7C00FEF7B8FD384615B0BDE8F083024B034A79
:105C8C001A6000225A60704720E70320C8620B009C
:105C9C00232813B502D9002002B010BDA0F10B03CC
:105CAC00022B1AD8174C2178BFF35B8F11F001012E
:105CBC000BD120460191FEF7ECF9019928B112485D
:105CCC00FFF708F82046FEF7E9F90F4B1878FEF7B6
:105CDC0071FE0028DFD10120DEE7012809D800F091
:105CEC0085F80021007CFEF725FE80F00100C0B293
:105CFC00D2E709380128EED800F03CF8007CFEF71A
:105D0C00D9FDF2E778E603207CE6032038B504469B
:105D1C000D46FEF777FDFF2810D0062804D84D233A
:105D2C0023FA00F0C30709D42046FFF7B1FF28B1CE
:105D3C0029462046BDE83840FEF76CBD38BD70479B
:105D4C0038B5044614252A46002100F08CF825802D
:105D5C004025074925812846258200F06BF8044927
:105D6C006060284600F066F8E060204638BD00BF51
:105D7C00FC620B0030B50E4D2978BFF35B8F11F030
:105D8C00010487B011D12846FEF783F968B101A848
:105D9C00FFF7D6FF01AA21460648FFF723FE284647
:105DAC00FEF77CF9044800F04AF8024807B030BD11
:105DBC0028E703202CE703204B5D0B007047000005
:105DCC0038B5202514230446036085600561064917
:105DDC00284600F02FF804496060284600F02AF8A5
:105DEC00E060204638BD00BFFC620B0030B50E4DA4
:105DFC002978BFF35B8F11F0010487B011D12846CD
:105E0C00FEF747F968B101A8FFF7DAFF01AA2146AE
:105E1C000648FFF73BFE2846FEF740F9044800F021
:105E2C000EF8024807B030BD44E7032048E70320D2
:105E3C00C95D0B00FEF729B908B5FEF7E7FE002394
:105E4C0001461A46184600F07FB80A44914200F108
:105E5C00FF3300D1704710B511F8014B03F8014F17
:105E6C009142F9D110BD02440346934200D17047D0
:105E7C0003F8011BF9E7000038B5104B1D68AB6B3C
:105E8C000446B3B91820FEF7A1FE0246A86320B958
:105E9C000B4B0C484221FEF7C9FE0B490B4BC0E9DA
:105EAC0000130B4B83600B23838100210120C2E97B
:105EBC000401AB6B00221C615A6138BDF8E503206C
:105ECC00FD620B0014630B000E33CDAB34126DE688
:105EDC00ECDE0500024B0146186800F003B800BF69
:105EEC00F8E5032037B5044608460D4600F00FF8D8
:105EFC00421C114620460192FEF790FE044618B152
:105F0C00019A2946FFF7A1FF204603B030BD034696
:105F1C0013F8012B002AFBD1181A0138704710B561
:105F2C007AB103460139841813F8010B11F8012FCB
:105F3C00904201D1A34201D1801A10BD0028F3D1A7
:105F4C00FAE71046F9E700002DE9F843DFF8B880CE
:105F5C000646D8F800001F460D46914600F056F84C
:105F6C00254B1C6834B9254C1C60254B13B11B68A0
:105F7C00C4F8883063681F2B07DDD8F8000000F0E8
:105F8C0047F84FF0FF30BDE8F8834EB3D4F88800E3
:105F9C0088B91C4B23B9D8F8000000F038F8F0E7AA
:105FAC004FF48470FEF712FE0028F4D00023C0E9F1
:105FBC004033C4F88800636840F8239001229A406B
:105FCC0000EB8301D0F800311343C0F80031022EEE
:105FDC00C1F8807002BFD0F804311343C0F804310B
:105FEC006368D8F800005A1C0233626044F82350EE
:105FFC0000F00EF80020C6E7E8E703205CE703207A
:10600C0000000000D94B0B005CE603207047704782
:10601C00704700001D400B0059400B0081400B00E5
:10602C0085400B00000000006E6F20626F6172648F
:10603C0000444542554700466F756E64206368699D
:10604C007020504E35004669726D7761726520760E
:10605C0065722E200057616974696E6720666F72D5
:10606C0020616E2049534F31343434334120436125
:10607C007264202E2E2E00466F756E6420616E2089
:10608C0049534F31343434334120636172640020FE
:10609C0020554944204C656E6774683A2000206294
:1060AC00797465730020205549442056616C7565E0
:1060BC003A20004D696661726520436C61737369A7
:1060CC006320636172642023000000000000000064
:1060DC00300052656164696E673A200020307800A8
:1060EC000A53656E64696E673A20004E6F20414317
:1060FC004B20647572696E67206765744669726DB2
:10610C007761726556657273696F6E2100466972AC
:10611C006D7761726520646F65736E2774206D6195
:10612C0074636821004E6F206361726428732920A8
:10613C0072656164005B5350492050494E535D2099
:10614C00434C4B3A41332C4D49534F3A41342C4D2F
:10615C004F53493A41352C53533A0000000000008C
:10616C0000000000B74C0B00AD4C0B00A34C0B0017
:10617C00994C0B008D4C0B00814C0B00795B0B0088
:10618C00815B0B00754C0B006D4C0B00634C0B00D2
:10619C00594C0B00B15B0B0000081018202830384C
:1061AC006170700025592D256D2D25645425483AB4
:1061BC00254D3A2553257A0061736374696D65002A
:1061CC00000000000000000041520B0047520B0081
:1061DC0085520B0055520B0043520B00000000007F
:1061EC000000000081570B0071570B0073570B0018
:1061FC00000000000000000067580B00CF580B0097
:10620C00A5580B0009500B0097580B0069580B0050
:10621C0079580B00C9580B0089580B0061580B00BA
:10622C00000000000000000075590B00E1590B0044
:10623C00B9590B0009500B0089590B00A5590B00DB
:10624C0097590B00B3590B0077590B007B590B0076
:10625C000000000000000000415A0B008B5A0B009C
:10626C00635A0B00435A0B006B5A0B00735A0B000A
:10627C007B5A0B00835A0B0000000000000000004A
:10628C001B5B0B00115B0B00075B0B00BD5A0B007B
:10629C00FB5A0B00EF5A0B00795B0B00815B0B0078
:1062AC00E35A0B00DB5A0B00D15A0B00C75A0B00F8
:1062BC00B15B0B000000000000000000395B0B001C
:1062CC00435B0B004D5B0B00575B0B00615B0B00E2
:1062DC006D5B0B00795B0B00815B0B00895B0B002A
:1062EC00955B0B009D5B0B00A75B0B00B15B0B0080
:1062FC00005245454E54206D616C6C6F6320737574
:10630C0063636565646564002F6D6E742F776F72BF
:10631C006B73706163652F776F726B7370616365FC
:10632C002F4743432D31302D706970656C696E6554
:10633C002F6A656E6B696E732D4743432D31302D7B
:10634C00706970656C696E652D34385F323032302F
:10635C00313132345F313630363138303634312FDA
:10636C007372632F6E65776C69622F6E65776C69DB
:10637C00622F6C6962632F7374646C69622F726133
:10638C006E642E63000000008D420B00C14C0B00AC
:10639C00554E0B00F94F0B00D1500B00E1500B0088
:1063AC00FD500B00255B0B00895C0B00000000000E
:0463BC0000000000DD
:1063C000040000001400000003000000474E5500C8
:1063D0004332384EDD929E5E1199500DD714324DE6
:0463E0004F287AC404
:0463E40000000000B5
:1063E8000000FF00FF0000FF06FAD503C4610B00A0
:1063F800FCE5032000000000000000000000000091
:106408000000000000000000000000000000000084
:106418000000000000000000000000000000000074
:106428000000000000000000000000000000000064
:106438000000000000000000000000000000000054
:106448000000000000000000000000000000000044
:0864580000000000ECE7032046
:10646000FFFFFFFF00000102030405060708090AF9
:106470000B0C0D0E0F101112131415161718191AF4
:086480001B1C1D1E1F2028003B
:0464880078563412FC
:04000003B000401CED
:00000001FF
