:02000002B0004C
:1040000000400B00B0BC0D00000006000C000502D3
:084010000401A50F00000000EF
:0440180054740D00CF
:1040200009480A49884208B505D0094A824202D0A7
:10403000121A1DF085FD0748074A0021121A1DF0CB
:10404000A7FD014808BD00BFF0CB0320B0B90D00AB
:10405000C8CE0320C8CE0320F0E7032070B5074E7A
:10406000074C01F077FDA41BA4080025AC4200D149
:1040700070BD56F8043B98470135F7E748B90D0085
:1040800080B90D0000F0D4BB08B500F049FABDE8D6
:10409000084001F017BD01F0D7B901F0D5B901F022
:1040A000DBB901F0D9B901F0D7B900000048704779
:1040B000A9740D0008B5034A03490C2001F0EEF87D
:1040C000FEE700BFED4F0B0068740D000078B0FAFA
:1040D00080F04009704701230370704710B5044613
:1040E00042B90268C9B2926890472046BDE81040C4
:1040F00001F045BCD2B201F058FCF6E738B50446F1
:104100006CB1E068FFF7FAFFA56804F1140001F054
:104110001BFB20462421FFF7C6FF2C46F0E738BDE5
:104120000EB403B503AB002153F8042B019301F047
:104130005AFC02B05DF804EB03B070470B680360F3
:104140004B68436013B15A6801325A60704738B502
:10415000046805467CB16368013B63605BB9236812
:1041600020469B689847A368013BA3601BB923685E
:104170002046DB689847284638BD37B58D68044629
:104180006846FFF7DBFF6A462946204602F059FCE5
:1041900001A8FFF7DCFF204603B030BD2DE9F04F4A
:1041A0009BB00C4600AF054602F0A0F869492246D4
:1041B000FFF7B6FF02F09AF82A466749FFF7B0FF0B
:1041C00020461DF0A2FE2146024607F10C0002F037
:1041D00073FC07F10C0107F12800FFF7CEFF07F190
:1041E0000C0107F13C00FFF7C8FF002507F13C0078
:1041F00002F03EFC08B10135F8E7AB00073323F0CD
:104200000703ADEB030D6E46DFF85081DFF85091E8
:10421000344607F1280002F02BFC002878D0D7F8AC
:1042200034A007F1280107F15000FFF787FF07F1DD
:104230005002514607F1180002F069FA07F15400E4
:10424000FFF785FFD7F820A007F11801381DFFF709
:1042500075FF3A1D514607F1500002F0C7FB07F108
:104260000800FFF774FF07F11C00FFF770FF07F16C
:10427000500002F0D3FB002844D0D7F85CA007F12F
:104280005001381DFFF75AFF51463A1D07F118003B
:1042900002F088FB07F10800FFF759FF386A414632
:1042A0001DF001FE824607F11C00FFF750FFBAF136
:1042B000000FDCD1D7F860A007F15001381DFFF7DF
:1042C0003DFF3A1D514607F1180002F020FA07F1B0
:1042D0000800FFF73CFF07F1180002F051FA5BEC11
:1042E00010AB07F11C00FFF732FF594650461CF097
:1042F000B1FB206001F0FAFF52465B464946FFF7EA
:104300000FFFB4E707F15400FFF721FF043480E703
:10431000DFF850800446AC4208D001F0E7FF56F8C1
:1043200024204146FFF7FCFE0134F4E701F0DEFFF4
:1043300001F025FB07F14000FFF709FF07F12C0012
:10434000FFF705FF07F11000FFF701FF6C37BD46CF
:10435000BDE8F08F7D740D0087740D0092740D0020
:104360009A740D00AA740D00F0B5031D82681846FA
:104370004AB117690E68D2E90245B7422ABF104612
:104380002A462246F4E7834204D009680269914232
:1043900038BF1846F0BD00002DE9F3410A226946F6
:1043A00000682E4D1EF0CCFC01A90190074628465E
:1043B000FFF7DAFF05F1040880454CD0A8684646AF
:1043C0000446F4B123699F4204D9E3683446264683
:1043D0001C46F6E7A368FAD3E26843B11969D3E94A
:1043E00002CE8F4296BF1C4673466346F5E74AB13C
:1043F0001169D2E9023E8F4236BF164672461A460E
:10440000F5E73446EB68A3420CD146450AD1FFF7E5
:1044100075FE0023C5E90236C5E90463012002B038
:10442000BDE8F081DFF83880B442F7D0204604F0D0
:104430005CF941460746204604F0B6F904461430BC
:1044400001F082F920462421FFF72DFE6B69013B24
:104450006B613C46E8E70020E1E700BFD8CE0320CF
:10446000DCCE032070B5043043684BB11E690D6883
:10447000D3E90224AE422ABF184623461346F4E786
:1044800070BD000010B58AB003A903901F48204CEE
:10449000FFF76AFF84422ED003A9201FFFF7E2FF37
:1044A000A04203D00369039A9A4202D219480EF03F
:1044B0001BFA416906A801F0D3F9174B069A1B783D
:1044C00016498DF8003004A83C2301F0C7FC05A86C
:1044D000FFF73DFE06A801F037F90121002002F0A8
:1044E00090FB4FF4FA6001F0C1FA0021084602F097
:1044F00088FB0AB010BD0121084602F082FB4FF490
:10450000FA6001F0B3FA00210120F0E7D8CE0320D1
:10451000DCCE0320B8740D00CCCE0320C0740D0097
:1045200070B5384B38491B78384D394C86B000226D
:104530008DF8003004A83C2301F090FC05A8FFF79B
:1045400006FE344B002618689A889B790490ADF8D3
:1045500014208DF8163030488DF80F600DF10F03E0
:1045600004AA314600F09CFC00283AD001F0BEFEBF
:104570002A4901F010FA01F0B9FE294901F0F8F9D1
:1045800001F0B4FE0A229DF80F1001F00EFA01F0BE
:10459000ADFE244901F0FFF901F0A8FE224901F027
:1045A000E7F99DF80F1004A800F084FA9DF80F3089
:1045B000042B11D1049B2E601BBA236001F096FEE0
:1045C0001A4901F0D5F901F091FE21680A22FFF79E
:1045D00085FD2068FFF756FF01F088FE144901F0C1
:1045E000DAF901F083FE21680A22FFF777FD2B68D4
:1045F00001333C2B2B60C2BF002323602B6006B02D
:1046000070BD00BFCDCE0320C4740D00D4CE0320F6
:10461000D0CE03200C760D00F0CE0320CD740D001B
:10462000E5740D00F4740D00FB740D0009750D00A8
:10463000A9740D0038B51C460546031D79B99A4288
:104640000DD010692169884294BF002001202146C5
:1046500004F04FF86B6901336B61204638BD0120CF
:10466000F5E7F8B58B68164604460D1D012263B1C7
:104670001D693268D3E90270954288BF01221D4648
:1046800096BF00223B460346F1E792B1CA68AA42B0
:1046900003D1C4E900352046F8BD284604F027F8C8
:1046A000336802699A424FF00003F2D3C4E9000371
:1046B000F1E72846F4E72DE9F0411F460B1D9A4229
:1046C00004460E4615460AD14B69002B32D00B69C1
:1046D00039681A6991422DD90022226008E0D7F882
:1046E00000801369434515D9CB68934202D103601A
:1046F00063600CE0104603F0FAFF0369434519D2EA
:10470000C36813B92360606001E0256065602046DE
:10471000BDE8F08114D20B699342DDD0104603F05E
:10472000E2FF0369984505D2EB680BB92360EDE71A
:104730002060E8E73A4631462046FFF792FFE6E779
:1047400022600023D4E700002DE9F34106460F461E
:10475000FFF788FE331D9842044603D03A68036988
:104760009A421CD22420FFF796FC3B681249074668
:1047700000F1140847F8103F0546404601F02FF8B5
:1047800022463B4631466846FFF795FFDDE9004289
:1047900052B121462B463046FFF74CFF044604F148
:1047A000140002B0BDE8F081404600F0CDFF2421A6
:1047B0002846FFF778FCF2E7A9740D0013B50A222A
:1047C000006869461EF0BCFA012801900AD9009CD5
:1047D000054801A9FFF7B8FF214601F02EF8012096
:1047E00002B010BD0020FBE7D8CE032038B50D4D38
:1047F000044629460C48FFF7B7FD0C4B98420BD1F5
:104800002B68012B0BD929460438FFF79DFF214661
:1048100000F0F9FF012038BD4FF0FF30FBE700202A
:10482000F9E700BFD0CE0320D8CE0320DCCE032092
:10483000F0B58BB001F05AFD4FF4E13101F044FDC9
:104840000121084602F0CCF90121002002F0C8F94C
:10485000564A5749574801F00AFA574A57495548A6
:1048600001F005FA564A5749524801F000FA01F0A2
:104870003DFD01F030FD18B90A2001F0F7F8F6E728
:10488000514D5248069506A9FFF7ECFD504B984252
:10489000044602D00369AB421CD92420FFF7FBFB7E
:1048A0000646069B46F8103F00F1140749490546A5
:1048B000384600F094FF22464449334604A8FFF7E7
:1048C000FAFEDDE9044292B3214640482B46FFF749
:1048D000B1FE04464049414F414D424E04F114009F
:1048E00000F0ABFF3D4800F011FB384600F08CFAB9
:1048F000044620BB01F0FAFC294601F04CF8294699
:1049000006A800F0ADFF3378069A37498DF80030DD
:1049100002A83C2301F0A2FA03A8FFF718FC06A89E
:1049200000F012FF4FF47A7001F0A0F8DDE738468E
:1049300000F00AFF24212846FFF7B5FBCAE701F083
:10494000D5FC2A4901F014F801F0D0FC1022210E08
:10495000FFF7C4FB01F0CAFC254901F009F801F09A
:10496000C5FC0A22C4F3074101F01FF801F0BEFCA8
:104970002E2101F001F801F0B9FC0A22C4F307214D
:10498000FFF7ACFB154800F06DFA01F0AFFC1949D8
:1049900001F001F80023184A0092184901931A46C1
:1049A000174800F041FD0BB0F0BD00BF1F750D00B2
:1049B000BD470B00435C0B0044750D0099430B0091
:1049C00065750D00ED470B001B18A4C1D8CE032060
:1049D000DCCE0320A9740D0094750D00F0CE0320E9
:1049E000A0750D00CCCE0320A9750D00AF750D008C
:1049F000BE750D00CD750D00F3750D009D410B00CA
:104A0000EF750D000D4B13B500241C700C4B0D48B9
:104A100001221A7002F0CCF90B4B0C481C711A1DC4
:104A2000C3E903229C605C610E2300930B220C23DC
:104A30000D2100F037F802B010BD00BFCCCE03202E
:104A4000CDCE0320CECE0320D8CE0320F0CE03203F
:104A500070B506460C4615462AB90368BDE8704095
:104A60009B68C9B2184700290BDA0A2A09D12D21FF
:104A700000F082FF6142EAB23046BDE8704000F0CB
:104A800094BF2146F7E710B504463AB903689B681E
:104A900098472046BDE8104000F071BFD2B200F048
:104AA00084FFF6E710B503719DF80830C1704271BC
:104AB000837010BD2DE9F843184FDFF86880DFF8E8
:104AC00068900D46441E0026AE421FD001F00EFC39
:104AD000394600F04DFF63780F2B04D801F006FC37
:104AE000414600F045FF01F001FC14F8011F1022BF
:104AF00000F05BFF012D07D96B1EB34204D001F01B
:104B0000F5FB494600F034FF0136DDE701F0EEFB2E
:104B1000BDE8F843024900F03EBF00BF20760D001B
:104B2000A9740D0013760D00B19E0D0013B50B4C4A
:104B30002178BFF35B8F11F001010BD12046019169
:104B4000FFF7C4FA019928B1054800F031FD20466D
:104B5000FFF7C1FA024802B010BD00BF08CF032022
:104B60000CCF032007B50190FFF7E0FF019903B0D8
:104B70005DF804EB00F0D0BD5520FFF7F3BF38B56A
:104B800000210446807802F03CF8022000F06EFF1D
:104B90000220FFF7E7FF2046FFF7EEFF0121054661
:104BA000A07802F02EF8284638BD0000F8B505467A
:104BB00016460C4601F09AFB1749184F00F0D8FE34
:104BC0000021A87802F01DF8022000F04FFF03201A
:104BD000FFF7C8FF2644B44213D0012000F046FF7F
:104BE0002846FFF7C9FF207001F080FB394600F02E
:104BF000BFFE01F07BFB14F8011B102200F0D5FE74
:104C0000E9E7A878012101F0FCFF01F06FFBBDE8A6
:104C1000F84000F0B4BE00BF15760D001F760D0001
:104C200007B506226946FFF7C1FF05490622684617
:104C30001DF073F9B0FA80F0400903B05DF804FB91
:104C4000F0CB03202DE9F04707461446551C884653
:104C500001F04CFB5449DFF8549100F089FE00212B
:104C6000B87801F0CEFF022000F000FF0120FFF72E
:104C700079FF0020FFF776FF0020FFF773FFEDB20A
:104C8000FF20FFF76FFF2846FFF76CFFE043C0B23D
:104C9000FFF768FFD420FFF765FF01F027FB4349CA
:104CA00000F066FE01F022FB10220021FFF7D0FE8B
:104CB00001F01CFB3D4900F05BFE01F017FB1022E8
:104CC0000021FFF7C5FE01F011FB384900F050FE4E
:104CD00001F00CFB1022FF21FFF7BAFE01F006FBEA
:104CE000324900F045FE01F001FB1022294600F098
:104CF0005CFE01F0FBFA2D4900F03AFE01F0F6FAF5
:104D000010226942FFF7A4FE01F0F0FA274900F0F3
:104D10002FFE01F0EBFA1022D421FFF799FE0024B8
:104D2000D326013D04F1010AE4B2AC4215DA18F8C9
:104D30000400FFF717FF18F804301E4401F0D6FAFC
:104D4000494600F015FE01F0D1FA18F804101022BF
:104D500000F02BFEF6B25446E4E7F643F0B2FFF75C
:104D600001FF0020FFF7FEFEB878012101F049FFA6
:104D700001F0BCFA0D4900F0FBFD01F0B7FA10227A
:104D80003146FFF765FE01F0B1FA084900F0F0FD89
:104D900001F0ACFA10220021FFF75AFE01F0A6FA4A
:104DA000BDE8F04700F0EBBD23760D001F760D0047
:104DB000F8B507461C46FFF745FF00253846FFF7C4
:104DC000DEFE012808D01CB10A35ADB2AC4217D3C3
:104DD0000A2000F04BFEF1E73846FFF721FF0546B9
:104DE00070B100263846FFF7CAFE012809D01CB171
:104DF0000A36B6B2B44203D30A2000F037FEF1E718
:104E000000252846F8BD000070B5124D02232B7016
:104E100001224FF47A7329460646FFF7C9FF30B9DD
:104E200001F064FA0C4900F0B6FD002070BD0C22C0
:104E300029463046FFF7BAFE0849062228461DF0EB
:104E40006CF818B101F052FA0549ECE7D5F8060004
:104E500000BAEBE714CF03202E760D00F6CB03202B
:104E600050760D0038B50D4C14220123227063706A
:104E7000A270E37004224FF47A7321460546FFF7CF
:104E800097FF48B1284608222146FFF78FFE607938
:104E9000A0F115035842584138BD00BF14CF03207C
:104EA0002DE9F041174C1F464A23237001236370FC
:104EB000A17016464FF47A73032221468046FFF70D
:104EC00077FF054638B901F011FA0F4900F063FD8C
:104ED0002846BDE8F081142221464046FFF766FED1
:104EE000E379012B0BD1237B3B700023227BD9B2CA
:104EF0008A42EDD962180133527B7254F6E70025DD
:104F0000E6E700BF14CF032068760D0013B5044612
:104F1000FFF70CFE182100F0D9FBFFF707FE002178
:104F200000F078FBFFF702FE002100F05FFBA178A4
:104F30000191FFF7FBFD019900F044FB01F0D6F968
:104F4000104900F015FD01F0D1F90A22A178FFF710
:104F50009AFDA078002101F054FE4FF47A7000F021
:104F600085FD094902230B7001224FF47A73204614
:104F7000FFF71EFFA078012102B0BDE8104001F04C
:104F800040BE00BF78760D0014CF032008B5024B59
:104F90001B689B68019308BD6802030008B5024BBB
:104FA0001B68DB68019308BD6802030008B5024B6B
:104FB0001B689B68019308BD2C02030008B5024BD7
:104FC0001B68DB68019308BD2C02030008B5024B87
:104FD0001B681B69019308BD2C02030008B5024B36
:104FE0001B685B68019308BD1802030008B5024BFB
:104FF0001B68DB68019308BD1802030008B5024B6B
:105000001B685B69019308BD1802030008B5024BD9
:105010001B685B68019308BD8402030008B5024B5E
:105020001B689B68019308BD8402030008B5024B0E
:105030001B68DB68019308BD8402030008B5024BBE
:105040001B685B69019308BD8402030008B5024B2D
:105050001B68DB69019308BD8402030008B5024B9D
:105060001B681B6A019308BD8402030008B5024B4C
:105070001B685B6C019308BD4802030008B5024B36
:105080001B685B69019308BD6402030008B5024B0D
:105090001B68DB68019308BD3C02030008B5024BA6
:1050A0001B681B69019308BD3C02030008B5024B55
:1050B0001B685B69019308BD3C02030008B5024B05
:1050C0001B689B69019308BD3C02030008B5024BB5
:1050D0001B68DB69019308BD3C02030008B5024B65
:1050E0001B681B6A019308BD3C02030008B5024B14
:1050F0001B689B6A019308BD3C02030008B5024B84
:105100001B681B6C019308BD3C02030008B5024BF1
:105110001B681B6A019308BD2802030008B5024BF7
:105120001B685B6A019308BD2802030008B5024BA7
:105130001B689B6A019308BD2802030008B5024B57
:105140001B68DB6A019308BD2802030008B5024B07
:105150001B681B6B019308BD2802030008B5024BB6
:105160001B685B6B019308BD2802030008B5024B66
:105170001B681B6C019308BD2802030008B5024B95
:105180001B681B68019308BD3002030008B5024B81
:105190001B689B68019308BD3002030008B5024BF1
:1051A0001B68DB68019308BD3002030008B5024BA1
:1051B0001B681B69019308BD3002030008B5024B50
:1051C0001B685B69019308BD3002030008B5024B00
:1051D0001B68DB69019308BD3002030008B5024B70
:1051E0001B681B6A019308BD3002030008B5024B1F
:1051F0001B685B6A019308BD3002030008B5024BCF
:105200001B681B6C019308BD3002030008B5024BFC
:105210001B685B6C019308BD3002030008B5024BAC
:105220001B681B68019308BD4C02030008B5024BC4
:105230001B685B68019308BD4C02030008B5024B74
:105240001B681B69019308BD4C02030008B5024BA3
:105250001B685B69019308BD4C02030008B5024B53
:105260001B689B69019308BD4C02030008B5024B03
:105270001B68DB69019308BD4C02030008B5024BB3
:105280001B681B6A019308BD4C02030008B5024B62
:105290001B685B6A019308BD4C02030008B5024B12
:1052A0001B685B6B019308BD6002030008B5024BED
:1052B0001B689B6B019308BD6002030008B5034B9C
:1052C0001B68D3F8AC30019308BD000060020300F6
:1052D00008B5024B1B685B68019308BD2002030000
:1052E00008B5024B1B685B69019308BD20020300EF
:1052F00008B5024B1B68DB6C019308BD200203005C
:1053000008B5024B1B685B6D019308BD20020300CA
:1053100008B5034B1B68D3F88830019308BD000023
:105320002002030008B5034B1B68D3F894300193A7
:1053300008BD00002002030008B5024B1B685B6833
:10534000019308BD4002030008B5024B1B689B682F
:10535000019308BD4002030008B5024B1B68DB68DF
:10536000019308BD4002030008B5024B1B681B698E
:10537000019308BD4002030008B5024B1B685B693E
:10538000019308BD4002030008B5024B1B689B69EE
:10539000019308BD4002030008B5024B1B68DB699E
:1053A000019308BD4002030008B5024B1B681B6A4D
:1053B000019308BD4002030008B5024B1B681B6B3C
:1053C000019308BD4002030008B5024B1B685B6BEC
:1053D000019308BD4002030008B5024B1B681B6C1B
:1053E000019308BD4002030008B5024B1B685B6CCB
:1053F000019308BD4002030008B5024B1B685B68BF
:10540000019308BD4402030008B5024B1B685B69A9
:10541000019308BD4402030008B5024B1B681B6AD8
:10542000019308BD4402030008B5024B1B685B6A88
:10543000019308BD4402030008B5024B1B68DB6BF7
:10544000019308BD4402030008B5024B1B681B68AA
:10545000019308BD1C02030008B5024B1B685B6882
:10546000019308BD1C02030008B5024B1B689B6832
:10547000019308BD1C02030008B5024B1B685B6961
:10548000019308BD1C02030008B5024B1B689B6911
:10549000019308BD1C02030008B5024B1B685B6A40
:1054A000019308BD1C02030008B5024B1B68DB6AB0
:1054B000019308BD1C02030008B5024B1B681B6B5F
:1054C000019308BD1C02030008B5024B1B685B6B0F
:1054D000019308BD1C02030008B5024B1B689B6BBF
:1054E000019308BD1C02030008B5024B1B68DB6B6F
:1054F000019308BD1C02030008B5024B1B681B6C1E
:10550000019308BD1C02030008B5024B1B685B6CCD
:10551000019308BD1C02030008B5024B1B689B6C7D
:10552000019308BD1C020300002240681146FFF7EA
:105530003BBF002240681146FFF746BF406800228B
:10554000FFF73ABF4068002281F00101FFF724BF56
:10555000002340681A461946FFF716BF002340682B
:105560001A461946FFF708BF002240681146FFF7A8
:10557000FBBE002240681146FFF7E6BE40680022ED
:105580000221FFF7E9BE002340681A46FFF7D4BEA8
:10559000024B03225A60024A1A60704754CF03201C
:1055A000A8760D000021FFF731BE0021FFF726BECF
:1055B00010B5044608462170FFF708FE002363601B
:1055C000204610BD13B5044600780191FFF7EDFFAA
:1055D000019948B920780190FFF7D0FD019802B0F9
:1055E000BDE81040FFF7DEBF02B010BD13B50446A2
:1055F00000780191FFF7D9FF019948B9207801900F
:10560000FFF7C4FD019802B0BDE81040FFF7CABF24
:1056100002B010BD13B5044600780191FFF7C5FF35
:10562000019948B920780190FFF7B8FD019802B0C0
:10563000BDE81040FFF7B6BF02B010BD400830B55E
:105640001860002418688842E5B206D90134082C95
:1056500002D040081860F5E70725024B5B5D137028
:1056600030BD00BFDC760D002DE9F04188B000238D
:105670000446007802930E461746FFF796FF05464C
:1056800000BB94F800800146142203A81CF080FAA5
:105690000B232A4603A94046ADF80C30FFF7A6FDC0
:1056A00004988DF8075002AB0DF1070207FB06F1D5
:1056B000FFF7C4FF20789DF80710FFF777FD2078EB
:1056C000FFF770FF029808B0BDE8F08138B50446D6
:1056D00000780D46FFF769FF0346D0B9616899B1BC
:1056E0000C4A12F8010B854202D00133082BF8D185
:1056F0000133DBB20122D9402046FFF7B5FF207805
:10570000BDE83840FFF74EBF20782946FFF74EFD31
:10571000F5E738BDDC760D0008B50078FFF74EFDE3
:10572000C0B208BD054B02221A60054B054A9A60BB
:105730000020C3E90000FFF7CBBD00BF68CF032006
:105740005CCF03200000FFFF10B504460068FFF7A0
:1057500083FE204610BD10B50446006808B1FFF76F
:105760007BFE0023C4E90133236010BD38B5044635
:105770000D4600680131FFF777FE10B1C4E900055E
:10578000012038BD10B50368044623B143688B423D
:1057900001D3012010BD2046FFF7E8FF0028F9D013
:1057A000A368002BF5D122681370F2E737B50D46D8
:1057B000114601920446FFF7E5FF019A28B92046F9
:1057C000FFF7C9FF204603B030BDA260294620681C
:1057D0001CF0B6F92268A3680021D154F2E7002337
:1057E00013B5C0E9003304468360037341B1084632
:1057F00001911CF08AFB019902462046FFF7D6FF73
:10580000204602B010BD884210B5044605D00B6892
:105810002BB18A681946FFF7C9FF204610BDFFF774
:105820009AFFFAE710B500230446C0E9003383600D
:105830000373FFF7E8FF204610BD13B5044659B1C6
:10584000084601911CF061FB019902462046FFF7D2
:10585000ADFF204602B010BDFFF77DFFF9E7000065
:105860000EB470B587B00BAD044655F8042B019209
:105870002B46052104A80395FFF70EFE0B490646AB
:105880002046FFF7ACFF31462046FFF77BFF20683C
:1058900030B1019A03952B46711CFFF7FDFDA06006
:1058A000204607B0BDE8704003B07047A9740D00F2
:1058B00010B58368044613B1032201469847204679
:1058C00010BD10B54368013B0446436063B90368EB
:1058D0009B689847A368013BA3602BB923682046C7
:1058E000DB68BDE81040184710BD13B50B460246F3
:1058F000D0E900016C4684E8030093E8030082E8E5
:10590000030094E8030083E8030002B010BD000028
:10591000024800230360FFF7A9BB00BF6CCF032040
:10592000F8B506460D468F180024BD420CD03368EA
:1059300015F8011B9B6830469847031E01DB1C4489
:10594000F3E7002C08BF1C462046F8BD13B50446FB
:10595000084659B101911CF0D8FA23680199DB6817
:105960000246204602B0BDE81040184702B010BD04
:1059700008B5FFF7EBFF08BD03689B68184738B50B
:105980000D210546FFF7F8FF0A2104462846FFF7D8
:10599000F3FF204438BD38B50546FFF7D7FF04466E
:1059A0002846FFF7ECFF204438BD30B58BB000230C
:1059B000012A8DF8243098BF0A2209AC0D46B1FBAC
:1059C000F2F101FB125303F0FF03092B94BF3033B4
:1059D0003733DBB2AA4204F8013DEFD92146FFF785
:1059E000B5FF0BB030BD2DE9F04186B000AF0546E4
:1059F0000E46381D142114463B60FFF74DFD132859
:105A00000ED8391D2846FFF7A1FF04461EB12846CF
:105A1000FFF7B5FF044420461837BD46BDE8F081C6
:105A200000F1080323F00703E846ADEB030D22461F
:105A3000411C3B686846FFF72FFD69462846FFF783
:105A400085FF0446C546E1E7014B024A1A607047EC
:105A500070CF0320E4760D00024B1A68024B1A60E7
:105A6000704700BFFCCB032074CF03200021FFF759
:105A700037BC0000014B00229A60704778CF0320AA
:105A8000014B1860704700BF88CC032008B50B4B52
:105A900043B100F02BFC03681B699847002801DD27
:105AA000AFF30080064B43B101F0E0F803681B69D7
:105AB0009847002801DDAFF3008008BD000000001A
:105AC0000000000008B5FFF7E1FFFFF797FA014B70
:105AD000186008BDD0CF03200548064A064908B51E
:105AE000121A1CF02DF8054B054A1A6008BD00BFBC
:105AF00000F4032004F40320ACB90D0000F40320EB
:105B00001E1C279A07B5002300931A466FF07701F1
:105B1000FFF708FC03B05DF804FB000007B54388FD
:105B20000A2B08D0502B0BD1094B1B684BB103B08B
:105B30005DF804EB1847FFF7E5FF03B05DF804FBE1
:105B4000002300931A466FF07701FFF7EBFBF4E7B1
:105B50008CCF032010B512480021FFF7D5FC114B64
:105B60001A68114B9A42114B0CBF012200221A7085
:105B700001D0FFF7B1FFFFF731FA04461CF062F8DD
:105B80000B4B13B12046AFF3008000210848FFF70C
:105B900053FCBDE8104007480021FFF7B9BB00BF28
:105BA000815A0B0000F403201E1C279A88CF032083
:105BB000000000001D5B0B0070470020704710B50F
:105BC00010210446FEF76FFA204610BD08B5FFF716
:105BD000F6FF08BD30B500224FF69C740260848049
:105BE0008D888C800C68858004600A6030BD10B59B
:105BF00004460068FFF730FC204610BD38B5C46885
:105C0000F4B12378022B03D104F10C00FFF7EFFF6E
:105C1000656835B12846FFF74BFE10212846FEF790
:105C200042FAA56835B12846FFF742FE1021284602
:105C3000FEF739FA20461421BDE83840FEF733BAA2
:105C400038BD10B588B004466846FFF7C8FD694600
:105C500004A8FFF7E7FD04A8A047044604A8FFF73F
:105C600073FD6846FFF770FD204608B010BD1FB5F4
:105C70000023CDE90201019210241A466946184614
:105C8000ADF80230ADF80040FFF7B6FB04B010BD30
:105C90000B6803604B68436013B15A6801325A6065
:105CA000704737B5044668460D46FFF7F1FF009B85
:105CB000019A23606260002301A801930093FEF71C
:105CC00046FA35B1281DFEF742FA08212846FEF7AC
:105CD000EAF9204603B030BD826810B50AB90CF06D
:105CE00025FEBDE81040C368184708B5006800F1FC
:105CF0001001FFF7F1FF08BD826810B50AB90CF07A
:105D000015FEBDE81040C368184708B5006800F1EB
:105D10001001FFF7F1FF08BD38B50023044603600A
:105D200010200D46FEF7B7F928B10123C0E9013371
:105D3000024B0360C5602060204638BD0C770D0023
:105D400038B5002383608B6804460D462BB10222D0
:105D50009847EB68E360AB68A360204638BD00005D
:105D6000F0B589B004686846FFF734FF4FF00203CE
:105D7000D4E84F2F002A03D1C4E8413F0029F7D1CE
:105D800025D104F10C0569462846FFF723FFBFF330
:105D90005B8F01236370002004F10803BFF35B8F66
:105DA00053E8006F43E80002002AF9D1BFF35B8F8C
:105DB0006EB1FFF79DFA78B129463046FFF78CFFA8
:105DC0003046FFF775FD10213046FEF76CF9684646
:105DD000FFF70DFF09B0F0BD314602A8FFF7B0FF95
:105DE000E068B4F9105008B11CF072F80690102069
:105DF000ADF81C50FEF74FF90546E8B10027876063
:105E00001820FEF748F9044688B10146876002A8C9
:105E1000FFF76BFD049BA268A360059B049206A993
:105E2000E268E36004F110000592FFF7D3FE084B2F
:105E3000EB60084B2C60AB6006A8FFF7D8FE02A809
:105E4000FFF736FD002229460348FFF759FAB7E766
:105E5000EB5C0B006D5F0B00DD630B002DE9F04F79
:105E60008BB005469DF850A00F4690469946FFF727
:105E7000CBFA07AE834638BB4FF62E73059005A9C3
:105E80003046ADF81830FFF7A5FE1420FEF703F9F1
:105E9000044648B1022303700123C0E901BB4370EB
:105EA00031460C30FFF796FE2846214640F8044B59
:105EB000FFF732FF3046FFF79AFE05A8FFF797FE7F
:105EC00028460BB0BDE8F08F0C2300241420CDE948
:105ED00008440793FEF7DFF8014618B1C0E9014412
:105EE0000470447004A80391FFF716FF1E4B08933B
:105EF0000820FEF7D0F8044610B103A9FFF7C8FE4A
:105F000000965FFA8AF34A46414638460994FFF7FD
:105F100083FAB8B9039B5B7803F0FF0293B94FF69D
:105F20009C7305A903A80592ADF81830FFF718FF78
:105F300005A8FFF75CFE05A80999FFF7B2FE06A8C1
:105F4000FEF705F903A905A8FFF7A2FE059B069A2F
:105F50002B606A60002306A806930593FEF7F7F806
:105F600004A8FEF7F4F8ABE7E95F0B00012AF8B5E7
:105F7000054603D10B6803600020F8BD022A10D04B
:105F8000032AF9D10468002CF6D004F11000FFF7C1
:105F90002EFE2046FFF78CFC18212046FEF783F8E2
:105FA000EAE718200E68FEF776F8044650B131464D
:105FB000FFF7C6FE3069B6F9147008B11BF088FF10
:105FC0002061A7822C60D7E738B5002383608B68F7
:105FD00004460D462BB102229847EB68E360AB689C
:105FE000A360204638BD0000F0B589B004460D46D8
:105FF00001A81146FFF755FEA4B124B21DB12846F1
:106000001BF066FF054601A803A90395ADF81040F3
:10601000FFF7A6FE03A8FFF7EAFD02A8FEF797F830
:1060200009B0F0BD019D0123D5E84F2F002A03D10F
:10603000C5E8413F0029F7D1EFD12B73BFF35B8F48
:106040006B702B1DBFF35B8F53E8006F43E800427A
:10605000002AF9D1BFF35B8F002EDED02046FFF778
:1060600047F9074660B105F10C013046FFF744FEE1
:106070003046FFF71DFC10213046FEF714F8CCE740
:10608000314603A8FFF7A0FF2B7B8DF81C301020B2
:10609000FEF701F80546D0B187601420FDF7FBFF3D
:1060A000044678B18760014603A8FFF71EFC059BF4
:1060B000A268A360069B0592E268E3609DF81C302D
:1060C00006922374064BEB60064B2C60AB6003A872
:1060D000FFF7EEFB002229460348FFF711F9C7E757
:1060E0000B5D0B00ED600B00DD630B00012A70B54A
:1060F000044603D10B680360002070BD022A0CD057
:10610000032AF9D10468002CF6D02046FFF7D0FB13
:1061100014212046FDF7C7FFEEE714200E68FDF7B7
:10612000BAFF054620B13146FFF74EFF337C2B7492
:106130002560E1E7704710B518210446FDF7B3FF6D
:10614000204610BDF0B5037D062B8DB00E4600F144
:1061500004074FF0000412D000F1080515F8011DE6
:106160000A223046FFF721FCAF42044419D0002C2C
:10617000F4D02E213046FFF7FFFB0444EEE72F2337
:106180006A4639460A208DF80040FEF777FF6846D8
:106190001BF0BBFE33680246DB6869463046984711
:1061A000044620460DB0F0BD10B5054B0446112243
:1061B00040F8043B00211BF0EBFC204610BD00BF63
:1061C00028770D000346074A10B543F8042B01F168
:1061D000100251F8044B43F8044B9142F9D10A786C
:1061E0001A7010BD28770D0010B59DF8084044EADC
:1061F000032343EA024242EA01610423416003753A
:1062000010BD000007B5064B0360CB7800938B7878
:106210004A780978FFF7E8FF03B05DF804FB00BF98
:1062200028770D00417470477047704708B500210A
:10623000007CFFF713F840EAE07008BD08B50121C3
:10624000007CFFF70BF840EAE07008BD08B5007C61
:10625000FEF7FCFF20EAE07008BD08B5007CFEF701
:10626000EDFF20EAE07008BD13B50446007C019103
:10627000FEF7ECFF0028019901DC607C20B1207C56
:10628000FEF7F4FF20EAE07002B010BD007CFEF7DC
:10629000F5BF10B514210446FDF705FF204610BDDB
:1062A00010B54FF47A73044608460021C4E901137F
:1062B000044B23600123207463741146FEF7AEFF84
:1062C000204610BD3C770D00007C0022FEF7AEBFDB
:1062D000007CFEF7DBBFFFF7FBBF10B514220446BE
:1062E00000211BF055FC204610BD000010B50F4CDE
:1062F00088B003A8FFF7F1FF2178BFF35B8F11F09F
:1063000001010FD120460191FDF7E0FE019948B14E
:1063100003AA0748FFF7C4FF2046FDF7DCFE054847
:106320001AF0A8FD024808B010BD00BF90CF0320AE
:1063300094CF032029620B0070474174704708B561
:10634000007CFEF7D3FE20EAE07008BD08B5007CB3
:10635000FEF7A4FE20EAE07008BD08B5007CFEF759
:10636000ADFE40EAE07008BD08B5007CFEF79EFE79
:1063700040EAE07008BD007CFEF7A8BE37B5457C5A
:1063800004462DB1207C03B0BDE83040FEF77EBE50
:10639000007C0191FEF7AAFE00280199F2DC284654
:1063A00003B030BD10B514210446FDF77CFE204635
:1063B00010BD000010B54FF47A730446084611462C
:1063C0000022C4E90123044B236001232074637479
:1063D000FEF794FE204610BD6C770D0010B5836863
:1063E00004460BB90CF0A2FAC3689847A3681BB126
:1063F000032221462046984720461021BDE8104040
:10640000FDF751BE7047F8B5064615460C468F1885
:10641000BC4206D0336814F8011B9B68304698478D
:10642000F6E72846F8BD007C0022FEF76FBE007C30
:106430000021FEF773BE007C0021FEF777BE007CD2
:106440000021FEF77BBE007C0021FEF77FBE10B569
:1064500014210446FDF727FE204610BD38B504463A
:1064600015464FF47A730022C4E90123094B2174C5
:10647000084623602946FEF779FEBF3008D16B69D4
:10648000DB0705D56868FEF7E7FFE868FEF7E4FF7D
:10649000204638BD9C770D00002240681146FEF76B
:1064A00063BF002240681146FEF77EBF00224068AD
:1064B0001146FEF789BF40680022FEF77DBF4068A5
:1064C000002281F00101FEF767BF002340681A46F1
:1064D0001946FEF759BF002340681A461946FEF7D1
:1064E0004BBF002240681146FEF72EBF40680022D5
:1064F0000221FEF731BF002340681A46FEF71CBF99
:10650000024B04225A60024A1A607047A8CF032047
:10651000C4770D00002340681A46FEF70DBF40689F
:1065200000220221FEF718BF002240681146FEF744
:106530000BBF002240681146FEF716BF00234068DB
:106540001A461946FEF718BF002340681A46194636
:10655000FEF71ABF40680021FEF73EBF40680021E9
:10656000FEF742BF4068002281F00101FEF714BF30
:1065700040680022FEF720BF002240681146FEF767
:1065800023BF002240681146FEF70EBF2DE9F043FD
:1065900095B014460D460746FFF706FE00211C2263
:1065A0000DA800911BF0F4FA40230C9320466B4693
:1065B0000CAA0021FEF7F2FC044600284BD102464B
:1065C00001216868FEF7D0FE0221804622466868F5
:1065D000FEF7CAFE009E81462146002E3BD00029D0
:1065E00039D17368022B03D00A2B11D0F669F4E776
:1065F000B8F1000FFAD0716906A8043107ADFFF7B2
:1066000001FE0FCD3C1D0FC42B6823704146EDE702
:10661000B9F1000FEAD07469102201A81BF0B8FA92
:1066200006238DF8143001AD04F1080318341868FE
:1066300059682A4603C20833A3421546F7D101A977
:1066400006A807ADFFF7BEFD0FCD3C1D0FC42B689C
:1066500023704946CAE70098FEF798FC384615B003
:10666000BDE8F083024B034A1A6000225A6070476B
:10667000B0CF032000780D0000F11003012213F8C1
:10668000101C0129184608D153F8041C02EB4102E2
:10669000013A03F11003F2D17047022904BF53F805
:1066A000041C5218F4E770470020704710B5102101
:1066B0000446FDF7F8FC204610BD08B5FFF7F6FFCD
:1066C00008BD10B5C4687CB1206808B1FDF7E9FCCD
:1066D000237A1BB1606808B1FDF7E3FC20460C216A
:1066E000BDE81040FDF7DFBC10BD38B50B68036096
:1066F0004D6843689D42044608D015B16B6801336C
:106700006B60606808B1FFF7DCF8656038BD0B4668
:106710001146002210B5C0E90022044683600BB97F
:10672000204610BDFFF7E1FFFAE78368EBB11A7866
:10673000032A1AD8DFE802F00417021B052070476D
:1067400002685B685268D05C2D2812D0A0F130033B
:10675000092B0ED974280ED066280CD0A0F16E0338
:106760005842584170470620704700207047042067
:1067700070470320704702207047000000000000AF
:1067800010B50446FFF7D1FF02280DD0C31EDBB2BF
:10679000012B10D82268A36850685B68BDE81040E0
:1067A000002118441CF0F2B92268A36852685B68A3
:1067B000D35C742B02D09FED040B10BD9FED040B36
:1067C000FBE700BFAFF30080000000000000000006
:1067D000000000000000F03F2DE9F04786B00746BA
:1067E000884602A80021002499461023924602936D
:1067F000FEF75CFDCDE9004423464246394602A837
:10680000FEF75CFD061E24DDB6F1006F1249B4BF31
:1068100030014FF0FF3000F08FFA054698B10021AB
:1068200002A80024FEF742FDCDE900642B46424653
:10683000394602A8FEF742FDA04207DDCAF8005023
:106840000120C9F8006006B0BDE8F0872846FDF7D2
:1068500028FC2046F7E700BF50780D002DE9F84FDF
:10686000436886680B4488460E4407461C46194612
:106870004FF00D094FF0090AB44263D0254615F8D0
:10688000012B5C2A2BD1A14207D0A4EB010B1846A7
:106890005A461BF063F903465B44B54239D062782F
:1068A000752A2AD1A21CB21A032A32DDA01D04F1D6
:1068B000050E4FF0000CAE4553D015F8011FA1F1A5
:1068C00030025FFA82FBBBF1090F05D9A1F1610229
:1068D000052A07D8A1F1570242EA0C1CEBE728462B
:1068E0000446C9E7A1F14102052A12D8A1F13702F5
:1068F000F2E703F801CB0146F2E76E2A1CD00ED86E
:10690000622A13D007D82F2A11D05C2A0FD0222A4E
:106910000DD0002023E0662AFBD10C2207E0722A6A
:106920000DD0742AF5D183F800A001E008221A7076
:10693000A11C01330846D3E74FF00A02F7E783F8BA
:106940000090F5E7A14206D0641A184622461BF0D3
:1069500005F903462344A3EB0803BB600120BDE80F
:10696000F88FBCF17F0FC4D92146B9E7F8B50446CA
:10697000154600EB01160027B44210D02378032BF4
:1069800008D129462046FFF769FF48B1A368EF54B4
:106990001034F1E7002BFBD1A268AB54F8E70120DB
:1069A000F8BD000038B50023C0E9003304460E48A6
:1069B000C4E90203A9B10B78032B06D08BB9136885
:1069C00058684B68C35C6E2B07D013684D685868D5
:1069D0008B6828445B1BA060E36011462046FFF7EC
:1069E00084FE204638BD00BFA9740D0038B50025CF
:1069F0000B46C0E90055C0E90255C0E904550446FC
:106A000011464BB11A78012A06D103F11002DB6856
:106A100082604361FFF769FE204638BD10B54369C7
:106A2000044663B18068E060013B1030A0602061E3
:106A3000636113B1FFF720FEA060012000E018465B
:106A400010BD38B500250B46C0E90055C0E9025518
:106A50000446114605614BB11A78022A06D103F1AA
:106A60001002DB6882600361FFF73FFE204638BDFD
:106A700010B5036904464BB18068E060013B2361B7
:106A800013B1FFF7F9FDA060012000E0184610BD2A
:106A900038B500230446036010200D46FDF7FBFACD
:106AA00028B10123C0E90133024B0360C5602060B7
:106AB000204638BD3C780D00F0B5044687B00E4640
:106AC0000C202749154600F035F9014618B100237E
:106AD000C0E90033037203A80291FFF7D9FF029ABD
:106AE00042B9C4E90022A26003A8FDF730FB2046AA
:106AF00007B0F0BD00230193294601AB3046FFF7F4
:106B00006BFE18B9C4E90000A060EDE71449029FCC
:106B1000681C00F011F9029B786058680028F1D0D9
:106B20002A4631461BF00CF8029B01991868012295
:106B30001A725A68FFF71AFF0028E3D0029B1968FF
:106B40000493039B059313B15A6801325A6004AA57
:106B50002046FFF7DCFD05A8FDF7F9FAC4E700BF02
:106B600050780D00232813B502D9002002B010BDC3
:106B7000A0F10B03022B1AD8174C2178BFF35B8FBF
:106B800011F001010BD120460191FDF79FFA019907
:106B900028B11248FEF70CFD2046FDF79CFA0F4B7A
:106BA0001878FEF71BFB0028DFD10120DEE7012863
:106BB00009D800F09BF80021007CFEF7CFFA80F0A6
:106BC0000100C0B2D2E709380128EED800F04EF833
:106BD000007CFEF783FAF2E708CF03200CCF0320F6
:106BE000232838B504460D460AD8FF2908D0FFF7F8
:106BF000B9FF28B129462046BDE83840FEF7D6B98E
:106C000038BD38B504460D46FEF7D8F9FF2810D038
:106C1000062804D84D2323FA00F0C30709D42046E0
:106C2000FFF7A0FF28B129462046BDE83840FEF70F
:106C3000CDB938BD7047000038B5044614252A4642
:106C400000211AF0A5FF2580402507492581284607
:106C5000258200F071F804496060284600F06CF865
:106C6000E060204638BD00BF50780D0030B50E4DB5
:106C70002978BFF35B8F11F0010487B011D128464A
:106C8000FDF724FA68B101A8FFF7D6FF01AA214653
:106C90000648FFF78FFB2846FDF71DFA04481AF057
:106CA000E9F8024807B030BDB8CF0320BCCF0320BD
:106CB000356C0B007047000038B50A4B03600123A8
:106CC000044643610849202000F036F82025606022
:106CD0000549A560284600F02FF8C4E903052046C1
:106CE00038BD00BF1800010050780D0030B50E4DC2
:106CF0002978BFF35B8F11F0010487B011D12846CA
:106D0000FDF7E4F968B16846FFF7D6FF6A46214609
:106D10000648FFF7A3FB2846FDF7DDF904481AF003
:106D2000A9F8024807B030BDD4CF0320D8CF032044
:106D3000B56C0B00FDF7AFB9FDF7AFB937B5051D61
:106D40000446284601910BF083FE0023C4E91D335D
:106D5000C4E92033C4E9223384F87C30054B01991F
:106D6000236028461433636003B0BDE830400BF065
:106D700059BE00BFD49D0D0037B5051D04462846F9
:106D800001910BF065FE0023C4E91F33C4E92133F0
:106D90006367A4F87830054B0199236028461433C3
:106DA000636003B0BDE830400BF008BEA49D0D0049
:106DB0002DE9F04FDFF844922DED028BD9F8004019
:106DC000631C08EE100A83B0C9F80030002C40F0B4
:106DD000ED80DFF82CB2794B794F7A4EDFF824A2A0
:106DE00001221A70DBF80030774A9D68BC61C7E960
:106DF0000024C7E90244C7E9044407F11C0000F07D
:106E00007DFEDBF80010704A3D624FF0FF384D68A0
:106E1000C7F800A0C7F82480C6E90024C6E90244E8
:106E2000C6E90444B46106F11C0000F067FEC6E93F
:106E30000858DBF80010654D634ACB68C6F800A01F
:106E4000C5E90024C5E90244C5E90444AC6105F183
:106E50001C00019300F052FE019BC5F800A0DFF872
:106E6000A8A1C5E9083839465046FFF785FF584ABA
:106E700010460BF0EDFD564A564942F8081CA2F1A7
:106E800008071431B9603146534E1467C2E91E44F5
:106E9000C2E92044A2F8744042F8044C10460BF0BA
:106EA0008DFD29463046FFF767FF29464B48FFF71F
:106EB00063FF3269DBF80030C7F878A042F4005273
:106EC000474F3261474A9D68C6F874A0C7E900245D
:106ED000C7E90244C7E90444BC6107F11C0000F0A3
:106EE0000DFE414EDBF800103E4ADFF820A1C7F846
:106EF00000A0C7E9085806F11C004D68B461C6E956
:106F00000024C6E90244C6E9044400F0F7FDDBF8BA
:106F10000010344AD1F80CB0C6F800A0C6E90858F1
:106F2000324DC5E90024C5E90244C5E90444AC6119
:106F300005F11C0000F0E2FDC5E908B8DFF8D0B0AB
:106F4000DFF8D080C5F800A039465846FFF7F6FEB6
:106F500040460BF07DFD264B88F87840A8F10807E5
:106F6000C8E91C44C8E91F44C8E9214448F8083C62
:106F700048F8044C14331F4CBB60314640460BF0BC
:106F800051FD29462046FFF7D9FE1B482946FFF749
:106F9000D5FE2369C8F870B043F400532361D9F8D3
:106FA0000030C4F874B00133C9F8003018EE100A8C
:106FB00003B0BDEC028BBDE8F08F00BF00CC032016
:106FC0000CE10320BCE00320BC9E0D00E4E00320A4
:106FD000B4E1032068970D003CE20320C8E20320DF
:106FE00084E10320FC9E0D0034E103205CE10320DA
:106FF00098970D0074E4032004E50320F0DF0320DC
:1070000088CC0320B8950D0054E30320F8950D00BB
:1070100094E50320E8E3032070474268511E012AEB
:10702000416002D103685B6818477047044A0B68E7
:107030001268036093421EBF1A6801321A607047DB
:10704000F0CF03200160704702490348002218F086
:1070500017BB00BF51780D00F8CF032010B5034CCB
:1070600023680BB9FFF7F0FF206810BDF8CF0320AD
:107070000048704751780D0038B5436804465BB14D
:107080000025D4E90132AA4206D953F8250008B1F7
:10709000FFF7C3FF0135F4E7606808B1FDF701F8B9
:1070A000E3685BB10025D4E90223AA4206D953F86C
:1070B000250008B1FFF7B1FF0135F4E7E06808B13A
:1070C000FCF7EFFF23691BB9206958B9204638BD8A
:1070D00000252369585908B1FCF7E3FF0435182D42
:1070E000F7D1F1E7FCF7DDFFF0E703685A1E012B4B
:1070F00010B50446026006D1FFF7BEFF2046BDE88A
:107100001040FCF7CCBF10BD054B10B51B68044602
:107110000068984201D0FFF7E8FF204610BD00BF8D
:10712000F0CF03200A4A38B50B680D4611688B4230
:1071300018BF1A68044600681CBF01321A608142F9
:1071400001D0FFF7D2FF2B682360204638BD00BF77
:10715000F0CF0320036823B9034A13680133136097
:107160000360006801387047F4CF03202DE9F84F21
:10717000044616460846002A00F0AD80FFF7EAFFF5
:10718000A368013B9842054641D900F104086FF01D
:107190006043984534BF4FEA88074FF0FF373846C1
:1071A000D4F804A0FCF779FF8346A0680023984236
:1071B00069D1C0F104022A449200804538BF002200
:1071C00000210BEB80001AF0E3FC3846D4F80C9059
:1071D000FCF763FF0746A068002398425AD1C0F12C
:1071E00004022A449200804538BF0022002107EBA8
:1071F00080001AF0CDFCC4E901B8E760BAF1000FD5
:107200004FD1B9F1000F02D04846FCF74AFF73682E
:10721000D4F804900133736059F825300BB32F492B
:107220000868D0B1FFF796FF85423ED14868D4F890
:1072300004A0FFF78FFF5AF8203007466BB149686A
:10724000304608F0CFF943680133804643605AF86E
:107250002700FFF7E2FE4AF8278059F82500FFF7DC
:10726000DCFE49F8256000252E46A368AB4232D9E2
:10727000E36853F8250020B1FFF7CFFEE36843F839
:1072800025600135F1E7626852F823204BF823208E
:1072900001338CE7E26852F8232047F823200133BA
:1072A0009BE75046FCF7FDFEABE74868FFF752FF4F
:1072B00085420ED10868D4F804A0FFF74BFF5AF8B6
:1072C00020300746002BC8D00968304603F094F8F8
:1072D000B9E70831A4E7BDE8F88F00BF70780D006A
:1072E0002DE9F041214F3B78BFF35B8FDB0706466A
:1072F0000C46154606D43846FCF7E8FE10B1384671
:10730000FCF7E9FE1A490868F0B1FFF723FFA8422D
:1073100048680DD1FFF71EFF0346F16851F825209C
:10732000AAB104B3236820465B68BDE8F041184762
:10733000FFF710FFA84205D10868FFF70BFF2B46A7
:107340000546EAE70831DEE74FF0FF33E5E762681C
:10735000501C6060581C18BF023241F825401CBF09
:10736000626041F82340BDE8F08100BFECCF03200C
:1073700070780D0010B5084C2378BFF35B8FDB07E6
:1073800008D42046FCF7A2FE20B12046BDE81040FC
:10739000FCF7A1BE10BD00BF00D003202DE9F04FC7
:1073A00030238360C24B016087B00646C0220021B3
:1073B00018461AF0EDFBBF4B7060C0221846002142
:1073C0001AF0E6FBBC4CBD4DF06014220021201DDC
:1073D0001AF0DEFB34612560FFF74AFEB84C0388E3
:1073E0002B80002201231146204604F0FFFC224698
:1073F0003046B449B44CDFF8C4A3DFF8C4B3B34D8E
:10740000DFF8C093DFF8C083FFF7B0FEB04A012178
:10741000104618F0A5F93046AD4AAE49FFF7A6FE72
:10742000AD4AAE4B136001270023C2E90233C2E923
:107430000533C2E907331374938482F864305760CC
:107440001146A74A67602260A1602046194600F0F5
:107450000FFF22463046A349A34CFFF787FEA34AFD
:10746000A349576011603046A249FFF77FFEA24A48
:10747000A249576011603046A149FFF777FEA14A43
:1074800067602260FFF7EAFD2246A0609E499F4C9C
:107490003046FFF76BFE9E4ACAF8002000239D4A43
:1074A000676019462260C4F808A01A462046CAE957
:1074B0000233CAE90533CAE90733CAE90933CAE91D
:1074C0000B33AAF810308AF81230CAF834308AF830
:1074D0004330CAF8047000F06FFB224630468E49F4
:1074E0008E4CFFF743FE8E4ACBF8002000238D4AD6
:1074F000676019462260C4F808B01A462046CBE9F6
:107500000233CBE90533CBE90733CBE90933CBE9C8
:107510000B33ABF810308BF81230CBF834308BF8DB
:107520004330CBF8047000F003FB224630467E491E
:107530007E4CFFF71BFE7E4A7E4957601160304645
:107540007D49FFF713FE7D4A7D4957601160304643
:107550007C49FFF70BFE00237B4A6F60C5E90233CD
:10756000C5E90433C5E90633C5E90833C5E90A337B
:10757000C5E90C33C5E90E33C5E91033C5E912334B
:10758000C5E91433C5E91633C5E91833C5E91A331B
:10759000C5E91C33C5E91E332A602946C5E92033F5
:1075A0003A46C5E92233C5E92433C5E92633C5E99E
:1075B0002833C5E92A33C5E92C33C5E92E33C5F88C
:1075C000C03085F8C43020460BF0D6FE2246304647
:1075D0005E495F4CFFF7CAFD5E4A5F495760116024
:1075E00030465E49FFF7C2FD5D4A5E495760116053
:1075F00030465D49FFF7BAFD5C4A3946104605F052
:10760000ADF93046594A5A49FFF7B0FD594A394653
:10761000104604F0D7FB3046564A5749FFF7A6FDFF
:10762000564A3946104618F0ABF83046534A54498A
:10763000FFF79CFD534B544A1A601A465F600023C3
:10764000C2E90233C2E90533C2E907331374536256
:10765000936282F8243111464C4A67602260A1602F
:107660002046194600F06CFE224630464849494CF7
:10767000FFF77CFD484A4949576011603046484948
:10768000FFF774FD474A4849576011603046474943
:10769000FFF76CFD464A67602260FFF7DFFC224679
:1076A000A0604449444C3046FFF760FD8EE000BFC7
:1076B000A8DD0320B8DC0320A0DC032090D5032044
:1076C0009CD5032068DF032024D0032098D2032018
:1076D00078DD0320B4E0032008D1032078790D0081
:1076E000D0870D009CDF032090DD032068DE03209F
:1076F00058980D003CE0032078DE032094980D009C
:1077000038E00320B4870D0090DF0320C8D00320A9
:1077100010790D0028880D00ACDF0320D4D00320A1
:1077200000790D00F4870D00A8DF03208CD0032022
:107730006CD0032078880D00A4DF03207CD00320C8
:1077400090880D00A0DF0320C4980D0034E00320D2
:1077500030D003203CD00320A8880D0098DF032000
:107760004CD00320C4990D0030E0032004D0032046
:1077700094DF0320BCD703206CDF032084DD0320CB
:10778000B8E0032070D1032088790D00A8920D0085
:10779000DCDF03209CDD032070DE032050A00D0001
:1077A0009CE0032080DE03208CA00D0098E00320E5
:1077B0008C920D00D0DF0320E0D0032028D40320DA
:1077C0006CD40320B0D4032020D503208F4AC9F8FD
:1077D000002000238E4A676019462260C4F8089092
:1077E0001A462046C9E90233C9E90533C9E9073316
:1077F000C9E90933C9E90B33C9E90D3389F81030F8
:10780000C9F83C3089F86C30C9F8047000F094FA7B
:10781000224630467F49804CFFF7A8FC7F4AC8F8D3
:10782000002000237E4A676019462260C4F8088061
:107830001A462046C8E90233C8E90533C8E90733C8
:10784000C8E90933C8E90B33C8E90D3388F81030AB
:10785000C8F83C3088F86C30C8F8047000F024FA9E
:10786000224630466F49704CFFF780FC6F4A7049E2
:107870005760116030466F49FFF778FC6E4A6F49D8
:107880005760116030466E49FFF770FC00236D4A67
:107890006760C4E90233C4E90433C4E90633C4E9C8
:1078A0000833C4E90A33C4E90C33C4E90E33C4E92C
:1078B0001033C4E91233C4E91433C4E91633C4E9FC
:1078C0001833C4E91A33C4E91C33C4E91E332260F7
:1078D000C4E92033C4E92233C4E92433C4E926339C
:1078E000C4E92833C4E92A33C4E92C33C4E92E336C
:1078F000C4F8C03084F8C430534B3A462146184689
:1079000011F03EFF504B51491A463046FFF72EFC0E
:107910004F4A504B5760136030464F49FFF726FCE3
:107920004E4A4F4B1360576030464E49FFF71EFCDE
:107930004D4A3946104608F049FF30464A4A4B49FD
:10794000FFF714FC4A4A4B4B5760136030464A49D4
:10795000FFF70CFC494A4A4B5760136030464949CF
:10796000FFF704FC484A494B5760136030464849CA
:10797000FFF7FCFB474A484B5760136030464749C6
:10798000FFF7F4FB4649474BCDF808B0CDE90319A2
:1079900030466946CDE9003ACDF8148001F084FC08
:1079A0004148F768FFF7D6FB3E4B47F820303F4889
:1079B000F768FFF7CFFB47F820A03D48F768FFF7CF
:1079C000C9FB47F820B03B48F768FFF7C3FB47F80F
:1079D00020503948F568FFF7BDFB314945F82010C4
:1079E0000C48F568FFF7B6FB45F820900D48F568A0
:1079F000FFF7B0FB45F820801448F568FFF7AAFBB5
:107A000045F82040304607B0BDE8F08F30790D00D2
:107A100000930D00ECDF0320ECD0032020790D0053
:107A2000CC920D00E8DF032060D3032074D0032044
:107A300050930D00E4DF032084D0032068930D00F1
:107A4000E0DF0320BCA00D00A0D0032094E00320C1
:107A500044D0032080930D00D8DF032054D00320AE
:107A6000BCA10D0090E0032014D00320D4DF03203C
:107A70005CD00320C87C0D0094DE032064D003207A
:107A8000707C0D008CDE0320F8D003209C7C0D0060
:107A900090DE032000D10320447C0D0088DE03200B
:107AA00070D1032008D103209CDF0320ACDF03202A
:107AB000A8DF032034E00320DCDF032010B5074CEF
:107AC00002212046FFF76AFC054B06481C60064B66
:107AD00021461C60BDE81040FFF7B4BAB4D00320C3
:107AE000F0CF03209CDC0320FCCF0320024B1B685B
:107AF0000BB9FFF7E3BF7047F0CF032038B5002381
:107B000003600446084DFFF7F1FF084A2B6812682E
:107B10002360934206D0FFF72DFC2B6823601A6880
:107B200001321A60204638BDFCCF0320F0CF03207D
:107B300038B584680546ACB94420FCF7ACFA1A4B5A
:107B40000482C0E90034C0E90244C0E90544C0E948
:107B50000744C0E90944C0E90B448474446380F8D5
:107B60004340A860AB6811492E225A74AB682C229E
:107B70009A74AA680023C2E90513C2E90713C2E98F
:107B8000091391600A49D36008681063D362AA6838
:107B90005063084A1068AA68C15C1A4401330B2B71
:107BA00082F83810F7D138BD00790D00A9740D00A6
:107BB00030A90D000CCC032038B584680546ACB95B
:107BC0004420FCF768FA1A4B0482C0E90034C0E98B
:107BD0000244C0E90544C0E90744C0E90944C0E9DA
:107BE0000B448474446380F84340A860AB68114937
:107BF0002E225A74AB682C229A74AA680023C2E918
:107C00000513C2E90713C2E9091391600A49D36059
:107C100008681063D362AA685063084A1068AA68AB
:107C2000C15C1A4401330B2B82F83810F7D138BDF0
:107C300010790D00A9740D0030A90D000CCC0320A3
:107C4000064B10B504460360806810B103685B689A
:107C500098472046FFF7E0F9204610BDF4870D0055
:107C600010B50446FFF7ECFF2046FCF718FA204653
:107C700010BD0000064B10B504460360806810B1CB
:107C800003685B6898472046FFF7C6F9204610BD99
:107C900028880D0010B50446FFF7ECFF2046FCF7DE
:107CA000FEF9204610BD000038B584680546B4B919
:107CB0007020FCF7F0F9C0E90244C0E90544C0E9CE
:107CC0000744C0E90944C0E90B44C0E90D44154B21
:107CD000446003600474C46380F86C40A860AB68BF
:107CE0002E212C22C3E905120F49104A9A60002266
:107CF000C3E90712C3E90912C3E90B12DA605A6338
:107D00000B4A10689863AB68D8630A4BAA681B6873
:107D10004032591E0A3311F8010F42F8040B994200
:107D2000F9D138BD20790D00D8B70D00A9740D0028
:107D300030A90D000CCC032038B584680546B4B9D1
:107D40007020FCF7A8F9C0E90244C0E90544C0E985
:107D50000744C0E90944C0E90B44C0E90D44154B90
:107D6000446003600474C46380F86C40A860AB682E
:107D70002E212C22C3E905120F49104A9A600022D5
:107D8000C3E90712C3E90912C3E90B12DA605A63A7
:107D90000B4A10689863AB68D8630A4BAA681B68E3
:107DA0004032591E0A3311F8010F42F8040B994270
:107DB000F9D138BD30790D00D8B70D00A9740D0088
:107DC00030A90D000CCC0320064B10B5044603600F
:107DD000806810B103685B6898472046FFF71CF97C
:107DE000204610BDCC920D0010B50446FFF7ECFF05
:107DF0002046FCF754F9204610BD0000064B10B594
:107E000004460360806810B103685B6898472046A9
:107E1000FFF702F9204610BD00930D0010B504468F
:107E2000FFF7ECFF2046FCF73AF9204610BD0000B2
:107E30000D4B10B5036090F8433004467BB1806869
:107E400008B1FCF72EF9606908B1FCF72AF9E0697E
:107E500008B1FCF726F9606A08B1FCF722F9204660
:107E6000FFF7DAF8204610BD00790D0010B5044682
:107E7000FFF7DEFF2046FCF712F9204610BD000098
:107E80000D4B10B5036090F8433004467BB1806819
:107E900008B1FCF706F9606908B1FCF702F9E0697E
:107EA00008B1FCF7FEF8606A08B1FCF7FAF8204662
:107EB000FFF7B2F8204610BD10790D0010B504464A
:107EC000FFF7DEFF2046FCF7EAF8204610BD000071
:107ED0000D4B10B5036090F86C3004467BB18068A0
:107EE00008B1FCF7DEF8E06908B1FCF7DAF8606A7F
:107EF00008B1FCF7D6F8E06A08B1FCF7D2F82046E2
:107F0000FFF78AF8204610BD20790D0010B5044611
:107F1000FFF7DEFF2046FCF7C2F8204610BD000048
:107F20000D4B10B5036090F86C3004467BB180684F
:107F300008B1FCF7B6F8E06908B1FCF7B2F8606A7E
:107F400008B1FCF7AEF8E06A08B1FCF7AAF82046E1
:107F5000FFF762F8204610BD30790D0010B50446D9
:107F6000FFF7DEFF2046FCF79AF8204610BD000020
:107F700038B584680546ACB94420FCF78CF81A4B38
:107F80000482C0E90034C0E90244C0E90544C0E904
:107F90000744C0E90944C0E90B448474446380F891
:107FA0004340A860AB6811492E225A74AB682C225A
:107FB0009A74AA680023C2E90513C2E90713C2E94B
:107FC000091391600A49D36008681063D362AA68F4
:107FD0005063084A1068AA68C15C1A4401330B2B2D
:107FE00082F83810F7D138BD00790D00A9740D0062
:107FF00030A90D000CCC032038B584680546ACB917
:108000004420FCF748F81A4B0482C0E90034C0E968
:108010000244C0E90544C0E90744C0E90944C0E995
:108020000B448474446380F84340A860AB681149F2
:108030002E225A74AB682C229A74AA680023C2E9D3
:108040000513C2E90713C2E9091391600A49D36015
:1080500008681063D362AA685063084A1068AA6867
:10806000C15C1A4401330B2B82F83810F7D138BDAC
:1080700010790D00A9740D0030A90D000CCC03205F
:10808000064B10B504460360806810B103685B6856
:1080900098472046FEF7C0FF204610BDE4980D002B
:1080A00010B50446FFF7ECFF2046FBF7F8FF20462B
:1080B00010BD0000064B10B504460360806810B187
:1080C00003685B6898472046FEF7A6FF204610BD70
:1080D00018990D0010B50446FFF7ECFF2046FBF79A
:1080E000DEFF204610BD000038B584680546B4B9EF
:1080F0007020FBF7D0FFC0E90244C0E90544C0E9A5
:108100000744C0E90944C0E90B44C0E90D44154BDC
:10811000446003600474C46380F86C40A860AB687A
:108120002E212C22C3E905120F49104A9A60002221
:10813000C3E90712C3E90912C3E90B12DA605A63F3
:108140000B4A10689863AB68D8630A4BAA681B682F
:108150004032591E0A3311F8010F42F8040B9942BC
:10816000F9D138BD20790D00D8B70D00A9740D00E4
:1081700030A90D000CCC032038B584680546B4B98D
:108180007020FBF788FFC0E90244C0E90544C0E95C
:108190000744C0E90944C0E90B44C0E90D44154B4C
:1081A000446003600474C46380F86C40A860AB68EA
:1081B0002E212C22C3E905120F49104A9A60002291
:1081C000C3E90712C3E90912C3E90B12DA605A6363
:1081D0000B4A10689863AB68D8630A4BAA681B689F
:1081E0004032591E0A3311F8010F42F8040B99422C
:1081F000F9D138BD30790D00D8B70D00A9740D0044
:1082000030A90D000CCC0320064B10B504460360CA
:10821000806810B103685B6898472046FEF7FCFE53
:10822000204610BDDCA00D0010B50446FFF7ECFFA2
:108230002046FBF734FF204610BD0000064B10B56A
:1082400004460360806810B103685B689847204665
:10825000FEF7E2FE204610BD10A10D0010B5044649
:10826000FFF7ECFF2046FBF71AFF204610BD000089
:1082700038B58468054684B96820FBF70CFFC0E96F
:108280000244C0E90544C0E907441A4B4460036056
:108290000474848480F86440A860AA68164B9360D4
:1082A0002E21002382F82410D3601374AA682C2195
:1082B00082F82510114A1068AA68C15C1A4401337B
:1082C000242B82F82610F7D10D4B18680023AA68DA
:1082D000C15C1A4401331A2B82F84A10F7D1AB68FB
:1082E000084A5A6104229A61074ADA6105221A6231
:1082F00038BD00BF78790D00A9740D0008CC0320AB
:1083000004CC032038790D003D790D00064B10B5E3
:1083100004460360806810B103685B689847204694
:10832000FEF77AFE204610BDD0870D0010B504463A
:10833000FFF7ECFF2046FBF7B2FE204610BD000021
:1083400038B58468054694B94FF49470FBF7A3FEE2
:10835000C0E90244C0E90544C0E90744C0E9094452
:10836000184B44600360047480F82441A860AB6833
:10837000154A9A6000222E21DA601A742C22C3E971
:108380000912124A126803F12C00511E233211F80F
:10839000014F40F8044B9142F9D10D4A126803F1A4
:1083A000BC00511E193211F8014F40F8044B9142A4
:1083B000F9D1084A5A6104229A61074ADA61052212
:1083C0001A6238BD88790D00A9740D0008CC03200D
:1083D00004CC032044790D0058790D00064B10B5EC
:1083E00004460360806810B103685B6898472046C4
:1083F000FEF712FE204610BDA8920D0010B50446EF
:10840000FFF7ECFF2046FBF74AFE204610BD0000B8
:108410000B4B10B5036090F8643004465BB1806884
:1084200008B1FBF73EFE606908B1FBF73AFEE06970
:1084300008B1FBF736FE2046FEF7EEFD204610BDE4
:1084400078790D0010B50446FFF7E2FF2046FBF7F0
:1084500026FE204610BD00000B4B10B5036090F8BF
:10846000243104465BB1806808B1FBF71AFE6069ED
:1084700008B1FBF716FEE06908B1FBF712FE2046D3
:10848000FEF7CAFD204610BD88790D0010B50446E0
:10849000FFF7E2FF2046FBF702FE204610BD00007A
:1084A00038B58468054684B96820FBF7F4FDC0E957
:1084B0000244C0E90544C0E907441A4B4460036024
:1084C0000474848480F86440A860AA68164B9360A2
:1084D0002E21002382F82410D3601374AA682C2163
:1084E00082F82510114A1068AA68C15C1A44013349
:1084F000242B82F82610F7D10D4B18680023AA68A8
:10850000C15C1A4401331A2B82F84A10F7D1AB68C8
:10851000084A5A6104229A61074ADA6105221A62FE
:1085200038BD00BF78790D00A9740D0008CC032078
:1085300004CC032038790D003D790D00064B10B5B1
:1085400004460360806810B103685B689847204662
:10855000FEF762FD204610BD34980D0010B50446AC
:10856000FFF7ECFF2046FBF79AFD204610BD000008
:1085700038B58468054694B94FF49470FBF78BFDC9
:10858000C0E90244C0E90544C0E90744C0E9094420
:10859000184B44600360047480F82441A860AB6801
:1085A000154A9A6000222E21DA601A742C22C3E93F
:1085B0000912124A126803F12C00511E233211F8DD
:1085C000014F40F8044B9142F9D10D4A126803F172
:1085D000BC00511E193211F8014F40F8044B914272
:1085E000F9D1084A5A6104229A61074ADA610522E0
:1085F0001A6238BD88790D00A9740D0008CC0320DB
:1086000004CC032044790D0058790D00064B10B5B9
:1086100004460360806810B103685B689847204691
:10862000FEF7FAFC204610BD2CA00D0010B5044644
:10863000FFF7ECFF2046FBF732FD204610BDC36874
:108640009A68C26010B502B1506042685A600C6806
:10865000844203D10B609860436010BD91688142F1
:108660000CBF9360D360F6E78368DA68826010B568
:1086700002B1506042685A600C68844203D10B60BA
:10868000D860436010BDD16881420CBFD360936055
:10869000F6E7C36823B118469B68002BFBD17047EF
:1086A0004368DA68824202D118465B68F9E7C2681B
:1086B000934218BF18467047037833B943685B6824
:1086C000834202D1DB6818467047826822B11346A4
:1086D000D268002AFBD1F6E743689A688242F2D159
:1086E00018465B68F9E7FFF7D4BFFFF7D2BFFFF783
:1086F000E3BF2DE9F8431E4603F104080023C1E956
:1087000002330C464A600B7000B39642916018D158
:108710007160F46001274FF000097368A3423FD0F5
:1087200060680278002A3BD14568AB68984223D143
:10873000EB6883B11A7872B907701F702A702C46E3
:10874000EBE7B3689342E5D1B160E3E7D160F3684A
:108750009342DFD1DDE7C368A34203D14146FFF76F
:108760006EFF0446636841461F70284685F80090F6
:10877000FFF77AFF2546E2E713B11A78002ADBD02B
:108780008368A34203D14146FFF76EFF0446636846
:1087900041461F70284685F80090FFF750FFE9E733
:1087A00001221A70BDE8F8832DE9F7430F46D0E99E
:1087B00002610446002E3ED000293DD00A461346F1
:1087C0009268002AFBD1A342DA684BD099427360C9
:1087D0009E6027D05D6802B1556058688260D9609C
:1087E000E1684B607968A1421ED17B6061682078A6
:1087F00059601978187016462170237873B1391DA5
:108800004FF000084FF001097B68B3427BD0002E87
:108810003FD03378012B3CD001233370204603B086
:10882000BDE8F0831D46DDE761688868A0420CBFA3
:108830008B60CB60DAE70E46656806B175607B68D1
:10884000A34211D17E60BB68A34203D1E36893B910
:108850006368BB60FB68A342CFD1A36893B9636828
:10886000FB60CAE71646E7E763689A68A2420CBF56
:108870009E60DE60E7E733461A469B68002BFBD11B
:10888000BA60E7E733461A46DB68002BFBD1FA6093
:10889000B3E7A868B04239D1E868037843B980F8F3
:1088A000009028462B700191FFF7C9FEE8680199F6
:1088B000D0E9022322B192F800C0BCF1010F0BD124
:1088C00023B193F800C0BCF1010F05D16B6880F8AB
:1088D00000802E461D4697E713B11B78012B08D167
:1088E00001231370002303700191FFF7BDFEE868B8
:1088F00001992B780370C36801222A7003B11A70A2
:108900002846FFF79CFE002E86D187E7037843B9FF
:1089100080F8009028462B700191FFF7A5FEA8680B
:108920000199D0E9023222B192F800C0BCF1010FE6
:1089300006D1002BCAD093F800C0BCF1010FC5D0FE
:1089400013B11B78012B08D101231370002303708E
:108950000191FFF774FEA86801992B780370836872
:1089600001222A7003B11A702846FFF77DFECAE77C
:10897000009B03201A60704700207047002070475A
:1089800004207047009B03201A607047009B03205F
:108990001A607047009B03201A607047F0B50546C7
:1089A000D0E90020801A65D092F900401378002C9D
:1089B00003DB01322A601846F0BDC12B3BD9DF2B07
:1089C0000FD8012856D0507800F0C004802C32D146
:1089D00000EB8310A0F542508142EDD302322A60B1
:1089E000EAE7EF2B1AD8022844D9547804F0C000E3
:1089F000802820D1E02B01D19F2C1CD9907800F049
:108A0000C006802E17D1A40104EB03330344A3F561
:108A1000622080388142CFD30332E0E7F42B0AD8BA
:108A2000032827D9547804F0C000802803D1F02B04
:108A300004D18F2C06D84FF0FF30BDE7F42B01D1C5
:108A40008F2CF8D8967806F0C0008028F3D1D07823
:108A500000F0C007802FEED1240304EB834303EB27
:108A600086130344A3F17270A0F502508842A3D884
:108A70000432B4E76FF001009EE7F0B50546D0E997
:108A80000020801A65D092F900401378002C03DB97
:108A900001322A601846F0BDC12B3BD9DF2B0FD81D
:108AA000012856D0507800F0C004802C32D100EB61
:108AB0008310A0F542508142EDD302322A60EAE7EA
:108AC000EF2B1AD8022844D9547804F0C00080282B
:108AD00020D1E02B01D19F2C1CD9907800F0C0064A
:108AE000802E17D1A40104EB03330344A3F56220C5
:108AF00080388142CFD30332E0E7F42B0AD8032831
:108B000027D9547804F0C000802803D1F02B04D179
:108B10008F2C06D84FF0FF30BDE7F42B01D18F2CFE
:108B2000F8D8967806F0C0008028F3D1D07800F00D
:108B3000C007802FEED1240304EB834303EB86139D
:108B40000344A3F17270A0F502508842A3D8043206
:108B5000B4E76FF001009EE77F2908D8D0E9003222
:108B60009A4242D05A1C0260197001207047B1F538
:108B7000006F10D2D0E90032D21A012A35D95A1C1E
:108B800002608A09403A1A70036801F03F015A1CDA
:108B900002608039E8E7B1F5803F11D2D0E90032B8
:108BA000D21A022A21D95A1C02600A0B203A1A70E2
:108BB0000268531C0360C1F38513803B1370E3E725
:108BC000B1F5881F11D2D0E90032D21A032A0CD98C
:108BD0005A1C02608A0C103A1A700268531C036017
:108BE000C1F30533803B1370E2E7002070477F2913
:108BF00010B508D8D0E900329A4247D05A1C02601A
:108C00001970012010BDB1F5006F0FD2D0E900320C
:108C1000D21A012A3AD98C091A46403C02F8024B72
:108C200001F03F01803902605970EAE7B1F5803FF9
:108C300012D2D0E90032D21A022A27D90A0B203ADE
:108C40001A70C1F38512803A01F03F015A708039E1
:108C5000DA1C02609970D4E7B1F5881F16D2D0E90A
:108C60000032D21A032A11D98A0C103A1A70C1F3B1
:108C70000532803A5A70C1F38512803A01F03F0103
:108C80009A7080391A1D0260D970BAE70020B9E7DE
:108C9000B1F5803F10B5D0E900430BD2A34222D0FA
:108CA000D30789B201D449BA89B2A31C03602180D9
:108CB000012010BD1B1B022B15D98B0AC1F3090122
:108CC000A3F52153A1F5105112F001029BB289B214
:108CD00001D15BBA9BB223800AB949BA89B2231D7C
:108CE00003606180E4E70020E3E773B51E46079B5D
:108CF0000093089B01931446A642254612D0216892
:108D0000B1F5881F04F104040ED26846FFF76FFF27
:108D10000028F1D10120069B009A1D60099B1A6072
:108D200002B070BD0020F6E70220F4E730B585B050
:108D3000CDE90023099B0293144D0A9B0393DDE9BF
:108D40000123009CA24215D0039A9A4212D02946D0
:108D50006846FFF792FE831C014609D0B0F5881FD4
:108D600011D2012202A8FFF793FF0028E7D1009457
:108D7000012000E00020089B009A1A600B9B029AD9
:108D80001A6005B030BD0220F5E700BFFFFF1000FC
:108D90008B070CD5D0E90032D21A022A09D9064A2B
:108DA0001188927819809A70036803330360012058
:108DB00070470020704700BF90790D002DE9F04109
:108DC0000E46044619463046069D1746FFF7E0FF5B
:108DD00078B3D4E900329A422ED01988A1F55840D0
:108DE000B0F5806F1DD2012D28D0D21A022A23D9C6
:108DF0005B88A3F55C42B2F5806F1FD2A3F1577375
:108E0000A3F5773303EB81214FF002088F4215D38E
:108E10003046FFF7A1FE60B1236803EB48032360EF
:108E2000D7E7A1F55C43B3F5806F07D34FF0010896
:108E3000ECE70120BDE8F0810020FBE70220F9E724
:108E40007FB5CDE90223099B04930A9B0593002378
:108E50000093074A04A902A8FFF7B0FF089B029AF3
:108E60001A600B9B049A1A6007B05DF804FB00BF00
:108E7000FFFF100070B50D460446194628461646F9
:108E8000FFF786FF70B1D4E900329A420CD019681E
:108E90008E420BD32846FFF75FFE18B123680433D8
:108EA0002360F0E7012070BD0020FCE70220FAE714
:108EB0001FB5CDE90023079B0293089B0393074A44
:108EC000002302A96846FFF7D5FF069B009A1A60A7
:108ED000099B029A1A6005B05DF804FBFFFF1000C1
:108EE00038B54B0704460CD5D0E900535B1B022B69
:108EF00007D904490322284618F012FE08B90335A1
:108F0000256038BD607A0D0070B50C4619460546DF
:108F10001646FFF7E5FFD5E900239A4212D0D4E9BF
:108F200000329A4201D1012070BD31462846FFF738
:108F300035FD831CF7D0864206D323681A1D2260B4
:108F40001860E8E70020EFE70220EDE71FB5CDE964
:108F50000023079B0293089B0393074A002302A95F
:108F60006846FFF7D1FF069B009A1A60099B029A98
:108F70001A6005B05DF804FBFFFF100037B5CDE9BE
:108F8000000168469DF8181014461D46FFF7A8FF1B
:108F9000002044B1A84204F1FF3404D829466846B1
:108FA000FFF7FCFCF5E7009803B030BD13B514469D
:108FB000194600230093049A034B2046FFF7DEFF77
:108FC000001B02B010BD00BFFFFF10002DE9F843E9
:108FD0000D461946044617461E46FFF781FFD4E9A1
:108FE0000098C1451BD0D5E900329A4217D03946C6
:108FF0002046FFF7D3FC831C014604D108980130BA
:10900000C0B2BDE8F88387420BD332462846FFF74B
:109010003FFE0028E3D1C4E900980120F1E70020D9
:10902000EFE70220EDE700007FB5CDE90223099BC1
:1090300004930A9B059300230093074A012304A984
:1090400002A8FFF7C3FF089B029A1A600B9B049AC1
:109050001A6007B05DF804FBFFFF1000F7B5CDE91B
:1090600000019DF82010684616461C46FFF738FFA1
:1090700000256F1CB7420ED221466846FFF78EFCD2
:10908000A04202D9009803B0F0BDB0F5803F28BFE0
:109090003D460135EDE7F5D14FF6FF734FF6FE7112
:1090A0008C4294BF214619466846FFF777FCE9E7F2
:1090B00013B51446194600230093049A034B204627
:1090C000FFF7CCFF001B02B010BD00BFFFFF100078
:1090D00073B51D46079B0093089B01931446A54258
:1090E00025D02188A1F55843B3F5806F15D22B1BED
:1090F000022B1CD96288A2F55C43B3F5806F1ED2A7
:10910000A2F15772A2F5773202EB8121022668465E
:10911000FFF76DFD40B901200AE0A1F55C43B3F50E
:10912000806F0CD30126F2E704EB4604D7E700205A
:10913000069B009A1C60099B1A6002B070BD022059
:10914000F6E7000037B5DDE90745CDE900230F4913
:10915000DDE900329A4214D0A54207D10120069BD6
:10916000009A1A60099B1C6003B030BD6846FFF787
:1091700084FC831CF2D0B0F5881F04D244F8040BA1
:10918000E6E70020EBE70220E9E700BFFFFF100061
:1091900037B5CDE90023069D08491446002045B1A6
:1091A000B0F5881F05F1FF3503D26846FFF765FC6F
:1091B000F5E70098001B03B030BD00BFFFFF1000B3
:1091C000F7B5CDE90023089E0E4915460024671C1B
:1091D000BE420FD96846FFF750FCB0F5881F03D395
:1091E0000098401B03B0F0BDB0F5803F28BF3C465F
:1091F0000134ECE7F4D14FF6FF716846FFF73DFC10
:10920000EEE700BFFFFF100010B5034B03600446FC
:10921000FDF702FF204610BD3C7A0D0010B5044654
:10922000FFF7F2FF2046FAF73AFF204610BD000094
:1092300010B5034B03600446FDF7EEFE204610BD5B
:10924000B8790D0010B50446FFF7F2FF2046FAF793
:1092500026FF204610BD000010B5034B03600446F6
:10926000FDF7DAFE204610BDE4790D0010B5044686
:10927000FFF7F2FF2046FAF712FF204610BD00006C
:1092800010B5034B03600446FDF7C6FE204610BD33
:10929000107A0D0010B50446FFF7F2FF2046FAF7EA
:1092A000FEFE204610BD00002DE9F04F89B00B688E
:1092B00001934B68A94F02938B680393A84B3B60C3
:1092C0000125019B7D6004460E46BB6000213846A7
:1092D000FFF7E6F87B68D4F80480DFF818B3DFF80E
:1092E00018A32B447B609F4B1846FDF733FF48F8CB
:1092F00020709D4F9D4A7D603A60FDF7AFFE7A6811
:10930000D4F80480B8602A447A609948FDF722FFB7
:1093100048F82070974F984A029B3A600022BB6041
:1093200011467D603846FEF767FE7A68D4F80480FF
:109330002A447A605846FDF70DFF48F820708F4F99
:109340008F4A039B3A600022BB6011467D6038461D
:10935000FEF70EFE7A68D4F804802A447A605046FC
:10936000FDF7F8FE48F82070DFF89082854AD4F8BF
:109370000490C8F800200227C8F804708248FDF75E
:10938000E9FE49F82080DFF87882804AD4F804901A
:10939000C8F80020C8F804707D48FDF7DBFE49F8E6
:1093A0002080DFF860827B4AD4F80490C8F800205F
:1093B000C8F804707848FDF7CDFE49F82080DFF842
:1093C0004882294640460AF0F1F8D8F80420D4F83B
:1093D000049072482A44C8F80420FDF7BBFE49F8FF
:1093E0002080F36804933369059373696C4E6D4A6A
:1093F0000693049BB3600021756032603046FFF72E
:10940000B7F87268DFF80492D4F804802A447260D6
:109410004846FDF79FFE48F82060634E634A75603A
:109420003260FDF71BFE7268D4F80480B0602A44F5
:1094300072605F48FDF78EFE48F820605D4E5E4A20
:10944000059B32600022B360756011463046FEF71E
:1094500093FE7268DFF8B881616807912A447260F0
:109460004046FDF777FE0799544A41F82060544E74
:10947000069B32600022B360756011463046FEF7ED
:1094800033FE7268616807912A4472604D4A104643
:10949000FDF760FE079941F820604B4E4B49316063
:1094A0004B48616877600791FDF754FE079941F8D2
:1094B0002060484E484931604848616877600791AC
:1094C000FDF748FE079941F82060454E4549316057
:1094D0004548616877600791FDF73CFE079941F8C0
:1094E0002060424E2946304610F064FA7168656883
:1094F0003F4801317160FDF72DFE1A4B45F82060A1
:109500001846E568FDF726FE019B45F820305846D1
:10951000E568FDF71FFE029B45F820305046E568E0
:10952000FDF718FE039B45F820304846E568FDF737
:1095300011FE049B45F820304046E568FDF70AFE21
:10954000204A059B45F820301046E468FDF702FEEE
:10955000069B44F8203009B0BDE8F08FB8DE032048
:1095600034980D0040E0032030DF032018980D00F0
:1095700024E0032000DF032018990D000CDF0320F6
:10958000E4980D0094990D0048E00320AC990D007B
:1095900044E00320D8990D002CE0032028E00320AC
:1095A000C4DE03202CA00D003CDF0320D09F0D0063
:1095B00084E0032018DF032010A10D00DCA00D00C3
:1095C00024DF0320ACE00320E8DE03208CA10D00A3
:1095D000A8E00320F8DE0320A4A10D00A4E00320EE
:1095E000D8DE0320D0A10D008CE00320A8DE0320EC
:1095F00088E0032050E003204CE00320E0DE03205D
:10960000F0DE0320D0DE032098DE0320A0E003205C
:10961000B0E0032001F04EBD02F0F8B8F8B50B68D9
:1096200053F80C5C0746681C0E46FAF736FD00231B
:10963000044601462A46304601F072FC0023635579
:109640003C602846F8BDF8B50B6853F80C5C6FF029
:1096500060426B1C9342074634BF98004FF0FF30C6
:109660000E46FAF71AFD0023044601462A46304604
:1096700002F010F8002344F825303C602846F8BD7D
:1096800013B5049CCDE9003413460A46C1684FF077
:10969000000005F04AFD02B010BD30B58BB00D469C
:1096A0000AA901E90C0079230693129B0593119BEB
:1096B0000493109B03930EAA044692E8030001ABA7
:1096C00083E80300099B00932046089BAA684FF09B
:1096D000000105F0D2FE20460BB030BD30B58BB096
:1096E0000D460AA901E90C006D230693129B059310
:1096F000119B0493109B03930EAA044692E8030067
:1097000001AB83E80300099B00932046089BAA68ED
:109710004FF0000105F0B1FE20460BB030BD30B572
:109720008BB00D460AA901E90C0077230693129B22
:109730000593119B0493109B03930EAA044692E891
:10974000030001AB83E80300099B00932046089BBC
:10975000AA684FF0000105F090FE20460BB030BD26
:1097600030B58BB00D460AA901E90C0064230693BD
:10977000129B0593119B0493109B03930EAA04461E
:1097800092E8030001AB83E80300099B00932046A5
:10979000089BAA684FF0000105F06FFE20460BB051
:1097A00030BD30B58BB00D460AA901E90C00742319
:1097B0000693129B0593119B0493109B03930EAA8F
:1097C000044692E8030001AB83E80300099B009381
:1097D0002046089BAA684FF0000105F04EFE204687
:1097E0000BB030BD81684FF0000005F040BEF0B511
:1097F00091B00AAC84E80C00002307930D930EABE4
:1098000006930DAB0593199B04939DF86030039369
:1098100016AA0F46054692E8030001AB83E8030051
:109820000B9B009308AE0A9BBA684FF000013046CC
:1098300006F015FA96E803000D9B84E803005BB977
:10984000DDE90E011B9BC3E9000194E8030085E8F4
:109850000300284611B0F0BD1A9A1360F5E710B561
:1098600088B00DF1200C0CE90C00002304939DF846
:10987000303003930B9B02939DF828300193079B94
:10988000009313468A684FF00001044606F0FEF884
:10989000204608B010BD0A4601694FF0000005F0EF
:1098A000DEBD07B50968009251F80C3C0A46016913
:1098B0004FF0000005F0A7FD03B05DF804FB13B501
:1098C000049CCDE9003413460A46C1684FF00000FD
:1098D00005F036FC02B010BD30B58BB00D460AA9BC
:1098E00001E90C0079230693129B0593119B0493C5
:1098F000109B03930EAA044692E8030001AB83E891
:109900000300099B00932046089BAA684FF00001C2
:1099100005F00DFE20460BB030BD30B58BB00D46C6
:109920000AA901E90C006D230693129B0593119B74
:109930000493109B03930EAA044692E8030001AB24
:1099400083E80300099B00932046089BAA684FF018
:10995000000105F0ECFD20460BB030BD30B58BB0FA
:109960000D460AA901E90C0077230693129B059383
:10997000119B0493109B03930EAA044692E80300E4
:1099800001AB83E80300099B00932046089BAA686B
:109990004FF0000105F0CBFD20460BB030BD30B5D7
:1099A0008BB00D460AA901E90C0064230693129BB3
:1099B0000593119B0493109B03930EAA044692E80F
:1099C000030001AB83E80300099B00932046089B3A
:1099D000AA684FF0000105F0AAFD20460BB030BD8B
:1099E00030B58BB00D460AA901E90C00742306932B
:1099F000129B0593119B0493109B03930EAA04469C
:109A000092E8030001AB83E80300099B0093204622
:109A1000089BAA684FF0000105F089FD20460BB0B5
:109A200030BD81684FF0000005F024BDF0B591B065
:109A30000AAC84E80C00002307930D930EAB069349
:109A40000DAB0593199B04939DF86030039316AA00
:109A50000F46054692E8030001AB83E803000B9B29
:109A6000009308AE0A9BBA684FF00001304606F03A
:109A700092FA96E803000D9B84E803005BB9DDE9E8
:109A80000E011B9BC3E9000194E8030085E8030075
:109A9000284611B0F0BD1A9A1360F5E710B588B0EA
:109AA0000DF1200C0CE90C00002304930C9B039394
:109AB0000B9B02939DF828300193079B009313465C
:109AC0008A684FF00001044606F07CF9204608B091
:109AD00010BD0A4601694FF0000005F0C4BC07B58F
